:020000041000EA
:1000000000B5324B212058609868022188439860DF
:10001000D860186158612E4B002199600221596106
:100020000121F02299502B49196001219960352056
:1000300000F044F80222904214D00621196600F024
:1000400034F8196E01211966002018661A6600F04E
:100050002CF8196E196E196E052000F02FF8012189
:100060000842F9D1002199601B49196000215960AB
:100070001A491B48016001219960EB211966A021F2
:10008000196600F012F800219960164914480160C1
:100090000121996001BC002800D000471248134993
:1000A000086003C880F30888084703B5996A0420EC
:1000B0000142FBD001200142F8D103BD02B5186610
:1000C0001866FFF7F2FF186E186E02BD00000240BE
:1000D000000000180000070000035F00212200005C
:1000E000F4000018222000A00001001008ED00E03C
:1000F00000000000000000000000000074B24E7A12
:1001000000200420F7010010CB010010CD010010E9
:10011000C9010010C9010010C9010010C901001077
:10012000C9010010C9010010C9010010CF01001061
:10013000C9010010C9010010D1010010D301001045
:10014000C1010010C1010010C1010010C101001067
:10015000C1010010C1010010C1010010C101001057
:10016000C1010010C1010010C1010010C101001047
:10017000C1010010C1010010C1010010C101001037
:10018000C1010010C1010010C1010010C101001027
:10019000C1010010C1010010C1010010C101001017
:1001A000C1010010C1010010C1010010C101001007
:1001B000C1010010C1010010C1010010C1010010F7
:1001C000EFF30580103800BE00BE00BE00BE00BECA
:1001D00000BE00BEF2EB8871C0700010E07000102D
:1001E0003802001090A31AE71E481F49086006C88D
:1001F00081F3088810471D480068002801D019487D
:10020000F3E70DA40ECC002902D000F012F8F9E7B4
:100210001749184A002000E001C19142FCD116495B
:100220008847164988471649884700BEFDE701C937
:1002300001C29A42FBD37047E0700010C00000205A
:100240003819002058890010000004200000042004
:100250005889001000100420001004200000000045
:10026000704700000000000008ED00E0000000D032
:10027000381900208CA8002011210010BD040010A6
:1002800009210010F8B5C0460448054B10B583425B
:1002900003D0044B002B00D0984710BD3819002024
:1002A000381900200000000006480749091A8B1081
:1002B000C90FC91810B5491003D0044B002B00D04A
:1002C000984710BD381900203819002000000000A0
:1002D00010B5074C2378002B09D1FFF7D5FF054B4C
:1002E000002B02D0044800E000BF0123237010BDA2
:1002F000C01C0020000000009C6B0010054B10B5D6
:10030000002B03D00449054800E000BFFFF7CCFFF5
:1003100010BDC04600000000C41C00209C6B0010F3
:10032000F0B5DE4657464E464546E0B58DB001F085
:10033000C3F9554B05009A46544B0E009B46544B4F
:10034000544F9946544B009501960893534B0BAC70
:100350000993534B07979846524B05935346DA46F9
:10036000C3460693069B1968002900D101314E4807
:1003700001F054FD002302900393029A039B00981E
:100380000199801859418023009001911B069942E0
:1003900004D30122454B52420092019300980199E7
:1003A00001F05EF8424B0AAA13800023D0250221F7
:1003B000079E937033882D062380B3788846A370F8
:1003C000A961C046C046C046032322000AA9394895
:1003D00006F092FB414601206961002101F0ACF872
:1003E000A278F0211000637809011B020B4018432A
:1003F000314B07000AA803800023837033882380D1
:10040000B378A3704346AB61C046C046C0462200E5
:1004100001000133274806F06FFB4346012000210D
:100420006B6101F089F8F021637809011B020B4030
:10043000A1784846194353461B6800685A1C1205A8
:10044000120D82420ED148464D460068013000052B
:10045000000D2860089D286801302860099D2868E3
:100460000130286058465E460068DB00451C356058
:10047000059DAC46E85063449F80D980BFF35F8FF1
:1004800053461A606EE7C046201000207CA800206A
:100490004C280020A06B00102428002038280020C1
:1004A0002C2800205828002040420F00FFFFFF7F2B
:1004B00001A0FFFF00C0034001E0FFFFF0B5DE46F2
:1004C00057464E464546E0B5B84CB94DA54401F0F7
:1004D00075FF0021B74801F0C1FFFA200224800017
:1004E00001F03EF82800B44904F084FCB34A6B687C
:1004F00014600722296823405140C8320A40B0499D
:1005000000200A60AF4A0121136000F075F9012153
:10051000022000F071F90121032000F06DF90120A3
:1005200000F084F9D0231B065C62A7485C6104F0EC
:1005300035FC0023029308AB9A46A44B0027039393
:1005400010AB9846A24BA34E9B46A34BA34D0493DE
:10055000A34B0593A34B9946002001F033FF53288A
:100560000ED033682A689B1AF822120113422CD14C
:10057000012000F0F5FF002001F024FF5328F0D106
:100580000024FA20800001F01DFF0300303B092BFE
:1005900000D907E106AB0134073318550F2CF0D111
:1005A000002352460021135550460A2205F08CFEC6
:1005B0008D4B421E9A42D4D8039B186033682A6838
:1005C0009B1AF82212011342D2D0BC4642465F4623
:1005D0000024C34629683368994200D1DBE02B68C8
:1005E000DB00FB1803CB03C2BFF35F8F2B68013422
:1005F00001331B051B0D2B60802CEBD15946BB46EC
:100600006746049B1B685A1E9341002F07D0404643
:10061000029A00680132904201D002221343404600
:10062000621ED200825850460292704AA44602606E
:100630006F4A012709924361039A059B12681B6860
:100640008260836100234246C36108AB9A4610ABC7
:1006500098461268012302614246C460884614002D
:10066000514664485B420A78013153405A083B4086
:100670005B4203405A4053083A40524202405340C2
:100680005A083B405B4203405A4053083A405242AA
:10069000024053405A083B405B4203405A405308D3
:1006A0003A405242024053405A083B405B420340AA
:1006B0005A4053083A405242024053408C42D2D1F1
:1006C0004146A0466446E4006718A44601203C0069
:1006D000484A0F7801315F407B0807407F4217404E
:1006E0007B405F0803405B4213405F407B0807404C
:1006F0007F4217407B405F0803405B4213405F40EE
:100700007B0807407F4217407B405F0803405B4205
:1007100013405F407B0807407F4217407B405F08E3
:1007200003405B4213407B40A142D2D1DB4307939D
:100730004B461B68202250469B680121644604F00A
:10074000B1FF43465246AA461D004B46B1461E0025
:1007500001922700402C00D94027336828003A0036
:1007600001219B6804F09EFFED19E41BF1D1019B70
:1007700055469A4633004E4699461B68042201218D
:100780009B6807A804F08EFF4B461B6801279868FA
:1007900004F08AFCE0E65946BB466746002C00D1CF
:1007A000DAE62EE7002C00D1DBE6F9E6BCFBFFFF22
:1007B00000C00340B0100020006A180004F003409D
:1007C00000D0034004E0034021030010201000206B
:1007D000582800207CA80020382800204C28002021
:1007E00024280020E81000209F8601004144433265
:1007F000010020002083B8ED094A83009A1810B543
:1008000014684022544080322240064CC000A44666
:1008100063441A60044B9C466044416010BDC0466E
:1008200004C0014004D00140004001400123D02217
:100830008340120693629361094A83009A181168F3
:100840004022514080320A400649C0008C46634431
:100850001A60054B9C460523604443607047C046C0
:1008600004C0014004D00140004001408023DB056A
:100870001868000F7047C0460FB400B5084883B031
:1008800001F040FE049B002B07D005A91800019140
:1008900001F0D0FB034801F035FE012001F0E2FB3E
:1008A000A46B0010B46B001070B5EFF3108C72B62F
:1008B0000D4D2B68002BFCD0BFF35F8F0724CB08B6
:1008C000C618C05C01230C40A3401C000440034236
:1008D00007D118433070BFF35F8F2C608CF3108802
:1008E00070BD1000FFF7C8FF2C0100D0F8B54746D7
:1008F000CE46884680B5EFF3108C72B6214D2C6839
:10090000002CFCD0BFF35F8F9A422CD8D408072765
:10091000055D061901241740BC402C421FD0072159
:100920000127894609E0D408055D06194C463900BF
:100930001440A1400C00294211D001329342F2D25E
:1009400001204042BFF35F8F00220E4B1A608CF3F0
:10095000108800280FDBC0BCB946B046F8BD25435F
:1009600010003570EEE7BFF35F8F00232B608CF330
:100970001088012040424346002BECD00898FFF736
:100980007BFFC0462C0100D0044A1078431CDBB228
:10099000172B00D9102313707047C0462410002075
:1009A00010B5064B064C82B00100009318221F239D
:1009B0002000FFF79BFF02B010BDC046B86B0010CF
:1009C000B42300200021044B044ABFF35F8F02C30D
:1009D0009342FAD17047C046000100D0800100D098
:1009E000054B064A1360064A136053609360D36058
:1009F00013615361936170478080808000E400E060
:100A000004E400E01F2318401E3B8340002905D06A
:100A1000C021044A490053501360704780220149A5
:100A20008B50FAE700E100E001228240034B1B6893
:100A300013405A1E9341D8B27047C04600E100E00F
:100A400001238340014A13607047C04600E200E082
:100A5000064B10309B688000C358054A00209B1A43
:100A60002F229A424041C0B27047C04600ED00E0DC
:100A70002810002070B50D00EFF3108672B60F4AF3
:100A80001368002BFCD0BFF35F8F0D4B10309B68B9
:100A900084001B590B4A934203D09D4201D001F0C0
:100AA0004FF8074B9B681D51BFF35F8FBFF35F8FFC
:100AB0000022024B1A6086F3108870BD240100D01A
:100AC00000ED00E0C1010010F0B557464E46DE468D
:100AD0004546E0B585B0060000911700EFF3108B96
:100AE00072B66A4A1368002BFCD0BFF35F8F0025F3
:100AF000674B5D579A46002D00DA8BE06B00654C22
:100B000001935B199B009846A146C1444B4652464F
:100B10009B7910361370604BB6009B6899590B1B7C
:100B20002F2B33D95D4B994200D0ACE0019B42465C
:100B30009C465B4B6544AD0063535A4B0232A2188E
:100B4000043B9B1A1B05584A5B0D651913436B80C8
:100B5000564B0121AB80FF23AB71009BEF71AB6063
:100B60004B460B4319004C4B9B689951BFF35F8F69
:100B7000BFF35F8F0022454B1A608BF3108805B0DE
:100B8000F0BCBB46B246A946A046F0BD01200A0013
:100B90008243D3798C46BB4231D845461300444941
:100BA0001B1B5B415943090D3D4B63533D4B0235C4
:100BB0006519043B5B1B1B053B4D5B0D2B43AA4694
:100BC0004D466B800425AC465546E044131F444413
:100BD0001B1B1B055B0D1D434B46997100999D80A6
:100BE00099604946DF71334B01431360BBE75800FE
:100BF000C01880002018C179B94211D9020006231B
:100C0000D356002BF3DA0293131D9A462A4B614602
:100C1000039319E000F094FF002553465D576DE7FC
:100C2000908802934005131D9A46031561469C4621
:100C30004046D444634604302018181AE0230005C7
:100C4000400D1B021843039004235B429C46E14481
:100C500050464B461B1A1B055B0D9C46124B95716B
:100C600098466346404603439380019B5A1992007D
:100C7000039BA418A380029B0E4AA371009B2260D1
:100C8000E771A3606FE700F05BFF4FE7240100D03E
:100C900084A800202810002000ED00E0C101001011
:100CA00000A1FFFF5810002000E0FFFF01BDFFFF83
:100CB000AAAA00000148804701BD000070B50124C8
:100CC0000443EFF30581EFF3108C72B6214A1368E9
:100CD000002BFCD0BFF35F8F1F4B05001F4AED1A9E
:100CE0006D416A43120D1E4D8900AE6852B27658AE
:100CF000A6421CD00621595691421CD012215956A9
:100D0000914222D01E215956914220D02A21595673
:100D10000324914210D0134B19781A708171BFF3DC
:100D20005F8F00220B4B1A608CF3108870BDAB688C
:100D30000D4C5C50EFE700246100091989005B1835
:100D4000FF21997109499980E5E70124F4E702241C
:100D5000F2E7C046240100D028100020AAAA000013
:100D600000ED00E084A80020C101001001BDFFFFDC
:100D700010B5084B084C82B00100009300220523F7
:100D80002000FFF7B3FD002801DB1F23181A02B073
:100D900010BDC046D46B001088A80020024B9C46B2
:100DA000614489000160704740000034F8B5134D7C
:100DB000134E2C00FF27B5421ED22368002B0FD004
:100DC000FFF7E2FD01002800FFF7E8FFA780BFF36F
:100DD0005F8F0834B4420FD223682500002BEFD177
:100DE000FFF7D2FD01002800FFF7D8FF2771BFF3FE
:100DF0005F8F0834B442EFD3F8BDC04628190020F5
:100E00003819002010B50400FFF7BEFD01002000D6
:100E1000FFF7C4FFFF232371BFF35F8F10BDC046F0
:100E200010B504000120FFF7BBFD034BC3189B0066
:100E30002360BFF35F8F10BD40000034034B9C461E
:100E4000614489000160BFF35F8F70474000003448
:100E50000A4B1968EFF3108072B60A68002AFCD0BA
:100E6000BFF35F8F1B68BFF35F8F00221A6080F3B0
:100E7000108840BF002000217047C0465CA80020B9
:100E8000F0B5DE4657464E464546E0B585B0EFF331
:100E9000058203231340B64A9900575801229A400D
:100EA00088469346B34B1A60B34B02935B46B348F4
:100EB00043630823FE5E002E35DABB881BB2002B8D
:100EC00000DBA8E0BB79002B00D0E9E00823F85E46
:100ED00000281EDB43007A691B18DB00D3189D68CD
:100EE000DC686B1C00D108E1A44801004144826A1F
:100EF0000B69AE1A9B1A9E4213D35A46036A1A42D2
:100F00000FD09E4800F0D0FB8C4202DCCED185424F
:100F1000CCD940BF05B0F0BCBB46B246A946A046FE
:100F2000F0BD0D61EDE77A69730091469B19DB0016
:100F300099444B469C68DD6800F0B6FB8D42BCDCF2
:100F400000D1FEE0002D00DAE3E04B46029A1B6977
:100F5000934200D1D5E04A46528849469446082239
:100F6000B85E6246000449691043984700900191B9
:100F70000099019A0B001000134300D1C9E013003F
:100F80000A00002800DBE0E020002900801A9941D7
:100F90004B469860D96000229A5E002A00DA8CE7FE
:100FA00053009C187D69E4002C190093A368E46841
:100FB0009A468C4200DD80E702D1834200D97CE76B
:100FC00008239C46BC443A8103976746009BB4467D
:100FD0003E000EE08C4200D1C5E01E000023F25E10
:100FE000002A0BDB53009C18E4002C19A768E46866
:100FF000BA469B18DB00EB188C42EBDD33006646EB
:101000009C464B461A806346039F1E80BB881BB2DA
:10101000002B00DA56E73A69EFF3108172B61368D5
:10102000002BFCD0BFF35F8F0123BE885B42BB80E7
:1010300036B23B69BFF35F8F00221A6081F31088DC
:10104000002E00DA3EE73B0008333A0099467D69FE
:1010500073009B19DB00EB189968DC688C4608204C
:10106000115E4846002910DB009306E0A34240D001
:101070000023F95E3800002906DB4F007F18FF00CF
:10108000EF19FB68A342F1DD009B068000201E5E85
:101090001980002EDCDA1700BB79002B00D115E790
:1010A0000023BB713D000823F95E08354B1C00D1BD
:1010B0002FE77C690800A44603E035004B1C00D1F3
:1010C00006E74B005B180A006146DB00CE18C95EDC
:1010D00073881BB2002BF0DA01235B42DC17B3608C
:1010E000F4608242EAD029803B89100033803A8143
:1010F000E4E7BB686345BBD9C6E7631C00D0F3E6F1
:10110000FFE64B465B699A461B69504698470028A4
:1011100023D14B461B883A693B81EFF3108372B6AB
:1011200011680029FCD0BFF35F8F49467A880A8096
:101130003A697E80BFF35F8F0021116083F31088CE
:10114000BBE6844200D8FDE6B7E60C4800F0ACFAF6
:10115000009B019CC01861411AE753461A685B68FE
:101160000092019304E7824500D836E746E7C0467F
:101170003C2800203C700540810E001000400540D6
:1011800070B52E4C2569002D04D00A212C48FFF79C
:1011900005FE70BD2B4E0321300000F07BFAE660A7
:1011A000FFF7F2FB284B03229C46D02322701B063C
:1011B0001B6801216370254B6044A3600F238000EE
:1011C00020610220638063694942A1801980023155
:1011D000198647311D83585218315A5275325C397D
:1011E00099521832013199521832013199521832FC
:1011F00001319952083518329D52023118329952F4
:101200001832013199521832013199521832013194
:1012100099521832013199521832013199520C4BBE
:101220000C49DC6001303562FFF724FC012103200A
:10123000FFF7E8FB084B1D60A7E7C04670100020D1
:101240005CA800200040054040000034FFFF100073
:101250003C280020810E001038600540004870478F
:1012600070100020F8B51F0008AB1B7804001600B2
:10127000002B08D100F020FA32003B00121A8B41FB
:10128000002B00DA53E02269EFF3108072B6136886
:10129000002BFCD0BFF35F8F0223E15E63694A003D
:1012A0005218D2009B18002937DB1A886280226905
:1012B000BFF35F8F0025156080F31088069A9E604B
:1012C000DF601A61079A5A615A8801325204520C3F
:1012D000101C002A1FD082B25880080410432669CF
:1012E000EFF3108772B63268002AFCD0BFF35F8F2D
:1012F000A2881A80A1802369BFF35F8F00221A6041
:1013000087F310880B4923788C4601329A40E368B2
:1013100063441A60F8BD0120DDE72369BFF35F8FE6
:1013200000221A6080F3108801204042F2E700207A
:10133000F0E7C0463C20000070B501000469EFF3FF
:10134000108C72B620680028FCD0BFF35F8F02209B
:101350000D5E4C6968004019C0002418002D37DB71
:10136000208848800869BFF35F8F002606608CF3F1
:101370001088E36063880498013320615B0405985A
:101380005B0CA26060611A1C002B1FD093B2280472
:10139000628018430A69EFF3108C72B61368002B51
:1013A000FCD0BFF35F8F8B8823808D800B69BFF3E8
:1013B0005F8F00221A608CF310880B7801329A40FC
:1013C000CB6808498C4663441A6070BD0122DDE792
:1013D0000B69BFF35F8F00221A608CF31088012025
:1013E0004042F2E73C20000010B543890A149342C2
:1013F0001ADD53009B184269DB00D3180469EFF330
:10140000108C72B62268002AFCD0BFF35F8F5A8816
:10141000090494B2090C8A4208D00369BFF35F8FB4
:1014200000221A608CF31088002010BD8022120266
:1014300014435C80012302698371BFF35F8F002135
:1014400011608CF31088044902788C469340C2687E
:10145000012062441360E8E73C20000040787047B8
:10146000F0B504000D0006267642F717C646361979
:101470006F4100B582B08F4214D811D000F01CF932
:1014800032003B00121A8B41002B17DC002B47D097
:101490002000290000F04EF902B080BCB846F0BD33
:1014A0008642EBD90022002316001F0000F004F949
:1014B00032003B00121A8B41002BE7DD00F0FCF8F4
:1014C00032003B00121A8B41002B0ADB00230193F0
:1014D000154B3200009315483B00FFF72DFF002805
:1014E000D6DB00239C46B046114A124E736A9F42D7
:1014F00004D8B16A4145CBD29F42C9D11168EFF3FC
:10150000108072B60B68002BFCD0BFF35F8F13689E
:10151000BFF35F8F6146196080F3108820BFE5E755
:10152000002AB5D0CAE7C046510E00107010002046
:101530005CA800200040054070B504000D0000F0DC
:10154000BBF88023001969411B06994202D3012090
:1015500002494042FFF784FF70BDC046FFFFFF7F96
:1015600070B5060000F0A8F8FA2204000D00002370
:1015700030000021920000F0DFFC80230019694157
:101580001B06994202D3012002494042FFF768FF3F
:1015900070BDC046FFFFFF7FF0B5CE46474680B521
:1015A00004000D0083B0EFF30587002F0DD0364AFD
:1015B0000020536A8B4203D3926A0130A24250D377
:1015C00003B0C0BCB946B046F0BD304B9846DB68AE
:1015D0009946434648461E7800F066F80B00494697
:1015E00002000436B600715820008E1A2900801AB5
:1015F00099418F4211DC0ED020BF234A0020536A4C
:10160000AB42DDD3926A0130A242D9D2EB1A5A1E04
:101610009341D8B2D4E78642EED900F04DF82200CB
:101620002B00121A8B41002B20DB00230193184B57
:101630002200009340462B00FFF77EFE011E15DDC1
:10164000114B2E005A6A95421CD89B6AA34217D3AD
:101650004046FFF7C9FE0C4A0020536A9E42AFD8AD
:10166000D0E75B1A5A1E9341D8B2A9E7064A002078
:10167000536AAB42A4D3926A0120A242A0D2C5E72A
:101680009542E5D120BFE3E70040054070100020FF
:10169000510E001010B5024A0248FFF705F910BDBF
:1016A000F86B0010B82300200300416A0A00986A12
:1016B000596A8A42FAD17047034B596A0A00986AFC
:1016C000596A9142FAD170470040054070B5040054
:1016D0000D00174A536A1900966A536A8B42FAD171
:1016E0003000190024184D41AB4216D813D0104BCE
:1016F0002A005B6A9D4203D90D494B6A9342FCD391
:10170000934207D10A4A02E0516A994202D1916A92
:10171000A142F9D370BDA642E9D9054B5B6A1C0012
:101720005A1CEFD0012201246442E5175242E3E73C
:1017300000400540064A536A9942FCD807D1044B41
:1017400002E05A6A914202D19A6A8242F9D3704702
:1017500000400540F8B5DE464E4657464546E0B5E2
:101760008B4605000A991800160000F057FB0A9BEB
:101770006C001F02324B64199C46A40064446368E9
:1017800081469F4200D967602B1FDBB29846012B30
:1017900030D9C02380229B01E31812011A60294B23
:1017A000AD0059599A4600291BD17301E0262268E1
:1017B00053401E40802342465B01E3181E60012A0D
:1017C00030D9802380229B01E31812011A6053460E
:1017D0004A4667605A51F0BCBB46B246A946A0468D
:1017E000F8BD586900F01AFB013043001B18033B99
:1017F000FDD2DAE75B46012BCBD1C02303229B014C
:10180000E3181A60023AA3681A42FCD07301E0267A
:101810002268AD0053401E4080230A4A5B01924675
:10182000E3181E605A462168514003220A401A609C
:1018300001225B469A40A3681A42FCD0C1E7C04629
:1018400000800040BC230020F0B546464F46D646F7
:10185000C0B51F00344B44009C462418A4006444C7
:10186000636888461600FF2B02D880235B00636004
:10187000031FDBB29A46012B30D9C02380229B0183
:10188000E31812011A60294B85005959994600291D
:101890001BD17301E026226853401E40802352462C
:1018A0005B01E3181E60012A30D9802380229B014E
:1018B000E31812011A6080235B0063604B465F519E
:1018C000E0BCBA46B146A846F0BD586900F0A6FA99
:1018D000013043001B18033BFDD2DAE74346012BDE
:1018E000CBD1C02303229B01E3181A60023AA368FC
:1018F0001A42FCD07301E0262268850053401E4046
:1019000080230A4A5B019146E3181E604246216823
:10191000514003220A401A60012342469340A268C4
:101920001342FCD0C1E7C04600800040BC23002029
:10193000014B8000C0587047BC230020F8B504005C
:1019400020481D0017000E0000F068FA0100380062
:1019500000F064FA069B29041B0319432368002B3B
:101960001EDB194B194DE21853425A4180235B018B
:101970009C461203164B62441A60164B1A601700FD
:101980002B689F43FBD1144B2660E2182123A060F3
:1019900013602368002BFCDA0823E1601360F8BDB4
:1019A0003F2322681340B342DBD1A3681B051B0D04
:1019B0008342D6D1EE22E368D20213408B42D0D1CB
:1019C000EDE7C046001BB7000040FDBF08C0004067
:1019D00000E0004000F000400430000010B580241A
:1019E0001C4BE4051C6000281AD001231A4C184334
:1019F0001A4BDC611A4C44401C6259629862802187
:101A0000144BC9051960174817490860E021C9043B
:101A10001960002A07D18022144B12061A6010BDEB
:101A20000E4BD861EBE753019B1A9B009A18802359
:101A300012015B049A4209D213000D490B60074B57
:101A40005A608022094BD2051A60E8E7094B1A0058
:101A5000F3E7C04600B00540D3C007B000800540A2
:101A60002D3FF84FFCFF01000820014000A0054079
:101A700020280020FFFFFF008023024A9B000B4329
:101A8000D362704700800540142310B50100188808
:101A900004331B88984710BD162310B50100188821
:101AA00002331B88984710BDF8B54746CE4680B52F
:101AB0000F1E19D014239946043304000025012673
:101AC00098464B461888434621681B88984701C4AE
:101AD000431E9841013540420640AF42F1D13000EB
:101AE000C0BCB946B046F8BD0126F8E7142370B56E
:101AF0000400188804331B880D000549984703002B
:101B00000020002C01DB0130A04029009847C0468E
:101B100055420000AA23064A1B0113608D235B0077
:101B2000D3600449044B19605368002BFCDA7047FA
:101B30000040024000B0FA00006002407047C0461A
:101B400010B50148FEF798FE1C6C001070B5074DEB
:101B5000074EB54209D20024013E761BB60808CDD7
:101B6000984723000134B342F9D170BD586B00107F
:101B7000946B001070B5074D074EB54209D2002492
:101B8000013E761BB60808CD984723000134B342C6
:101B9000F9D170BD8C6B0010946B0010054B064A98
:101BA00006491A60064A074B1A6010000B689843F2
:101BB000FBD1704700E00040BFCDFBFE08C00040F5
:101BC000FE7F3C0000F00040044BDB6C002B03D197
:101BD0008022034BD2021A607047C04600001150A9
:101BE0004C201150044A054B1A60054A1368DB016A
:101BF0008033FBD17047C046FFFFFF0100F000407B
:101C000008C000404022034B9A675A671A67DA6699
:101C10007047C04600F0014010B5FEF7D3FE10BD7E
:101C2000F8B52B492B4C2C4D641AA6103200302EDF
:101C300000D930222800920000F0EEF9BC2C3ED8EA
:101C4000731C18000127254A302B3BD92F212C1952
:101C50006407E40F891B052917D9302B15D8002CF0
:101C600033D0B300EA503F1B33199B007908EB18BF
:101C7000C900C9181A605A6008338B42FAD101238F
:101C80003B421CD09F433E18731CB1006A50302B5E
:101C900015D09B00EA50B31C2E2E10D09B00EA50AA
:101CA000F31C2D2E0BD09B00EA50331D2C2E06D09A
:101CB0009B00EA50731D2B2E01D09B00EA50084B6D
:101CC0009D60F8BD2F37BF1BC0E73000CBE7C04693
:101CD00000010010C001001000000020C101001030
:101CE00000ED00E0002310B5294C82B0A367FFF798
:101CF00011FF0122274B1A60636C012BFCD10322D8
:101D0000254B1A60224A936B012BFCD101330093BF
:101D10000121224A22480433FFF710FE0523012146
:101D20000093204A2048FFF709FE002202210420E8
:101D30001E4BFFF789FD0022012105201C4BFFF7F8
:101D400083FD0022002107201A4BFFF77DFD0022B2
:101D500000210820174BFFF777FD8023DB0000935D
:101D6000002200210920134BFFF7F4FC0022104B46
:101D700000210620FFF768FD0420FFF7D9FD0E497A
:101D800000F04CF801000020FFF776FE02B010BD15
:101D9000008000403CB0004030B00040002F685947
:101DA00000800240008C864700C00240001BB70044
:101DB00040597307006CDC0240420F0001480421C7
:101DC000014B184790100020A91A0010124A936F77
:101DD0009B0815D29066D166002905D0FFE7FFE782
:101DE000FFE7516F106F704704B580210906C217D5
:101DF0005140002800D0C84304F066FE002104BD15
:101E0000F0B5146E556E576F166FFFF7E3FF14664B
:101E1000556657671667F0BD000000D0114A936FF2
:101E20009B0813D210665166002905D0FFE7FFE733
:101E3000FFE7516F106F704704B5002801D00020F4
:101E4000C04304F041FE002104BDC046F0B5146E4D
:101E5000556E576F166FFFF7E5FF146655665767A7
:101E60001667F0BD000000D0132370B51D78012D5A
:101E700019D014DD1F48FFF70FFE06001E48FFF7BC
:101E80000BFE1E4C80223100200000F0C5F8022D10
:101E90002DD01B48FFF7F8FD1A4B186070BD1A4B88
:101EA000164CA364F5E7184B144C23606360A360E1
:101EB000E36023616361A361E36123626362A36200
:101EC000E36223636363A363E36323646364A364E0
:101ED000E36423656365A365E36523666366A366C0
:101EE000E36623676367A367E367A364D1E7064BF1
:101EF000A364CEE75344000053460000C01A0020FC
:101F00004C33000058A800200D1F001007B5604694
:101F100001880A0A0230DF2AFAD1C9B2820804D342
:101F2000028840880004104300E00068014A5050D5
:101F3000039007BDC01A002051434343C9188C4683
:101F4000110C83B24B4310B4040C614392B280B2C3
:101F5000504362431C041B0C001910BC594113046C
:101F6000120CC0185141614470470000132310B592
:101F700012481C78FFF790FD0100012C0AD003DD08
:101F800080220F4800F048F80E48FFF77DFD0E4B09
:101F9000186010BD0A4C5422200000F03DF80B4B95
:101FA0006365A365E36523666366A366E3662367EB
:101FB0006367A367E3672362E361E5E753460000D5
:101FC000C01B00204C33000058A80020D11F001077
:101FD00007B5604601880A0A0230DF2AFAD1C9B281
:101FE000820804D3028840880004104300E000689F
:101FF000014A5050039007BDC01B00200148042136
:10200000014B1847A0100020A91A0010014B1B68B3
:1020100018470000A0100020014B5B681847000023
:10202000A010002010B5002800D110BD00F01EFA4D
:10203000FBE7C04610B5094A0300146884B0002CC1
:1020400008D0012200910648524203A9A04701206E
:1020500004B010BD00F056FA0020F9E71C2800205B
:102060002520001000BEFDE7094A03001068002883
:1020700005D00849C3188B4207D81360704706483B
:102080000449C31810608B42F7D901204042F5E79C
:1020900018240020000004208CA80020030010B5A4
:1020A00008001100002B05D1044B1A685B6800F092
:1020B0002BF910BD01204042FBE7C046F06B001039
:1020C0000300013B10B508001400012B06D80123C2
:1020D0000022210000F098F8200010BD01204042AD
:1020E000FBE7C046012040427047C0460120404205
:1020F0007047C046012040427047C046030002229C
:1021000000209A424041704710B5FFF7ABFFC04630
:1021100070B5FFF71BFD074D074EB54209D20024ED
:10212000013E761BB60808CD984723000134B34220
:10213000F9D170BD946B00109C6B0010030010B5BA
:10214000080011001B68984710BDC046F0B5464610
:102150004F46D646C0B5437D80460E001700002B83
:102160004BD0002A32DD274B01259A464B1E002416
:102170000020994607E0335D0A2B2CD02B00013458
:102180000135BB4213DA002CF5D133780A2BF5D197
:1021900043461B7D002BF1D14346504602211B686C
:1021A000984728002B0001340135BB42EBDB874206
:1021B00004DD4346391A1B6830189847F619013E6A
:1021C00033780D3B5A42534142461375E0BCBA4640
:1021D000B146A846F0BD4B461B5D0D2BCED0A042AC
:1021E000DADA4346211A1B683018984743465046AE
:1021F00002211B6898472800D4E7036811003000CB
:102200009847E3E7B86C0010F0B5DE4657464E46F7
:102210004546E0B585B017001C0006000D00FFF72D
:102220004BFA0023314A12184B41802109068B4298
:1022300002D301222E4B52422E4908008A4604F056
:1022400063FC01906B1C03D1300003F05DFF0500BF
:10225000002C26D0284B9846284B1C68002C15D003
:10226000002F21D1264F02E02469002C0ED02368D4
:10227000002BF9D03B68002B01D0A342F4D1200001
:102280002A003100C0472469002CF0D1019B002BAB
:1022900028D1280005B0F0BCBB46B246A946A046EE
:1022A000F0BD184B9846D7E7154B994602ABDF1D9A
:1022B0000A239B4602E02469002CE7D02368002B08
:1022C000F9D04B461B68002B01D0A342F3D12A0062
:1022D00031002000C0475B460122390020003B70DE
:1022E000C047E8E7504604F0DFFBD2E740420F006A
:1022F000FFFFFF7F301900204D2100100C2400202B
:10230000142400203D210010F8B557464E4645469E
:10231000DE4698461A4BE0B59B461A4B07000E0066
:1023200091469A46184D5B461C68002C03D115E077
:102330002469002C12D02B68002B01D0A342F7D1C6
:10234000A368002BF4D03100380098470028EFDD57
:10235000F0BCBB46B246A946A046F8BD53465B6AF0
:10236000984508D85246926A4A4502D30220404214
:10237000EEE79845FAD101200021FFF7A7F9D2E74F
:102380000C24002000400540142400200A4A136851
:10239000002B05D10CE01A001B691032002B07D06E
:1023A0009842F8D1002902D1036913600161704796
:1023B0000029FCD01060FAE70C24002010B500F0D2
:1023C000E1FA10BDF0B5CE464746040080B583B0B3
:1023D000FFF772F926000027802336184F411B06AD
:1023E0009F4202D30126194F7642194BB9469846AF
:1023F000184D43461C68002C03D116E02469002CBC
:1024000013D02B68002B01D0A342F7D1A368002B77
:10241000F4D0012101A898470028EFDD6B46187918
:1024200003B0C0BCB946B046F0BD0B4B5A6A9145EB
:1024300007D89B6AB34202D302204042F0E791459D
:10244000FAD101200021FFF741F9D2E7FFFFFF7F1A
:102450000C2400201424002000400540002903D053
:10246000437D002B00D1037541757047F0B5CE4612
:10247000474680B583B06B460600DD1D2870FFF728
:102480001BF900231A4A12184B41802109068B427E
:1024900002D30122174B524217490800884604F024
:1024A00033FB164B81461C68002C14D0144F02E0FD
:1024B0002469002C0FD02368002BF9D03B68002B37
:1024C00001D0A342F4D1200001222900FFF73EFEF3
:1024D0002469002CEFD14B46002B05D1300003B00E
:1024E000C0BCB946B046F0BD404604F0DDFAF5E7A1
:1024F00040420F00FFFFFF7F301900200C24002016
:102500001424002070B5040003F0FEFD0123010037
:10251000050001222000FFF777FE084B1C68002C05
:1025200006D06368002B05D098472469002CF8D1A9
:10253000280070BD2469002CF3D1F9E70C24002099
:102540007047C0460022014B1A70704785A80020D2
:102550004B790020FF2B0BD18B79002B08D1CB7945
:10256000012B05D1082A03D9024B8A7809301A7049
:102570007047C04685A800200120704710B501298A
:1025800001D0012010BD13495379107909781B023D
:10259000034300209942F5D15378012B08D0022B38
:1025A000F0D1002064220021FFF718FA0120E9E7AA
:1025B000D37891781B021943DB0507D54A0A10002E
:1025C00001231A407E331940FFF790FA01204A0A8E
:1025D0004042F5E785A8002000487047846D001050
:1025E00070B5050014000120012909D1537800209D
:1025F000012B05D1637912791B021343072B00D0FD
:1026000070BD21002800024A9F3301F067FAF7E706
:10261000DC6C00100123037000487047BC6C001094
:102620004B780A781B0213438A7810B512041A43B8
:10263000CB781B0613439622D200934200D010BDE4
:102640000022012011004042FFF750FA024B1860AF
:10265000024B19607047C046AC230020B023002015
:1026600010B5024B1878FEF7EBF910BD86A80020D4
:10267000154B70B51A68002A22D0EFF3108172B69C
:1026800010680028FCD0BFF35F8F00200F4A59600C
:1026900010701B68BFF35F8F186081F310880024EF
:1026A00000250B4E3078FEF7BFF9002804D1002436
:1026B00000252900200070BD3078FEF7C1F9F8E749
:1026C000FA240025A400ECE73028002087A8002089
:1026D00086A8002070B5040000200E0001F01EFB4B
:1026E000002836D0002001F02FFB002831D0FEF763
:1026F000E3FF0023184A12184B41802109068B4240
:1027000016D2164D280004F0FFF9002821D0002031
:1027100001F004FB00280FD101200021404200F00D
:102720000DFD03246442280004F0BEF9200070BDB2
:1027300001220B4B5242E4E7002001F005FB002888
:10274000EAD021003200002001F008FB041EEAD18B
:10275000E7E703246442E9E740420F0060A8002055
:10276000FFFFFF7F10B5FEF7A7FF00230E4A1218E8
:102770004B41802109068B4202D301220B4B52426E
:102780000B4C200004F0C0F900280CD001200021DF
:10279000404200F0D3FC002001F02AFB0028F5D1D4
:1027A000200004F081F910BD40420F00FFFFFF7FC1
:1027B00060A80020F8B5DE46574680B505000C003D
:1027C000FEF77AFF0023374A12184B418021090691
:1027D0008B4202D30122344B5242344908008A46CC
:1027E00004F092F9002803D1C0BCBB46B246F8BD44
:1027F000002001F093FA00284AD00026002C43DD87
:102800002B4B9B4614E0A919002001F02BFB07007D
:1028100001200021404200F091FC002001F0E8FA84
:10282000FEF74AFF224BF61918605960B4422BDDBF
:10283000002001F037FBA71B0200B84200DD3A0080
:10284000002AE0D101200021404200F077FC002066
:1028500001F0CEFA002001F061FA002814D0002027
:1028600001F020FB0028E1D1FEF726FF5B460F00B8
:102870001A685B68002184460E4812184B419F423B
:1028800002D8D3D19445D1D9504604F00DF9ABE725
:1028900000200021064B18605960504604F004F9EE
:1028A000A2E7C04640420F00FFFFFF7F60A8002064
:1028B000B81A002020A1070030B52B4C85B00021AC
:1028C000200004F009F900281CD1284B1A68002ABE
:1028D00016D0EFF3108172B610680028FCD0BFF359
:1028E0005F8F01242248596002781B68D2B20470BD
:1028F000BFF35F8F0020186081F31088002A17D083
:1029000005B030BD01200021404200F017FC00203E
:1029100001F01AFA0500200004F0C6F8002DEFD0EF
:10292000144B1B68002BEBD0134A10689847E7E75D
:10293000FEF794FC0400FEF7BFFEFA22002392008B
:1029400012184B41802109068B4202D301220B4B06
:102950005242012102910021019109492000009178
:10296000FEF780FCCCE7C04660A80020302800209D
:1029700087A80020AC230020B0230020FFFFFF7FAA
:1029800071260010D02310B51B0684B01C68FEF71A
:1029900065FCFEF763FDA04202D0002004B010BD2C
:1029A0002A4B002100201B7801F076FD284803689F
:1029B000002B47D00120FEF7DBF9FF23254C2649E9
:1029C00020701840FEF756F820780121FEF71AF81B
:1029D0000520FEF73DF8002826D1082200211F48D7
:1029E000FFF714FBFEF73AFC0400FEF765FEFA223F
:1029F0000023920012184B41802109068B4202D31A
:102A00000122174B524201210291002101911549E7
:102A100020000091FEF726FC0028BEDB12480121B1
:102A2000FFF7B4FC0120B9E70120FDF7B9FF0B4B1C
:102A300001001800FEF702FA002205200B49FEF7FC
:102A400043F8EBE7FEF7DEF9B4E7C046DC700010B0
:102A500060A8002086A80020B92800103028002097
:102A6000FFFFFF7F71260010B010002061260010CC
:102A700000487047606E0010004870470C6E0010F0
:102A800010B5040017480378002B20D0002C06D185
:102A9000154B16484380063BFF3B038010BD052CB9
:102AA00019D8134BA400E0581249002304E0013365
:102AB0000A800231132B10D0C25C002AF7D1C02249
:102AC0000133DBB25B00920008481343E5E71121B4
:102AD00000F01AF8DAE70020E0E7CA2303489B0079
:102AE000DBE7C04668A8002009040000E4230020BA
:102AF000F46D0010E623002010B5024800F0D8F86D
:102B000010BDC0465028002030B54B1E012900D111
:102B1000A7E0664A11780D112C0030349F2900D9A6
:102B2000A2E00470012B00D1BEE00F2114782140F7
:102B30000C003034092900D998E04470022B00D1F0
:102B4000B2E054782511290030319F2C00D990E053
:102B50008170032B00D1A7E00F2121400C003034FD
:102B6000092900D987E0C470042B00D19CE0947837
:102B70002511290030319F2C00D97FE00171052BF0
:102B800000D191E00F2121400C003034092900D9F7
:102B900076E04471062B00D186E0D4782511290017
:102BA00030319F2C00D96EE08171072B00D17BE082
:102BB0000F2121400C003034092966D8C471082B3C
:102BC00000D171E014792511290030319F2C5FD894
:102BD0000172092B68D00F2121400C0030340929E3
:102BE00058D844720A2B5FD054792511290030310E
:102BF0009F2C52D881720B2B56D00F2121400C00F4
:102C0000303409294BD8C4720C2B4DD0947925113E
:102C1000290030319F2C00D9073101730D2B43D08F
:102C20000F2121400C003034092901D937310C0023
:102C300044730E2B38D0D1790C11220030329F29E9
:102C400000D9073282730F2B2ED00F220A401100B9
:102C50003731092A01D830321100C173102B23D02B
:102C600010300023037030BD07345AE737310C00B1
:102C700063E707316CE737310C0074E707317DE714
:102C800037310C0085E707318EE737310C0095E7C7
:102C900007319DE737310C00A3E70731AAE7373149
:102CA0000C00C4720C2BB1D1C018DAE750280020F8
:102CB00030B5002589B004000922002101A8009543
:102CC000FFF7A4F90922002105A80495FFF79EF952
:102CD0004B236A466846137004A90D2203F0DCFEFC
:102CE0001521082220006944FFF796F909B030BD8C
:102CF000F8B500F045F90C23194DFF22AB6705200C
:102D00001849FDF7E1FE184C402200212000FFF792
:102D10007DF94027002301262121144A667027836C
:102D2000A260136063545F31618445396354104A73
:102D300010496360E2602787A1620B606362E26210
:102D400003F002FF80239B052E64EB6490230A4A64
:102D50000120EA508022094B5202DA64F8BDC046D5
:102D600000001150D90400201C24002084001050C1
:102D7000000110508000105010D0010000201150B0
:102D800010B501210520FDF73DFE10BD10B5002254
:102D90000021024800F014F910BDC0463C24002078
:102DA000044B1970002904D080219023024A890223
:102DB000D150704781A80020002011500B785B068D
:102DC00002D14B78052B00D070478A78014B1A60EE
:102DD000FAE7C04600001150F0B5C646C87800B505
:102DE0008007830F1800012B60D08F780A794B7908
:102DF0007F213940FC091B024E001343334D321929
:102E00005201AA18977001276740577000275B0589
:102E10005B0DD7701383D076B846CA00012C32D030
:102E20002B4FBC468F016244BC46AC446746BA6037
:102E300047461760002932D0264AC90090466246AC
:102E4000414451603F223F339343022837D0224907
:102E500037190A687F01D3180B602049EF19FA600F
:102E60008B422ED836197601AD19EB7E1C499B0694
:102E70004A4013438022120613436A6813600120FC
:102E800080BCB846F0BD174FBC468F016244BC46BB
:102E9000AC446746BA6247461760002908D1002350
:102EA00064012C196360104BE360E8E70020E7E75A
:102EB0000B4AC9009046624641445162C2E75B003A
:102EC000C5E7FEF73DFEFA68CCE7C0461C240020AB
:102ED000840010500400105028280020FF0F1050CC
:102EE00000001050800010500001105010B503F089
:102EF0002BFE10BD10B57F200C0020404000E409DF
:102F0000110000191A00034B4001C01800F058F8D6
:102F1000012010BD1C2400207F23180010B508409C
:102F20000B420BD0C90980224000074B40184001DA
:102F30000021C018120103F0FFFD10BD0223034A57
:102F4000C9095B1A9366EEE71C240020002011508B
:102F50007F22130010B50B400A4200D110BDC909F1
:102F60005B005B1804485B01C01800230022034982
:102F7000C37003F0E1FDF1E71C240020FFF7FFFF21
:102F800080220A4B520410B51A60094B09491A6095
:102F900010000B689843FBD18022002152010648A3
:102FA000FFF734F80922054B5A6710BD00E00040D6
:102FB00000F0004008C00040000010500000115018
:102FC000002310B5C382013382828376016104003D
:102FD00003F0AAFD002804D080219023074A89022B
:102FE000D150200003F068FD002802D00123237790
:102FF00010BD200003F090FDFAE7C04600201150FC
:103000007047C0467047C046002070470020704798
:103010007047C0467047C0467047C0467047C046BC
:10302000024B5878431E9841C0B27047C41E00201E
:10303000024B18784007C00F7047C046C41E0020DE
:10304000F0B5D6464F464646C0B5314B07009A46C6
:103050001B780E00FF2B01D0012044E0002941D055
:10306000002154222B48FEF7D1FF00222A4C2B4B83
:1030700020001A70FDF7C6FE294B1C60294C200069
:10308000143CFDF7CDFE200001F0FAFD264B274D44
:103090001C60274B002B2BD02800FFF7BBFA254BD9
:1030A0002A7818602449002489462249002388464A
:1030B00010E043461B6862019B18002B12D05B682E
:1030C000002B0FD098472A780134E4B2511C23001A
:1030D000A1420FDBA242ECD89B1A5B014B445B6818
:1030E000002BEFD10020E0BCBA46B146A846F0BDA7
:1030F0002A78D7E75346310038001F70FFF7F8FDF4
:103100000028EFD03800FFF73BFE0120EBE7C04678
:10311000E4100020C41E0020BC1E002082A8002055
:10312000181F0020DC1000201C1F002080A8002099
:1031300015260010141D0020786F0010F0B5DE4633
:1031400057464E464546E0B5CE4B91B002931B78AC
:10315000FF2B00D138E1CC4BCC4E9B465F46CC4B8D
:103160000DAC0193CB4B009335686A69EFF3108186
:1031700072B61368002BFCD0BFF35F8FA9612800E3
:10318000210001F0BFFB6A69AB69BFF35F8F0021CB
:10319000116083F31088002800D115E16378082BB3
:1031A000E2D89B00FB589F466368002BDCD0A068E8
:1031B0009847D9E77F222179B54D0A405300EB1893
:1031C0009846C809804440460123303005799D4324
:1031D0000571057903339D430571002A00D1FAE09A
:1031E0004346AD4A1B7D1278934200D3E9E0AB4AD7
:1031F0005B011568ED18002D00D1E5E0A368627948
:103200002078AD69A847AFE7A54A1378002B00D115
:10321000DAE01378013BDBB213701378002BA3D1F3
:1032200001229B4D01212B78042013432B70342362
:10323000EA5C8A43EA54EA5C8243EA540133EA5C7A
:103240008A43EA54EA5C8243EA54237800209B468E
:1032500000F0A4FC602223791A40602A0DD0402A95
:1032600000D1CAE0DB06DB0E012B00D120E1022BEE
:1032700000D1DCE0002B00D1CBE020780021FFF76B
:103280004BFE80212078FFF747FE6DE7804D2B78BD
:10329000DB0700D468E7FFF7C1FE65E7019BDB7839
:1032A000DB0700D460E76068FFF7ACFE5CE7784DB1
:1032B0002B78DB0700D457E728780007C00FFFF70B
:1032C000ABFE51E72378734999468B46724B73499D
:1032D00098468A4639001A7847460023B0460025AA
:1032E0004E46894610E053461B686A019B18002B26
:1032F00000D176E0DB68300098473A780135EDB2CE
:10330000511C2B008D4244DCAA42ECD89B1A5B0175
:103310005B44EFE72378614999465F4B8A469846BC
:103320003100BB464E461A780025002347468946A1
:103330000FE053461B686A019B18002B55D0DB68D1
:10334000300098473A780135EDB2511C2B008D4280
:1033500007DC9542EDD39B1A009A5B0194466344C7
:10336000EDE7019D542200212800FEF74FFE1022B8
:10337000FF214C48FEF74AFE28002022FF2114308E
:103380004E465F46FEF742FE00F0FEFBFFF742FEB0
:10339000EAE63F4D542200212800FEF737FE1022B6
:1033A000FF21281DFEF732FE28002022FF211430C5
:1033B00046464F46FEF72AFE00F0E6FB2379AB7047
:1033C000D2E6501C984213DA11B0F0BCBB46B246AC
:1033D000A946A046F0BDA3686279207800F0F2FB10
:1033E000C2E646464F462A4DE6E74E465F46CBE7E5
:1033F000284D9B1A5B015D1900E72B4800F0CEFBBE
:10340000012158460EAAFFF7EBF8002800D0ABE6E2
:1034100033E7202A00D156E1002A00D02DE7637956
:10342000092B00D929E7214A9B00D3589F467023D6
:10343000217A0B4200D020E7C80982460F330B40A7
:103440005B0098461448EB1853441B7D007899465E
:10345000834261D3431C4B4500DA4EE14B461B1AB5
:103460005B0199460B488144002A00D14AE14B4652
:10347000586900F093FB4B46012158465B690EAA40
:103480009847C2E7E4100020D06E00101C1F0020F7
:10349000C41E0020786F001080A80020141D00209A
:1034A00082A80020C81E0020E1250010F46E001044
:1034B000237A0F2B00D9E0E6D74AEB181B79157851
:1034C000AB4236D3691C994200DAD6E65D1BD34B7A
:1034D0006D01ED18686900F061FB012158466B69C8
:1034E0000EAA9847002800D03EE6602215002379F6
:1034F0001D401A4200D0C0E663790A3B012B00D977
:10350000BBE600F04BFB63790A2B00D18EE15846F5
:103510000EA900F0CDFA27E6C1485B01006881469C
:103520009944002A00D1EDE04B46002B00D1A4E6DF
:103530009DE7BB4A5B011568ED18002DCAD19CE6DA
:10354000A37999466B789945E1D06B78002B00D030
:1035500034E14B466B70002B00D12CE1484601381A
:10356000C0B2FFF789FA002800D17EE143780793C3
:10357000022B00D079E10122C179B1468B114911AA
:1035800013400A40302112015B0113432A78A846F8
:103590008A4313432B7009239A4682445646BA46FF
:1035A000C37882781B021343C31805939A4B049384
:1035B0009A4B08939A4B09939A4B0A93059BB342F3
:1035C00000D855E1737801220B2B03D13378F278C0
:1035D000F6187378042B00D044E1059B00279B1B51
:1035E0009BB20693049B0B921D78002303931BE070
:1035F000099A7B011568ED18002D00D132E13100E8
:1036000058462B69069A98478446082803D9069A93
:10361000824200D313E1049B01371D78FFB26B1C7B
:1036200003979F4200DD1DE1AF42E1D3039B5D1B89
:10363000089B6D019C466544E1E76B780CAA023259
:103640001370584601230EA900F048FA8CE5E38870
:103650001A0AD8B20F2A00D90FE673499300CB5843
:103660009F460EA800F0A0FA5846A179FFF78EFBFE
:1036700002222B7813432B7076E5E388012B00D0D0
:10368000FBE508222B78584693430EA92B7000F0D7
:103690000FFA69E5022029780CAB9A1C8B06890881
:1036A000DB0F01400B431380584602230EA900F0A4
:1036B00015FA59E5E388012B00D0DEE508222B78C6
:1036C00013432B7023E7237A0F2B00D9D5E5EB1892
:1036D0001D79514B1B789D4228D2514B6D011B68BF
:1036E0005D19002D00D1C8E5686900F057FA012185
:1036F00058466B690EAA984787E6002A00D0BCE5B9
:103700000023994662790220130003928343012B20
:1037100015D0002A00D0B0E52B0043445344303389
:103720001B790CAA9B07DB0F0232BCE75A1CAA428A
:1037300000DAA2E5ED1A394B6D01ED18D4E7E38804
:10374000002B11D1012A25D0029B1878FFF7E4FB4A
:1037500043460221EB18534430331A790A430121BE
:103760001A711A790A431A714B46002B00D1FBE4F7
:10377000586900F013FA4B4601215B690EAA5846BE
:103780009847002000F00AFA3523EB5CDB0700D5F0
:10379000EAE4BCE6029B1878FFF7DAFB4346022115
:1037A000EB18534430331A798A431A711A79039902
:1037B0008A431A71D8E7FFF72DFCA8E60021584686
:1037C000FFF7EEFA5846FFF791FBAB7813490393E6
:1037D0000491114B124998461A780591002329004B
:1037E0001D008A4610E0059B6A011B689B18002B90
:1037F00057D0DB685846984743461A780135EDB2F2
:10380000511C2B008D4238DC9542ECD39B1A049A54
:103810005B0194466344ECE780A80020786F0010B9
:10382000141D0020D81E00201C6F00100CAB9A1C29
:10383000584601230EA9157000F050F994E40B9A34
:10384000012A4FD0002A3CD00023B07804E0013395
:10385000DBB20F71934234D21918C9B241440D79C9
:10386000FF2DF4D04E464546574600236B7004E5C5
:103870004E465746FFF7CCFB49E6554654220021F9
:103880002800FEF7C3FB1022FF21281DFEF7BEFB18
:1038900028002022FF211430FEF7B8FB039BAB70F9
:1038A00057E65546FAE7FEF797FE021E00D1E4E41C
:1038B000D37891781B020B4358460EA900F00EF9FD
:1038C000A3E565463B002A0031000A9800F08AFE15
:1038D000AC46049B039A1B7866440133934200DB99
:1038E0006CE6BFE7164B29699942ADD1079AABE761
:1038F000FFF78AFB021E00D1BFE4584613780EA9D9
:1039000000F0ECF881E52189FFF7BAF8021EF4D146
:10391000B3E4022A0FD0FFF779FB021EC8D1ACE452
:10392000FFF7A6F8021E00D1A7E4122358460EA9FD
:1039300000F0D4F869E5FFF79FF8021EB8D19CE4C7
:10394000A53F0010F8B557464E46DE4645460C00EA
:10395000E0B516001F00002A3CD01F4B00259A46F8
:10396000702399461D4B9B4617E05B4620009978D3
:1039700000F0FAFD00281FD021004046FFF72CFA86
:10398000002819D0A378DA09012A1CD00A9A013537
:1039900013702378E418B5421CDA6378052B0BD139
:1039A000E3789B079B0FBB4206D153464A461B78E0
:1039B0009846A3781A42D8D00020F0BCBB46B24645
:1039C000A946A046F8BD0B9A013513702378E41878
:1039D000B542E2DB0120F0E7E4100020C41E002025
:1039E000702270B5094B0C001D788B781A4201D0FB
:1039F000002070BD064B2000997800F0B5FD00282E
:103A0000F6D021002800FFF7E7F9F2E7E4100020E4
:103A1000C41E00200B007F2010B51840DB09343392
:103A20004000044AC018044B1168C01800F058FD4B
:103A300010BDC046181F0020C41E00200B007F20B0
:103A400010B51840DB0934334000044AC018044B59
:103A50001168C01800F06CFD10BDC046181F002092
:103A6000C41E002070B57F240F480C406400041968
:103A7000CD09641930342079C00701D5002070BD0C
:103A8000012625790948354300782571FFF732FA78
:103A90000028F4D10122237993432371237903323F
:103AA00093432371EAE7C046C41E0020E4100020BF
:103AB00070B5094C0600082220000D00FEF7ACFA94
:103AC00000238021E360A3602B783000994300221B
:103AD0000023FFF7C7FF70BDA41E0020F8B5CE4637
:103AE00047469046264E80B58146082230000D009C
:103AF0001F00FEF791FA4346B3600023F381EC798F
:103B0000AB7924021C43231CBC4200D93B1C9FB24E
:103B1000B381002C0ED0002F18D04346002B2CD0A0
:103B20003B1C402F1BD89FB233787F2B1CD8002121
:103B3000144A0FE080212B78002299434846002345
:103B4000FFF790FFC0BCB946B046F8BD7F23002206
:103B5000317899433B004846FFF784FFF2E7402362
:103B60009FB233787F2BE2D9064C3A0041462000C1
:103B7000FEF752FA80212200ECE70020E2E7C0467F
:103B8000A41E0020641E002010B51422002102484B
:103B9000FEF73CFA10BDC046A41E0020014B186180
:103BA0007047C046A41E002010B5054C0100082235
:103BB0002000FEF731FA0023A360E36010BDC04689
:103BC000A41E002070B5384C1D0023780600DA09C9
:103BD000C9098A4210D00020002D00D070BD2100FC
:103BE0003000FFF7EBF82369002B03D022000321FC
:103BF000300098470120F1E77F2B06D8A068002805
:103C000034D02A002949FEF707FAE289A16852193F
:103C1000E38892B24919E281A160934214D03F2D0A
:103C200012D9A389981A051C80B240282AD8207876
:103C3000ADB27F2828D800219A4232D01B4A2B00EF
:103C40003000FFF70FFFC9E72369002B05D02200E2
:103C500002213000984700280AD0802123780022D2
:103C6000994330000023FFF7FDFEB7E70020B5E7DA
:103C700000213000FFF750F930008021FFF74CF9A8
:103C80000120ABE74025D2E79A4207D0074C2A0033
:103C90002000FEF7C1F980212200D0E78021002218
:103CA000CDE70022CBE7C046A41E0020641E002002
:103CB00070B50500FFF7B4F9002800D170BDFFF71B
:103CC000B7F90028FAD1C8236B43124CE618F178F3
:103CD0000029F3D010331C19200000F0FDFD3F280F
:103CE000ECD90020F178FFF795FE0028E6D02000FF
:103CF00000F0F2FD3F2808D9074BEA01D218F1780D
:103D000040230020FFF7AEFED8E7F1780020FFF750
:103D100095FED3E79C1D0020181D002010B504005F
:103D2000FFF77EF9002801D1002010BDFFF780F9D0
:103D30000028F9D1C8226243024B01309B181B793D
:103D40001840F2E79C1D0020C82310B543430248E9
:103D5000181800F0A3FD10BDAC1D0020F0B5C8245C
:103D6000C646802344431F4F1034050000B53C195C
:103D70005B029A4200D31C4A200092B200F010FE6F
:103D80008046FFF74DF9002803D1404680BCB84675
:103D9000F0BDFFF74DF90028F7D1C8266E43BE19D4
:103DA000F378002BF1D0200000F096FD3F28ECD9ED
:103DB0000020F178FFF72EFE0028E6D0200000F06A
:103DC0008BFD3F2808D9094BEA01D218F17840232E
:103DD0000020FFF747FED8E7F1780020FFF72EFE1E
:103DE000D3E7C0469C1D0020FFFF0000181D0020E7
:103DF000F8B50600FFF714F9002801D10020F8BD3E
:103E0000FFF716F90028F9D1C82474432500134F91
:103E10002435ED19280000F041FD0028EED03F19AF
:103E20000020B978FFF7F6FD0028E7D00C4BF4012D
:103E3000E41821002800402200F0B2FDB978051EE8
:103E400008D0030022000020FFF70CFE0028D5D088
:103E50002800D4E70020FFF7F1FDCFE79C1D0020EC
:103E6000581D002070B5C82444430C4B0500E418CD
:103E700080235B029A4200D3094A200092B200F0EC
:103E800047FE0600200000F009FD3F2801D8300061
:103E900070BD2800FFF7ACFFF9E7C046C01D002049
:103EA000FFFF0000C82310B543430248181800F074
:103EB00013FD10BDC01D0020F0B50025184C83B0C7
:103EC000C82200212000FEF7A1F8164B21001D702A
:103ED000FF236371E1235B02A360200008234022DB
:103EE000A37338310095073B103000F0A1FC270088
:103EF0000123210020002600402278310093B837AA
:103F0000243000F095FCC0363800FCF77BFF300011
:103F1000FCF778FFE56127622663656303B0F0BDB7
:103F20009C1D0020981D00200A4B196B1A6A00295D
:103F300009D0002A0CD000221A621A63DA6100222A
:103F40005A6301207047002AFBD0D9611962F8E753
:103F50001A63F4E79C1D002070B50F4C0522002168
:103F60002000FEF753F80D4D2B78DA0707D50C4CDF
:103F70009B070CD50121200000F0A2FE70BD20009F
:103F8000103000F07DFE2B78054C9B07F2D420000A
:103F900000F076FEEEE7C0469C1D0020981D002034
:103FA000C01D0020F0B54B79060083B0022B02D172
:103FB0008B79022B03D00025280003B0F0BD214FE0
:103FC000BB78002BF7D18B7809253B700C780C1946
:103FD0006378242B0BD1082A02D80FE0AA420DD314
:103FE0002378E4185D196378ADB2242BF6D0052B45
:103FF00008D0042B02D163790A2B11D00020FFF7DF
:1040000057FED9E721003000FFF7EAFC0028D2D0A4
:10401000A3787B7023785D19E4186378ADB2E8E784
:10402000094B2778019301330093022202233000C9
:10403000E119FFF787FC0028BDD00E35ED19ADB2B0
:10404000DCE7C0469C1D00209E1D0020F8B56023C3
:1040500014001278050013400020202B07D1304AAD
:104060006379277916781B023B439E4200D0F8BD46
:104070006378222B28D007D8202B17D0212BF6D1FC
:10408000012944D00120F2E7232BF0D1012938D0B7
:104090000329F7D1234B002BF4D0E178A378090250
:1040A0000020194300E000BF0120E0E701292ED0E5
:1040B0000329E7D11C4B002BE4D00832002011006B
:1040C000FEF7AEFA0120D2E701291AD00329D9D18F
:1040D00001252E00A378E478023924021C431471D0
:1040E000264024321000714000F0EAFD0F4B002BF7
:1040F000C8D06208002031002A4000E000BF012043
:10410000B5E721002800FFF7D3FC0120AFE7072324
:1041100021002800064AFFF7E1FC0120A7E7C0467E
:104120009C1D00200000000021260010000000005F
:10413000A41D0020F0B54F464646D646364DC0B5C4
:10414000EA781F0080460C00AB788A423BD08B4255
:1041500010D00020E0BCBA46B146A846F0BD2F4BB7
:10416000002B04D02E4800F0AFFB002851D00020D7
:10417000FFF79EFDAB78A34201D00120EAE7294B6F
:10418000002B02D0002000E000BF0020FFF730FE2F
:104190000028F2D1244C200000F080FB0028ECD154
:1041A000002FEAD0BF06E8D1243C4046A178FFF7B3
:1041B00031FC0028E1D0002300224046A178FFF71F
:1041C00051FC0120C6E710239A46184EAA4431003C
:1041D0005046BAB200F09CFC154B002BBFD06B7957
:1041E000FF2BBCD0002FBAD0F219914603E0013664
:1041F000B145B4D06B7932789A42F8D1504600F08C
:1042000063FB0028F3D15346103B597900E000BF0F
:10421000EDE700E000BFAAE79C1D002000000000C1
:10422000AC1D002000000000C01D0020181D002053
:10423000000000009322F0B5134C85B0002120004F
:104240009200FDF7E3FE23002000802640270F4D5B
:104250004D337600FF33293002950093002200236E
:10426000002103970196FF3000F0D6F94035201D5C
:10427000283400230122002103970295019600941F
:1042800000F0CAF905B0F0BD60200020E01F00205A
:1042900010B5054C200000F0F5F920002538FF3856
:1042A00000F0F0F9012010BD8821002070B5084C05
:1042B000002520003130FF30257000F0E1FC2000A7
:1042C0000C3000F0DDFC2A23FF33E554657170BD2E
:1042D00060200020F8B557464546DE464E46E0B51C
:1042E0004B7980460F00FF2B27D1424B0C78994623
:1042F0002A234946FF33CB5C002B1ED14E79002E7A
:104300001BD1BB783C190B703B79002B12D0982342
:104310005B004B449A460C234B449B46A51863789C
:10432000052B05D110E02378E4186378052B0BD01A
:10433000AC42F8D3E01B80B200E00020F0BCBB46EA
:10434000B246A946A046F8BDA542F3D92100404691
:10435000FFF746FB0028F0D0A3780136F6B2DB0960
:10436000012B29D0504600F08BFC2A234946A27825
:10437000FF33CA54637922791B0213431E4A5B053B
:1043800094465B0D942163445A4253414A460220AD
:104390004900525C5B00824313434A4653545146E2
:1043A0004046083900F0D6F90028C6D02378E41832
:1043B0003B79B342B3D8BDE7584600F061FC5A469A
:1043C000A3780C3A5371637921791B020B430A4994
:1043D0005B058C465B0D634459424B4102201179C9
:1043E0005B0081430B43594600200839137100F0EC
:1043F0007FF9DBE76020002000FEFFFF70B50500BD
:104400002A201F4CFF30205C1E006379884203D0B5
:1044100000208B421DD070BD9A235B00E35A002B15
:104420000DD1184B002B04D000201749B2B200E088
:1044300000BF2800154900F08DF90120EBE72000AE
:10444000962331305B00E158B2B2FF3000F060FBE0
:10445000E7E70F4B002B04D031040020090C00E0EB
:1044600000BF0C4C2800210000F042F90028E4D1E4
:1044700032002100280000F007F90120CBE7C046F8
:104480006020002000000000E01F002088210020A4
:10449000000000006420002000B5030083B0002964
:1044A00010D00020012B07D80A78002A04D00B482E
:1044B000C2540120012A01D003B000BD1800FEF74C
:1044C000BFFDF9E7012301A900200B80FEF7B8FD2D
:1044D0000028F1D00122014B1A70EDE7B81E002030
:1044E000037870B5DB0704000E00DD0F002B17D139
:1044F00003785B0701D5280070BD012130004942D7
:1045000002F0F2FA2378DB07DD0F002B0AD12378C3
:104510005B0708D40422237801251343237002E0AB
:104520000025E8E70025300002F0BEFAE3E7C046C8
:1045300070B50C00012106004942200002F0D4FAB7
:1045400033785B07DD0F002B04DB200002F0ACFAB0
:10455000280070BD3378DB0704D4042233789343FA
:104560003370F2E70025F0E7437902791B02134329
:104570005B055A0DC3789B079B0F022B05D0032BBD
:1045800015D00020012B08D0704702291ED0002032
:10459000402393424041C0B2F6E702394B425941B1
:1045A0000D4B9C46614491424041C0B2ECE7023958
:1045B0004B1E9941094B494219408023DB009C4620
:1045C0000020614491424041C0B2DDE7044BD01865
:1045D00043425841C0B2D7E7FF03000040FCFFFF51
:1045E00000FEFFFF8A1870B5914207D27F264C78F3
:1045F000052C04D00C7809198A42F8D870BD340013
:104600008D782C4064000419ED0963550C78091964
:104610008A42ECD8F2E7C046F0B5C64600B582B093
:10462000150008AA40CA040017880BAA12880120A6
:1046300090460A00217802408143200011432170F6
:104640003A00009331000123083000F0F1F8002E09
:1046500001D0002F08D10A9B01206360434663808C
:1046600002B080BCB846F0BD26001C363000FCF716
:10467000C9FB0023002D01D0330000266361A66131
:10468000E9E7C04601207047F8B502240B7807001F
:104690001C4063425C41144B64421C40134B0800B5
:1046A0009C4608300D001600644400F0F7F800281E
:1046B00007D1002E05D0344203D101242B781C42AF
:1046C00001D00020F8BD38006978FFF7A3F9002871
:1046D000F7D02B781C42F4D10023002238006978EF
:1046E000FFF7C0F9EEE7C04640FEFFFFFF01000004
:1046F000F8B50D000835060028000C0000F0CEF8D3
:10470000002803D0012723781F4201D00020F8BDE4
:1047100030006178FFF77EF90028F7D02800628822
:10472000616800F03DF92378051E0BD01F42EDD1E2
:104730000300626830006178FFF794F90028E5D043
:104740002800E4E71F42E1D130006178FFF776F9F5
:10475000DCE7C046F8B5CE46474680B58B890500F4
:104760000C00002B08D101260B781E4240D00020FF
:10477000C0BCB946B046F8BD0B789B0734D5FE23C4
:1047800080261B029946B60027000837380000F043
:10479000A3F88642EBD80122237890461A42E6D14C
:1047A00028006178FFF736F90028E0D0380000F0E3
:1047B00093F8864231D84146237862881942D6D18F
:1047C0004B4603401E1C934200D9161CB6B2002271
:1047D0006178002E00D0626833002800FFF742F9AC
:1047E0000028C4D03000C3E7104B40269946CBE7E1
:1047F0004978FFF70FF90028B9D02278638816426C
:10480000B5D100226178002B00D062682800FFF744
:1048100029F90028ABD06088AAE7424623781A42DB
:10482000A5D128006178FFF709F9A0E7C0FF0000D3
:10483000F0B5C64600B5040006A805788020884675
:1048400017001E000002824226D8E068002803D02C
:104850000121494202F048F92069002803D00121D2
:10486000494202F041F94346236073045B0CED03B7
:104870001D430023E0686381A780E5802381002831
:1048800001D002F011F92069002801D002F00CF9E2
:10489000012080BCB846F0BD0020FAE710B50489BD
:1048A00041898288A3B288B28C4207D31B1A9BB27B
:1048B000101C9A4200D9181C80B210BD5100091A70
:1048C0005B189BB2F4E7C04603894089181A43423B
:1048D0005841C0B27047C04610B5048941898288EA
:1048E000A3B288B28C4207D31B1A9BB200209A4213
:1048F00001D9D21A90B210BD5100091A5B189BB2AF
:10490000F4E7C04670B5040000690E00002803D02B
:104910000121494202F0E8F825896089A288A9B2FC
:1049200083B285422BD3CD1AADB2002D2DD0AA4231
:1049300008D291422FD3891A8BB263819A4203D84D
:104940009B1A9BB29A42FBD9E28821685204520C0E
:1049500053433000C918FDF75FFB63890125591CDB
:1049600089B2A2888B4212D95200891A89B2206971
:104970006181002801D002F097F8280070BD550031
:10498000ED1A4D19ADB2002DD1D1618989B2520015
:104990009142ECDBE9E789188BB26381CEE7C04630
:1049A000F0B546464F46D646C0B506000069894672
:1049B0009046002803D00121494202F095F8318940
:1049C0007289B5888BB294B2914254D31F1BBFB287
:1049D000002F4AD0BD4205D2AB4251D25B199CB2E6
:1049E0002F0074814346B8453DD89FB2A54203D8F5
:1049F000641BA4B2A542FBD9F28831685204520C60
:104A0000904662432B1B9BB2891842469F4225D990
:104A100053439BB21A0048469A46FDF7FDFA4346B7
:104A200048467D1B64195C4331685044A2B2FDF7CF
:104A3000F3FA7189B588CB199BB26A00994216D9ED
:104A40009B1A9BB230697381002801D002F02CF8C8
:104A50003800E0BCBA46B146A846F0BD48467A43A5
:104A6000FDF7DAFAE5E73B1CBFE773899BB26A0002
:104A70009342E7DBE4E76F003F1BDF19BFB2A7E714
:104A80005B1B9CB2ACE7C046F8B50400C0680E00E2
:104A9000002803D00121494202F026F82589208907
:104AA0006189A288ADB283B28FB2884228D3DB1B62
:104AB0009BB29A4209D8E779FF0906D1E06800283D
:104AC00001D001F0F1FF3800F8BD2B00954203D36F
:104AD0009B1A9BB29342FBD2E28820685204520C8C
:104AE00053433100C018FDF797FAA2886B1C9BB2A4
:104AF00052009D4209D99B1A9BB201272381DDE711
:104B00005100C91B5B189BB2D3E79342F5DBF2E778
:104B1000F0B54546DE4657464E46E0B588460500A8
:104B2000140083B0002A6FD0C068002803D0012190
:104B3000494201F0D9FF2E89EB796A89B6B292B267
:104B4000DB0940D1AB88964267D259008A1AB21865
:104B500092B20027934230D99A1A171C92B2A242FD
:104B600000D9271CEA88BFB25204520C9146F219B0
:104B700092B29246FA1A92B2934634009E4203D3FE
:104B8000E41AA4B29C42FBD24A46624328681B1B2B
:104B90009BB280184A46BB4253D341467A43FDF745
:104BA0003BFAAB885B00564501D89A4503DB524679
:104BB000D31A9BB29A4653462B81E868002824D02A
:104BC00001F072FF21E0AF88BC4229D296424AD35D
:104BD000B31A9BB279001B198B4208DBD3199BB225
:104BE0001E1BB6B29A46B24242D9761AB6B2EB88CA
:104BF0005B045B0C9946A3199BB29A46E31B9BB2DC
:104C00009B463B002700B8E70027380003B0F0BC04
:104C1000BB46B246A946A046F0BDB21A92B298E78A
:104C2000002FCAD0EB88E41B5B045B0C5C43994605
:104C30001600D31900229BB29A4693463B00A0442B
:104C40009BE7534399B20A0001915C444146FDF74A
:104C5000E3F922004B465A430199286892B2414435
:104C6000FDF7DAF99DE779008B1AF3189BB2B2E7EA
:104C7000B142BADDEB885B045B0C9946BEE7C046E7
:104C800010B50400C068002803D00121494201F09A
:104C90002BFF2069002803D00121494201F024FFA5
:104CA0000023E06863812381002801D001F0FCFE2D
:104CB0002069002801D001F0F7FE012010BDC04698
:104CC00070B50400C0680D00002803D001214942DE
:104CD00001F00AFF2069002803D00121494201F0B8
:104CE00003FF7F21E379ED011940E0682943E17179
:104CF000002801D001F0D8FE2069002801D001F081
:104D0000D3FE012070BDC04603BDC04610B50400EF
:104D1000FCF730FFA04710BDF0B5040087B00F20AE
:104D20000E001700FBF780FE002105000F20FBF7A7
:104D300069FE002300220092019301230293D023F5
:104D400004960594002600240121022003971B06E7
:104D5000002C14D01A6D1042FCD05C6540BF1A6D57
:104D6000114203D120BF1A6D1142FBD09A6DA242AD
:104D70000AD000266C46B200A458E9E79A6D1A6D75
:104D80001142FBD140BFE5E70136062EF2D12900E2
:104D90000F20FBF737FE07B0F0BDC0460D4B0E4AA3
:104DA00070B5934210D31C000C4A99180B4D0C4A55
:104DB00092686051FF20C00023500A4B0A482350DC
:104DC0000A48FFF7A9FF70BD01235B421C00084998
:104DD000ECE7C0460008042000000420F4070000AF
:104DE00000ED00E00D4D0010FC070000094D001023
:104DF000F3070000494A0300944663445A42534172
:104E00008022F0B54E46DE4657464546920294460D
:104E1000E0B55B421B0C424A1B04634485B0029020
:104E20001360404A0E004049136018000A6890431E
:104E3000FBD10620FCF77CFD0223029904008C467E
:104E40004A6801901A4003920A1D9046374AF10DB4
:104E5000624491461360700200295AD1A04258D88A
:104E6000802464000227A246B446B30DB20204E0D7
:104E7000019E96420AD322002B000237574505D0E7
:104E800004000D00A4185D41002BF1D06646019B83
:104E900080259A46B3463C02E41B6D002E00013D7E
:104EA000002D38D021005046FCF7B8FFE41B8345A5
:104EB000F4D2310079432D02029C802627612368B9
:104EC000A4465D40FF231B021D408023039A760108
:104ED0009B014344664435601A604D460222072711
:104EE00060682A60256810406F40CF253D403560DE
:104EF00018600F48844603206444206001981A60BB
:104F0000FCF78CFF05B0F0BCBB46B246A946A046F4
:104F1000F0BD0227BBE73900CEE7C0460040FCBF2A
:104F200000E0004000F0004008C0004004300000F5
:104F300024200000F0B5C64600B50C228B5E0700A9
:104F40000C001A074CD48021626809011943A18121
:104F5000002A6ADDA56A002D40D000223E683A6032
:104F6000DB0468D4002201233800E169A84702006D
:104F7000431C00D16EE00C23E15EA56A490706D50B
:104F80006368D21A236B002B01D0E36BD21A002383
:104F90003800E169A847431C4FD139681D293AD828
:104FA0000122344B15000B411D401A4233D10C2213
:104FB000A35E314A65601A40A28122692260DB0447
:104FC00053D4216B3E60002908D02300403399421E
:104FD00002D0380000F004FA00232363002021E00F
:104FE0000E69002EFAD00D680022AD1B0E609B07E3
:104FF00000D14A69A260002D04DCEFE736182D1AB3
:10500000002DEBDD636A3200984638002B00E16921
:10501000C0470028F2DC40220120A389404213430C
:105020001BB2A38180BCB846F0BDE26B002A00DD54
:1050300090E70020F6E7226DA0E70C22A35E0E4A5F
:105040001A40A2810022626022692260DB04B8D586
:105050002065B6E73B68002B00D18CE71D2B01D003
:10506000162BD8D100203E60DCE70029A9D12065AD
:10507000A7E7C046FEFFBFDFFFF7FFFF70B50400E4
:105080000D00002802D0836B002B09D00C22AB5EF0
:105090000020002B03D029002000FFF74BFF70BD3C
:1050A00000F022F9F2E7C04670B5041E1AD0104B8A
:1050B0001D68002D02D0AB6B002B0AD00C22A35E22
:1050C0000020002B00D170BD21002800FFF732FF27
:1050D000F9E7280000F008F90C22A35E0020002B5D
:1050E000F1D0F1E7034B0449186800F079FAEAE7D8
:1050F000E8100020B86F00107D50001000207047AD
:1051000010B5024900F06CFA10BDC0462D630010C6
:1051100000207047F0B5D6464F464646304BC0B5E6
:10512000C363B823002403229B00C45004334568A2
:10513000C2500833C218043BC250060004232800A2
:105140002C606C60AC606C66EB602C616C61AC6177
:10515000082200215C30FCF759FF224B224F9A466F
:105160002B62224BEF6299466B62214BED61AB6281
:10517000B568984628001F4B2C606C60AC606C666C
:10518000EB602C616C61AC61082200215C30FCF7A3
:105190003DFF53462B624B466B624346EF62AB6268
:1051A000ED61F568144B2800EB602C606C60AC601E
:1051B0006C662C616C61AC61082200215C30FCF7EC
:1051C00025FF53462B624B466B624346AB6201237D
:1051D000EF62ED61B363E0BCBA46B146A846F0BDEC
:1051E0000151001061600010FD6000108D60001022
:1051F000CD600010090001001200020070B56825A2
:105200004B1E5D430E002900743100F08BFA041E22
:1052100009D000232A00036046600C300021A06002
:105220006832FCF7F3FE200070BDC046F8B5264B8F
:1052300007001E68B36B002B29D0B8239B009C4647
:1052400066447368B468013B03D51BE06834013BD6
:1052500018D30C22A55E002DF8D120001B4B08228C
:105260000021E36065662560A56065602561656174
:10527000A5615C30FCF7CAFE256365636564A564BF
:105280002000F8BD3568002D05D02E00D9E730008C
:10529000FFF740FFD1E7D6213800490000F042FA7D
:1052A000041E0DD00423D0220560250043600C307D
:1052B0000021A0605200FCF7A9FE34602E00C0E778
:1052C0000C2330603B60DBE7B86F00100100FFFF8C
:1052D00010B5034B0349186800F082F910BDC046B1
:1052E000B86F00102D630010836B10B5002B01D137
:1052F000FFF710FF10BDC0467047C0467047C0465C
:105300007047C0467047C04610B5034B0349186844
:1053100000F046F910BDC046E8100020FD50001016
:1053200010B5034B0349186800F03AF910BDC046A8
:10533000E810002011510010F0B5C64600B58846AF
:10534000050000F093FC224FBB685E6803239E4378
:10535000204BF4184346E41A8023240B013C240319
:105360005B019C4207DB0021280000F067FEBB6860
:105370009B19984206D0280000F07AFC002080BCDF
:10538000B846F0BD2800614200F058FE01300DD053
:105390000122361BBB6816430F4A5E601368280063
:1053A0001B1B136000F064FC0120E8E700212800CB
:1053B00000F044FEBA68831A0F2BDCDD074C064967
:1053C0002468001B086001210B435360D3E7C046EB
:1053D00020150020EF0F0000E01C00201815002011
:1053E000F8B505000C1E50D000F040FC0123210050
:1053F0009C46083948686246030003249343CF184B
:105400007A68624EA243B468BC426AD064467A604D
:1054100004421DD1340008680834091A1B18886832
:10542000A0424FD0CC68C460A0606446B818406801
:10543000204211D19B185648BA68824200D17FE0C1
:10544000F868D060826001221A434A60CB5007E0BE
:10545000B81840682042EDD062461A434A603B606B
:1054600080229200934211D2DA0858090123834026
:10547000706803437360D3009B199A68CB608A609D
:105480009960D160280000F0F3FBF8BD5C0A042CA1
:1054900040D89C09200039343830E400341922689F
:1054A000083C0327944203D143E09268944203D01E
:1054B0005068B8439842F8D8D468CC608A60A1603C
:1054C000D160DFE76446B8184068204258D1B86818
:1054D000D218FB68C3609860634613434B608A50E0
:1054E000D0E79A186346034206D10B68C91A886848
:1054F000D218CB68C3609860012313434B60254BDF
:10550000B1601B689342BDD8234B28001968FFF790
:1055100013FFB7E7142C07D9542C1AD81C0B200002
:105520006F346E30E400B9E720005C345B30E40097
:10553000B4E7012380108340706803437360BCE7C5
:10554000D1609160CA608A6001221A434A60CB50E0
:1055500098E7AA225200944205D8DC0B2000783448
:105560007730E4009AE70D4A944205D89C0C20005D
:105570007D347C30E40091E7FE247E20A4008DE79A
:1055800062461A434A603B607CE7C0462015002013
:10559000281500201C150020DC1C002054050000EC
:1055A000F0B5C646B8238846002600B59B00C7184C
:1055B0007D68BC68013D0CD4A389012B06D90E225D
:1055C000A35E013302D02000C04706436834013D8A
:1055D000F2D23F68002FEBD1300080BCB846F0BD5E
:1055E000F8B54746CE4680B5B8278046894600269E
:1055F000BF0047447D68BC68013D0DD4A389012BE1
:1056000007D90E22A35E013303D021004046C847CC
:1056100006436834013DF1D23F68002FEAD13000E3
:10562000C0BCB946B046F8BDF0B5C64600B51C00D2
:1056300086B016000C9B6643984601AB039301238A
:10564000050017000191029605960493002802D0E8
:10565000836B002B20D043460C229A5E80239B0153
:105660001A4207D1134341464246496E93810C4B7F
:105670000B4053664146280003AA00F0ADFE002807
:1056800005D005983900301AFCF7C8FB040020004B
:1056900006B080BCB846F0BDFFF726FEDBE7C0468B
:1056A000FFDFFFFFF0B5C64600B51D001B4B86B0FF
:1056B0001B681600984601AB0393012304934346ED
:1056C0004E430F001400019002960596002B02D065
:1056D0009B6B002B1DD00C23EA5E80239B011A429A
:1056E00005D11343696EAB810D4B0B406B662900EE
:1056F000404603AA00F070FE002805D00598390046
:10570000301AFCF78BFB0400200006B080BCB846C2
:10571000F0BD4046FFF7E8FDDDE7C046E810002099
:10572000FFDFFFFFF0B54E464546DE465746E0B583
:105730000D000B35060083B0162D27D8102900D98F
:10574000B6E000F093FA102518230220C84FFB188A
:105750001A005C68083A944200D112E1032263689F
:105760009343E268A168CA6091600121E3185A6816
:1057700030000A435A6000F07BFA2000083003B082
:10578000F0BCBB46B246A946A046F0BD07239D43E8
:1057900000D58DE0A94200D98AE000F067FAFC2329
:1057A0005B009D4200D25FE1680A00D184E00428DA
:1057B00000D914E138239846A80980443930C10043
:1057C000AB4F79184C680839A1420ED003239C4690
:1057D00004E0002AC5DAE468A14206D062466368A4
:1057E00093435A1B0F2AF4DD40463A003C690832C5
:1057F000944200D1B5E0032163688B439946591B5D
:105800000F2900DD3CE13A617A610029ADDA80229E
:105810009200934200D3BAE05909DA0801238B4081
:10582000D2007968D2190B4391687B60E260A16075
:105830009460CC60012182109140994242D80B4281
:1058400005D103229043490004300B42FBD00323CF
:105850009846C3009946B944CC4682466346DC6804
:10586000A44507D1C7E0002A00DBEEE0E468A445C8
:1058700000D1C0E04246636893435A1B0F2AF2DD11
:1058800001208046611905436560A068E568083716
:10589000C560A86040461043B960F9604860CF60B9
:1058A00030008F60E25000F0E3F92000083066E736
:1058B0000C230020336062E780213F23402098467C
:1058C00089007DE70322BC68636893439946AB4235
:1058D00002D35A1B0F2A46DC23004B44654A01932E
:1058E000654B93469A4612681B68EB18013200D14B
:1058F00047E1624A944663441B0B1B03009330004C
:10590000009900F09BFB03008046013300D1D2E0F8
:10591000019B834200D9CCE0534600985A688446E4
:1059200062445A60019B1100434500D0DFE04346CA
:105930001B0500D0DBE0BB680121984603004B4407
:105940000B4341464B605146C96A914201D25146D0
:10595000CA625146096B914201D251460A634446DC
:10596000ABE07B6866E7012329001A4319436519F8
:1059700061603000BD606A6000F07AF92000083094
:10598000FDE6DC680230A34200D12EE7E6E65A0AC3
:10599000042A00D887E0142A00D90BE111005C32F8
:1059A0005B31D20008235B429C46BA18944463469C
:1059B0009A6803239846944503D1E5E0926894459C
:1059C00004D04346516899434945F7D8D3689C466B
:1059D0007B686146A260E1608C60D4602AE714288D
:1059E00078D9542800D9EDE06E239846280B8044DE
:1059F0006F30C100E4E608239B46073BDC449B462E
:105A0000DA4453469B0700D028E7032209E0082325
:105A10005B429C46E1444B469B6801384B4500D0B5
:105A20001EE10242F3D17B688B437B6049009942BF
:105A300000D947E7002904D144E7042294464900ED
:105A4000E2440B42F9D0504603E70121E3185A68BB
:105A500030000A435A60E368A268D3609A6000F09D
:105A600007F9200008308AE62B00E80808336DE6C5
:105A70002015002018150020DC1C00200F1000004D
:105A8000012360191D43656038617861C2608260DE
:105A90001A004B460A4342603000E15000F0E8F83B
:105AA000200008306BE69A09110039323831D200F3
:105AB00078E7BC4214D0BC686368032293435A1B46
:105AC000AB4202D30F2A00DD4DE7300000F0D0F8E2
:105AD000002054E65B23984680445C30C1006FE6AA
