:020000041000EA
:1000000000B5324B212058609868022188439860DF
:10001000D860186158612E4B002199600221596106
:100020000121F02299502B49196001219960352056
:1000300000F044F80222904214D00621196600F024
:1000400034F8196E01211966002018661A6600F04E
:100050002CF8196E196E196E052000F02FF8012189
:100060000842F9D1002199601B49196000215960AB
:100070001A491B48016001219960EB211966A021F2
:10008000196600F012F800219960164914480160C1
:100090000121996001BC002800D000471248134993
:1000A000086003C880F30888084703B5996A0420EC
:1000B0000142FBD001200142F8D103BD02B5186610
:1000C0001866FFF7F2FF186E186E02BD00000240BE
:1000D000000000180000070000035F00212200005C
:1000E000F4000018222000A00001001008ED00E03C
:1000F00000000000000000000000000074B24E7A12
:1001000000200420F7010010CB010010CD010010E9
:10011000C9010010C9010010C9010010C901001077
:10012000C9010010C9010010C9010010CF01001061
:10013000C9010010C9010010D1010010D301001045
:10014000C1010010C1010010C1010010C101001067
:10015000C1010010C1010010C1010010C101001057
:10016000C1010010C1010010C1010010C101001047
:10017000C1010010C1010010C1010010C101001037
:10018000C1010010C1010010C1010010C101001027
:10019000C1010010C1010010C1010010C101001017
:1001A000C1010010C1010010C1010010C101001007
:1001B000C1010010C1010010C1010010C1010010F7
:1001C000EFF30580103800BE00BE00BE00BE00BECA
:1001D00000BE00BEF2EB8871408400106084001005
:1001E0003802001090A31AE71E481F49086006C88D
:1001F00081F3088810471D480068002801D019487D
:10020000F3E70DA40ECC002902D000F012F8F9E7B4
:100210001749184A002000E001C19142FCD116495B
:100220008847164988471649884700BEFDE701C937
:1002300001C29A42FBD3704760840010C0000020C6
:1002400088190020289D00100000042000000420D0
:10025000289D001000100420001004200000000061
:10026000704700000000000008ED00E0000000D032
:10027000881900200079002055340010A50B0010CB
:100280004D340010F8B5C0460448054B10B5834204
:1002900003D0044B002B00D0984710BD88190020D4
:1002A000881900200000000006480749091A8B1031
:1002B000C90FC91810B5491003D0044B002B00D04A
:1002C000984710BD88190020881900200000000000
:1002D00010B5074C2378002B09D1FFF7D5FF054B4C
:1002E000002B02D0044800E000BF0123237010BDA2
:1002F000101D002000000000047F0010054B10B509
:10030000002B03D00449054800E000BFFFF7CCFFF5
:1003100010BDC04600000000141D0020047F001026
:10032000F0B5DE4657464E464546E0B58DB002F084
:1003300053F9564B06009846554B0F000393554B07
:100340000BAC0493544B9B46544B9A46544B079327
:10035000544B0893544B0993544B0693544B994672
:1003600043461968002900D10131524802F0E6FCE9
:10037000002300900193009A019BB6185F418023EF
:100380001B069F4202D301264B4F764230003900B4
:1003900001F0F6FF039B1B78002BE1D0474B0AAA24
:1003A000138000239370049AD02513882D06238090
:1003B00004929378A3700223AB61C046C046C04646
:1003C0003F4822000AA9013307F042FD0223012021
:1003D0006B61002102F040F8A278F02011006378F0
:1003E00000011B0203401943364B05910AA90B80FB
:1003F00008000021049A8170138823809378A370E9
:100400000223AB61C046C046C04622000100013352
:100410002B4807F01DFD0223012000216B6102F033
:100420001BF8F02063780001A1781B0203401943F8
:100430005B4650461B6800685A1C1205120D82422A
:1004400012D150465546006801300005000D286065
:10045000079D286801302860089D286801302860C1
:10046000099D2868013028600698059D84469B00F8
:10047000C552634459804B4649461B6801330B60A3
:10048000BFF35F8F5B461A606AE7C04678100020B2
:1004900074100020207F0010F0780020BC3800206D
:1004A000C03800208C280020A0280020CC38002054
:1004B0009428002040420F00FFFFFF7F01A0FFFFB4
:1004C00000C0034001E0FFFF70B5C02382B0D0241C
:1004D00080256A460005000D9B01204E0343090557
:1004E000090D5BBA2406AD0131809380A561C04639
:1004F000C046C046022201A9194807F0A1FC656167
:10050000C046C046C0463288164B1205120D134332
:100510006A465BBA9380A561C046C046C0460222C7
:1005200001A90F4807F08CFC6561C046C046C04673
:100530000D4A13680133136002F04EF8002908D009
:10054000FA220023920002F037FC084B186002B038
:1005500070BDFA21890002F0F1FBF6E7F478002083
:100560000000044000B0FFFF3C2400204024002095
:10057000F8B5072929D983795A1E012A27D8C279C3
:100580000839858889B20830032A30D00A2A54D124
:100590005E0032006A4392B28A4216D8002D0ED015
:1005A00004000027022B14D0208801370005000D1D
:1005B0000100BFB2FFF788FFA419AF42F4D10020B9
:1005C0001F4A136801331360F8BD0220FCE70420C2
:1005D000FAE761882088090500050137090D000D3B
:1005E000BFB2FFF771FFA419BD42F2D1E7E75E0089
:1005F00032006A4392B28A42E7D8002DDFD004006D
:100600000027022B0BD0208801370005000D0100C8
:10061000BFB2FFF759FFA419BD42F4D1CFE76188FB
:100620002088090500050137090D000DBFB2FFF74D
:100630004BFFA419BD42F2D1C1E70320C4E7C04675
:1006400038240020012370B58CB005AC059301332C
:1006500063600133A3608123DB00E3604B4B4C4AB2
:1006600023614C4B01200A930223FF330B934A4B27
:1006700001AD0193494B0293E0235B03039313689D
:10068000591C04930123116045495B422A780135C6
:100690005A405308024052420A4053405A0803400D
:1006A0005B420B405A405308024052420A405340BA
:1006B0005A0803405B420B405A40530802405242E2
:1006C0000A4053405A0803405B420B405A405308CB
:1006D000024052420A4053405A0803405B420B40DA
:1006E0005340AC42D2D1250001202D490CAE2A78CE
:1006F00001355A405308024052420A4053405A08BA
:1007000003405B420B405A405308024052420A40A9
:1007100053405A0803405B420B405A405308024082
:1007200052420A4053405A0803405B420B405A4031
:100730005308024052420A4053405A0803405B4269
:100740000B405340AE42D2D1DB43164D00932B6891
:10075000102201219B6801A806F046F92B681C2293
:10076000012120009B6806F03FF92B68042201213B
:1007700068469B6806F038F92B68986805F036FEE5
:10078000094A1368013313600CB070BDA0860100E4
:1007900070100020001080004757503101100700F2
:1007A0002083B8ED38110020A828002070B54A4BEE
:1007B00086B00293494B4A4A03934A4B0400049380
:1007C00013680120591C059301231160464902ADAD
:1007D00006AE5B422A7801355A4053080240524225
:1007E0000A4053405A0803405B420B405A405308AA
:1007F000024052420A4053405A0803405B420B40B9
:100800005A405308024052420A4053405A0803409B
:100810005B420B405A405308024052420A40534048
:100820005A0803405B420B405340AE42D2D12600EF
:10083000250001202C490C362A7801355A405308EE
:10084000024052420A4053405A0803405B420B4068
:100850005A405308024052420A4053405A0803404B
:100860005B420B405A405308024052420A405340F8
:100870005A0803405B420B405A4053080240524220
:100880000A4053405A0803405B420B405340B54274
:10089000D2D1DB43154D01932B68102201219B68B7
:1008A00002A806F0A1F82B680C22012120009B6809
:1008B00006F09AF82B68042201219B6801A806F033
:1008C00093F82B68986805F091FD094A1368013385
:1008D000136006B070BDC046475750310110050087
:1008E0007010002064000C002083B8ED3811002047
:1008F000A828002070B54B4B86B002934A4B6A463D
:1009000003936B4618822C235382484A0C001368C9
:100910000120591C059301231160454902AD06AE23
:100920005B422A7801355A405308024052420A403D
:1009300053405A0803405B420B405A405308024060
:1009400052420A4053405A0803405B420B405A400F
:100950005308024052420A4053405A0803405B4247
:100960000B405A405308024052420A4053405A0832
:1009700003405B420B405340AE42D2D126002500DB
:1009800001202B492C362A7801355A405308024061
:1009900052420A4053405A0803405B420B405A40BF
:1009A0005308024052420A4053405A0803405B42F7
:1009B0000B405A405308024052420A4053405A08E2
:1009C00003405B420B405A405308024052420A40E7
:1009D00053405A0803405B420B405340B542D2D1CA
:1009E000DB43144D01932B68102201219B6802A860
:1009F00005F0FAFF2B682C22012120009B6805F0EE
:100A0000F3FF2B68042201219B6801A805F0ECFF8D
:100A10002B68986805F0EAFC074A136801331360F5
:100A200006B070BD4757503101100400701000200F
:100A30002083B8ED38110020A828002010B58CB014
:100A400001AC2C220021200002F082FC01F0C4FD48
:100A5000002937D0FA220023920002F0ADF91C4B96
:100A600001901A681B686260A3601A4B21001B6822
:100A70000120E360184B1A681B682261174A12684C
:100A80006261174A1268A261164A1268E2615A1E30
:100A9000934123620123144AA384144B1B681268F8
:100AA0009B1A03221B051B0DE384114B2385D83BA6
:100AB000FF3BE2540F4B1A782B23E254FFF71AFF47
:100AC0000CB010BDFA21890002F038F9C7E7C04622
:100AD000781000208C280020A0280020A8280020C2
:100AE000A428002034240020BC380020F078002006
:100AF000010200007410002010B58CB001AC2C2253
:100B00000021200002F024FC01F066FD002933D012
:100B1000FA220023920002F04FF91A4B01901A6852
:100B20001B68626000222261174AA3601268174B9B
:100B30006261174A1B681268E360A261154A2100CE
:100B400012686420E2615A1E93411B0423626423ED
:100B500002220A933C3BE2540F4B1A782923E254B9
:100B60000E4B1A782A23E2540D4B1A782B23E254A9
:100B7000FFF7C0FE0CB010BDFA21890002F0DEF8CC
:100B8000CBE7C0466C100020A82800204424002099
:100B9000A4280020342400206910002068100020C0
:100BA000FA780020F0B5DE4657464E464546E0B599
:100BB0008C4C0727A54402F0A3FD00218A4802F0CF
:100BC000EFFDFA200224CF26884D800001F058FC6A
:100BD0002800874905F0B0FA864B6A681C602B68CC
:100BE00085497B4033400B60844B22401A600121D1
:100BF000002000F091FD0121022000F08DFD012177
:100C0000032000F089FD012000F0A0FDD0257C4BE1
:100C10002D0698466C6218006C617A4905F08CFAD2
:100C20004346794A5B6814604246126823407A4022
:100C30001640764A01211660754A0E20136000F0B6
:100C40006BFD01210F2000F067FD0D2000F07EFDFF
:100C500080239B016B626F486B6105F041FAFFF7DF
:100C6000F1FCFFF7EBFEFFF747FF6B4B0C931AAB62
:100C700003931EAB9B46694B5E460893684B0F93EC
:100C8000684B1093684B0093684B0793684B059330
:100C9000684B0B93684B0E93684B9846684BC34662
:100CA0001193684B1293684B1393684B0493684BF2
:100CB0001493684B9946684B0A93684B684D9A4663
:100CC0005746684B684C0193002002F01DFD5328E5
:100CD00048D0472800D1CDE101F07EFC00296FD03B
:100CE000FA220023920002F067F84B46FA221B68B2
:100CF0009200C31A93426ED2009B1B78002B21D026
:100D000001F06AFC002900D1A7E1FA220023920039
:100D100002F052F85B461B688046002B00D1A6E12A
:100D20005B46FA201968C00002F008F80A2800D2D1
:100D30000A20049B1B68002B04D04246D31A83422E
:100D400000D9EAE12B6822689B1AF82212011342AB
:100D500000D08FE0012001F093FB002002F0D4FCD2
:100D60005328B6D100239846230044469846FA20DB
:100D7000800002F0C9FC0300303B092B00D9C4E11C
:100D80003A4A16AB01349B1818550F2CEFD1434645
:100D9000A0461C00882000234146800016AA121895
:100DA00053549EA80A22002106F030FC304B421E0C
:100DB0009A4291D80C9B186001F00EFC00298FD14B
:100DC000FA21890001F0BAFF4B46FA221B68920013
:100DD000C31A934290D34B461860FFF72FFEFFF7DC
:100DE0008BFE89E77CFBFFFF0011002000C0034061
:100DF000006A180004F0034000D0034004E0034000
:100E00000000044080969800043004400010044024
:100E1000042004402103001078100020AC2800209A
:100E200034240020A4280020FA780020701000202C
:100E300038110020A8280020741000206C10002019
:100E4000087F001069100020681000204024002056
:100E5000F47800208028002044240020C03800209E
:100E6000F0780020CC380020BC3800201F020000A1
:100E70009F8601000023396832008A4618002368E3
:100E80009C462B689C4500D1E1E0236801999B00BA
:100E9000CB5808C2BFF35F8F2368013001331B05B5
:100EA0001B0D23603B6801333B608028E7D151462E
:100EB0008046892216AB92009B1842469E91A0491B
:100EC0001A80A04B16AA52181380434631009A008C
:100ED000A0A802F043FA43469A1C920091B29A4BA2
:100EE000039A07981360994B02911B930123138176
:100EF00003685181D360591C1AAB984603930123B0
:100F0000A44601224446016091481EAE5B4221780E
:100F100001344B40590813405B42034059404B0891
:100F20001140494201404B40590813405B42034085
:100F300059404B081140494201404B405908134069
:100F40005B42034059404B081140494201404B402D
:100F5000590813405B42034059404B081140494235
:100F600001404B40A642D2D1029A644690469EAAC6
:100F7000924600229446220001206446AC46554623
:100F8000924673492A78013453405A0803405B4221
:100F90000B405A405308024052420A405A405308FC
:100FA000024052420A405A405308024052420A400C
:100FB0005A405308024052420A405A4053080240E5
:100FC00052420A405A405308024052420A405A4094
:100FD0005308024052420A405340029A0135A2424D
:100FE000D0D8DB4365461893059B10221B6801216E
:100FF0009B68039805F0F8FC9EAA02964646A84610
:1010000015000697059F3400402E00D940243B6808
:101010002800220001219B6805F0E6FC2D19361BF3
:10102000F1D1059B04221B6801219B6818A8029E30
:10103000069F05F0D9FC059B45461B6854469868F9
:1010400005F0D4F90B9A1368013313603CE651465E
:101050008046002800D137E62BE7FA21890001F00D
:101060006DFE5B461B688046002B00D058E6FA20D8
:10107000C0005EE6039B16A911228C4698461870A4
:101080002300624414009A46FA20800002F03CFBE0
:10109000431C52D020700134A642F5D1039B2A494B
:1010A0005A79187994469A79544602921A89069286
:1010B0005A891D9B09931A9B8B4200D00CE601288C
:1010C00000D009E66346102B00D005E680235B01C3
:1010D0009A4200D900E6002A43D000239A464346AC
:1010E0000D932300A846544615009A4604E0089B39
:1010F00018550134AC422FD2FA20800002F004FBD4
:10110000431CF4D145465446E6E54346A0461C0040
:101110004346002B00D1DFE53CE60A9A41461368BE
:101120009EA8013313609F930023049AA09311603B
:10113000084A9E92FFF73AFB04E65446CCE5C046C7
:101140002602000002030000475750310110010041
:101150002083B8ED640064000D9B2A005446454688
:10116000984600239A460D93230054469A461592BA
:10117000FA20800002F0C8FA431CDED0FF2318409A
:10118000A0400D9B083403430D93202CF0D1159AF9
:101190000123444601219446D046E5485B4222782B
:1011A00001345A4053080A405242024053405A0800
:1011B0000B405B4203405A4053080A4052420240EF
:1011C00053405A080B405B4203405A4053080A40C0
:1011D0005242024053405A080B405B4203405A407F
:1011E00053080A405242024053405A080B405B42A7
:1011F00003405340A642D2D162464446002A38D02A
:10120000089990468C468A4694442200012154460F
:101210009246C748227801345A4053080A40524245
:10122000024053405A080B405B4203405A40530867
:101230000A405242024053405A080B405B4203406E
:101240005A4053080A405242024053405A080B4049
:101250005B4203405A4053080A4052420240534006
:101260005A080B405B4203405340A445D2D142464A
:101270005446DB430D9999423CD110990B680133D8
:101280000B60029B012B3AD0029B022B00D023E57E
:10129000072A00D820E508990B68888808218C4621
:1012A000844498469BB2944500D9A9E1202B00D1F3
:1012B00096E1102B00D18EE1112B00D186E1032B9A
:1012C00000D17DE15A1E012A00D875E15A1EFF3A6D
:1012D000072A00D96EE180225200934200D153E1E7
:1012E000033BFF3B9BB2052B00D935E1119A9B00D4
:1012F000D3589F460F9A136801331360ECE4069BA2
:10130000642B00D0E8E4009B1B78002B00D1BFE0E9
:1013100011000898FFF72CF9002800D1DCE4854B78
:101320009F909E93099B9EA8A093FFF73FFAD3E45A
:1013300001008148FFF71CF90300002216A9CA81A9
:101340004146189116A98B817C4B07989E937C4B44
:10135000A0469F9380231B03A09303681400591C8D
:10136000A19301230160AC46012071495B428825AD
:1013700016AAAD005219125D013453405A080340B9
:101380005B420B405A405308024052420A405340CD
:101390005A0803405B420B405A40530802405242F5
:1013A0000A4053405A0803405B420B405A405308DE
:1013B000024052420A4053405A0803405B420B40ED
:1013C00053405D0803405B420B406B40102CCED174
:1013D0004446002220009046012144468046544A5B
:1013E000082516A84019005D0134434058080B40F9
:1013F0005B4213405840430808404042104043407D
:1014000058080B405B421340584043080840404294
:101410001040434058080B405B421340584043087B
:10142000084040421040434058080B405B42134084
:1014300043405D080B405B4213406B40082CCFD10A
:10144000DB434246A0461793059B01211B6814000D
:101450009B6810229EA8654605F0C6FA059B424689
:101460001B6801219B6818A805F0BEFA059B0422A1
:101470001B6801219B6817A805F0B6FA059B1B683D
:10148000986804F0B3FF0B9A13680133136023E4E8
:10149000052044E700239A465246149B5146504685
:1014A0001A80FFF711F8274B9EA89E9353469F93EF
:1014B000A093FFF77BF900233FE70023009A9EA843
:1014C0001370214A9F93A0939E92FFF76FF9002318
:1014D00033E70123009A137001F07EF800291ED033
:1014E000FA220023920001F067FC049B1860174B5E
:1014F0009EA89E9300239F93A093FFF757F9002384
:101500001BE70223012800D817E7089B1B89190055
:10151000032809D81800FEF7D7FF00230DE7FA21AA
:10152000890001F00BFCE0E7089A5189F2E7C04618
:101530002083B8EDC8006400B4280020475750311C
:1015400001100300650064000400640003006400EF
:10155000FFF7D2FA0023F0E6032813D908980423F2
:10156000017A4A1E012A00D9E7E6427A032A03D00B
:10157000013B0A2A00D0E0E6129B1970139B1A70F7
:101580000023DAE60223D8E60328FBD9089B5D494D
:101590009A680423501E884200D9CEE65B461A6042
:1015A000594B9EA89E9300239F92A093FFF7FEF8AD
:1015B0000023C2E60323C0E6FFF744F80023BCE69D
:1015C000FFF73CFAFFF798FA0023B6E600230E9ADD
:1015D00013700023B1E60E9A0F3B13700023ACE6A4
:1015E0001D3B984200D8A8E6089B46499A68042308
:1015F000501E884200D9A0E60C9B1A6000239CE68E
:1016000043461893029B07991993404BA0469E931B
:101610003F4B01209F9380231B03A0930B68AC4694
:101620005A1C0A600022A1930123140039495B422D
:10163000882516AAAD005219125D013453405A088C
:1016400003405B420B405A405308024052420A405A
:1016500053405A0803405B420B405A405308024033
:1016600052420A4053405A0803405B420B405A40E2
:101670005308024052420A4053405A0803405B421A
:101680000B4053405D0803405B420B406B40102C05
:10169000CED1444600222000904601214446804697
:1016A0001C4A082516A84019005D0134434058081B
:1016B0000B405B42134058404308084040421040F2
:1016C000434058080B405B421340584043080840D1
:1016D00040421040434058080B405B421340584082
:1016E0004308084040421040434058080B405B42CA
:1016F000134043405D080B405B4213406B40082C95
:10170000CFD19DE69F860100050064004757503108
:10171000011003002083B8ED094A83009A1810B520
:1017200014684022544080322240064CC000A44637
:1017300063441A60044B9C466044416010BDC0463F
:1017400004C0014004D00140004001400123D022E8
:101750008340120693629361094A83009A181168C4
:101760004022514080320A400649C0008C46634402
:101770001A60054B9C460523604443607047C04691
:1017800004C0014004D00140004001408023DB053B
:101790001868000F7047C0460FB400B5084883B002
:1017A00002F052F8049B002B07D005A91800019104
:1017B00001F0E2FD034802F047F8012001F0F4FDDA
:1017C000247F0010347F001070B5EFF3108C72B6D8
:1017D0000D4D2B68002BFCD0BFF35F8F0724CB0887
:1017E000C618C05C01230C40A3401C000440034207
:1017F00007D118433070BFF35F8F2C608CF31088D3
:1018000070BD1000FFF7C8FF2C0100D0F8B54746A7
:10181000CE46884680B5EFF3108C72B6214D2C6809
:10182000002CFCD0BFF35F8F9A422CD8D408072736
:10183000055D061901241740BC402C421FD007212A
:101840000127894609E0D408055D06194C46390090
:101850001440A1400C00294211D001329342F2D22F
:1018600001204042BFF35F8F00220E4B1A608CF3C1
:10187000108800280FDBC0BCB946B046F8BD254330
:1018800010003570EEE7BFF35F8F00232B608CF301
:101890001088012040424346002BECD00898FFF707
:1018A0007BFFC0462C0100D0044A1078431CDBB2F9
:1018B000172B00D9102313707047C0467C100020EE
:1018C00010B5064B064C82B00100009318221F236E
:1018D0002000FFF79BFF02B010BDC046387F00100C
:1018E000042400200021044B044ABFF35F8F02C38D
:1018F0009342FAD17047C046000100D0800100D069
:10190000054B064A1360064A136053609360D36028
:1019100013615361936170478080808000E400E030
:1019200004E400E01F2318401E3B8340002905D03B
:10193000C021044A49005350136070478022014976
:101940008B50FAE700E100E001228240034B1B6864
:1019500013405A1E9341D8B27047C04600E100E0E0
:1019600001238340014A13607047C04600E200E053
:10197000064B10309B688000C358054A00209B1A14
:101980002F229A424041C0B27047C04600ED00E0AD
:101990008010002070B50D00EFF3108672B60F4A6C
:1019A0001368002BFCD0BFF35F8F0D4B10309B688A
:1019B00084001B590B4A934203D09D4201D001F091
:1019C0004FF8074B9B681D51BFF35F8FBFF35F8FCD
:1019D0000022024B1A6086F3108870BD240100D0EB
:1019E00000ED00E0C1010010F0B557464E46DE465E
:1019F0004546E0B585B0060000911700EFF3108B67
:101A000072B66A4A1368002BFCD0BFF35F8F0025C3
:101A1000674B5D579A46002D00DA8BE06B00654CF2
:101A200001935B199B009846A146C1444B46524620
:101A30009B7910361370604BB6009B6899590B1B4D
:101A40002F2B33D95D4B994200D0ACE0019B42462D
:101A50009C465B4B6544AD0063535A4B0232A2185F
:101A6000043B9B1A1B05584A5B0D651913436B8099
:101A7000564B0121AB80FF23AB71009BEF71AB6034
:101A80004B460B4319004C4B9B689951BFF35F8F3A
:101A9000BFF35F8F0022454B1A608BF3108805B0AF
:101AA000F0BCBB46B246A946A046F0BD01200A00E4
:101AB0008243D3798C46BB4231D845461300444912
:101AC0001B1B5B415943090D3D4B63533D4B023595
:101AD0006519043B5B1B1B053B4D5B0D2B43AA4665
:101AE0004D466B800425AC465546E044131F4444E4
:101AF0001B1B1B055B0D1D434B46997100999D8077
:101B000099604946DF71334B01431360BBE75800CE
:101B1000C01880002018C179B94211D902000623EB
:101B2000D356002BF3DA0293131D9A462A4B6146D3
:101B3000039319E000F094FF002553465D576DE7CD
:101B4000908802934005131D9A46031561469C46F2
:101B50004046D444634604302018181AE023000598
:101B6000400D1B021843039004235B429C46E14452
:101B700050464B461B1A1B055B0D9C46124B95713C
:101B800098466346404603439380019B5A1992004E
:101B9000039BA418A380029B0E4AA371009B2260A2
:101BA000E771A3606FE700F05BFF4FE7240100D00F
:101BB000FB7800208010002000ED00E0C101001043
:101BC00000A1FFFFB010002000E0FFFF01BDFFFFFC
:101BD000AAAA00000148804701BD000070B5012499
:101BE0000443EFF30581EFF3108C72B6214A1368BA
:101BF000002BFCD0BFF35F8F1F4B05001F4AED1A6F
:101C00006D416A43120D1E4D8900AE6852B276587E
:101C1000A6421CD00621595691421CD01221595679
:101C2000914222D01E215956914220D02A21595644
:101C30000324914210D0134B19781A708171BFF3AD
:101C40005F8F00220B4B1A608CF3108870BDAB685D
:101C50000D4C5C50EFE700246100091989005B1806
:101C6000FF21997109499980E5E70124F4E70224ED
:101C7000F2E7C046240100D080100020AAAA00008C
:101C800000ED00E0FB780020C101001001BDFFFF66
:101C900010B5084B084C82B00100009300220523C8
:101CA0002000FFF7B3FD002801DB1F23181A02B044
:101CB00010BDC046547F0010FF780020024B9C46A8
:101CC000614489000160704740000034F8B5134D4D
:101CD000134E2C00FF27B5421ED22368002B0FD0D5
:101CE000FFF7E2FD01002800FFF7E8FFA780BFF340
:101CF0005F8F0834B4420FD223682500002BEFD148
:101D0000FFF7D2FD01002800FFF7D8FF2771BFF3CE
:101D10005F8F0834B442EFD3F8BDC0467819002075
:101D20008819002010B50400FFF7BEFD0100200057
:101D3000FFF7C4FFFF232371BFF35F8F10BDC046C1
:101D400010B504000120FFF7BBFD034BC3189B0037
:101D50002360BFF35F8F10BD40000034034B9C46EF
:101D6000614489000160BFF35F8F70474000003419
:101D70000A4B1968EFF3108072B60A68002AFCD08B
:101D8000BFF35F8F1B68BFF35F8F00221A6080F381
:101D9000108840BF002000217047C046D078002046
:101DA000F0B5DE4657464E464546E0B585B0EFF302
:101DB000058203231340B64A9900575801229A40DE
:101DC00088469346B34B1A60B34B02935B46B348C5
:101DD00043630823FE5E002E35DABB881BB2002B5E
:101DE00000DBA8E0BB79002B00D0E9E00823F85E17
:101DF00000281EDB43007A691B18DB00D3189D689E
:101E0000DC686B1C00D108E1A44801004144826AEF
:101E10000B69AE1A9B1A9E4213D35A46036A1A42A2
:101E20000FD09E4800F0D0FB8C4202DCCED1854220
:101E3000CCD940BF05B0F0BCBB46B246A946A046CF
:101E4000F0BD0D61EDE77A69730091469B19DB00E7
:101E500099444B469C68DD6800F0B6FB8D42BCDCC3
:101E600000D1FEE0002D00DAE3E04B46029A1B6948
:101E7000934200D1D5E04A4652884946944608220A
:101E8000B85E62460004496910439847009001918A
:101E90000099019A0B001000134300D1C9E0130010
:101EA0000A00002800DBE0E020002900801A9941A8
:101EB0004B469860D96000229A5E002A00DA8CE7CF
:101EC00053009C187D69E4002C190093A368E46812
:101ED0009A468C4200DD80E702D1834200D97CE73C
:101EE00008239C46BC443A8103976746009BB4464E
:101EF0003E000EE08C4200D1C5E01E000023F25EE1
:101F0000002A0BDB53009C18E4002C19A768E46836
:101F1000BA469B18DB00EB188C42EBDD33006646BB
:101F20009C464B461A806346039F1E80BB881BB2AB
:101F3000002B00DA56E73A69EFF3108172B61368A6
:101F4000002BFCD0BFF35F8F0123BE885B42BB80B8
:101F500036B23B69BFF35F8F00221A6081F31088AD
:101F6000002E00DA3EE73B0008333A0099467D69CF
:101F700073009B19DB00EB189968DC688C4608201D
:101F8000115E4846002910DB009306E0A34240D0D2
:101F90000023F95E3800002906DB4F007F18FF00A0
:101FA000EF19FB68A342F1DD009B068000201E5E56
:101FB0001980002EDCDA1700BB79002B00D115E761
:101FC0000023BB713D000823F95E08354B1C00D18E
:101FD0002FE77C690800A44603E035004B1C00D1C4
:101FE00006E74B005B180A006146DB00CE18C95EAD
:101FF00073881BB2002BF0DA01235B42DC17B3605D
:10200000F4608242EAD029803B89100033803A8113
:10201000E4E7BB686345BBD9C6E7631C00D0F3E6C1
:10202000FFE64B465B699A461B6950469847002875
:1020300023D14B461B883A693B81EFF3108372B67C
:1020400011680029FCD0BFF35F8F49467A880A8067
:102050003A697E80BFF35F8F0021116083F310889F
:10206000BBE6844200D8FDE6B7E60C4800F0ACFAC7
:10207000009B019CC01861411AE753461A685B68CF
:102080000092019304E7824500D836E746E7C04650
:10209000AC3800203C700540A11D001000400540F8
:1020A00070B52E4C2569002D04D00A212C48FFF76D
:1020B00005FE70BD2B4E0321300000F07BFAE66078
:1020C000FFF7F2FB284B03229C46D02322701B060D
:1020D0001B6801216370254B6044A3600F238000BF
:1020E00020610220638063694942A1801980023126
:1020F000198647311D83585218315A5275325C394E
:1021000099521832013199521832013199521832CC
:1021100001319952083518329D52023118329952C4
:102120001832013199521832013199521832013165
:1021300099521832013199521832013199520C4B8F
:102140000C49DC6001303562FFF724FC01210320DB
:10215000FFF7E8FB084B1D60A7E7C046C81000204A
:10216000D07800200040054040000034FFFF100000
:10217000AC380020A11D00103860054000487047B1
:10218000C8100020F8B51F0008AB1B78040016002B
:10219000002B08D100F020FA32003B00121A8B41CC
:1021A000002B00DA53E02269EFF3108072B6136857
:1021B000002BFCD0BFF35F8F0223E15E63694A000E
:1021C0005218D2009B18002937DB1A8862802269D6
:1021D000BFF35F8F0025156080F31088069A9E601C
:1021E000DF601A61079A5A615A8801325204520C10
:1021F000101C002A1FD082B25880080410432669A0
:10220000EFF3108772B63268002AFCD0BFF35F8FFD
:10221000A2881A80A1802369BFF35F8F00221A6011
:1022200087F310880B4923788C4601329A40E36883
:1022300063441A60F8BD0120DDE72369BFF35F8FB7
:1022400000221A6080F3108801204042F2E700204B
:10225000F0E7C0463C20000070B501000469EFF3D0
:10226000108C72B620680028FCD0BFF35F8F02206C
:102270000D5E4C6968004019C0002418002D37DB42
:10228000208848800869BFF35F8F002606608CF3C2
:102290001088E36063880498013320615B0405982B
:1022A0005B0CA26060611A1C002B1FD093B2280443
:1022B000628018430A69EFF3108C72B61368002B22
:1022C000FCD0BFF35F8F8B8823808D800B69BFF3B9
:1022D0005F8F00221A608CF310880B7801329A40CD
:1022E000CB6808498C4663441A6070BD0122DDE763
:1022F0000B69BFF35F8F00221A608CF310880120F6
:102300004042F2E73C20000010B543890A14934292
:102310001ADD53009B184269DB00D3180469EFF300
:10232000108C72B62268002AFCD0BFF35F8F5A88E7
:10233000090494B2090C8A4208D00369BFF35F8F85
:1023400000221A608CF31088002010BD8022120237
:1023500014435C80012302698371BFF35F8F002106
:1023600011608CF31088044902788C469340C2684F
:10237000012062441360E8E73C2000004078704789
:10238000F0B504000D0006267642F717C64636194A
:102390006F4100B582B08F4214D811D000F01CF903
:1023A00032003B00121A8B41002B17DC002B47D068
:1023B0002000290000F04EF902B080BCB846F0BD04
:1023C0008642EBD90022002316001F0000F004F91A
:1023D00032003B00121A8B41002BE7DD00F0FCF8C5
:1023E00032003B00121A8B41002B0ADB00230193C1
:1023F000154B3200009315483B00FFF72DFF0028D6
:10240000D6DB00239C46B046114A124E736A9F42A7
:1024100004D8B16A4145CBD29F42C9D11168EFF3CC
:10242000108072B60B68002BFCD0BFF35F8F13686F
:10243000BFF35F8F6146196080F3108820BFE5E726
:10244000002AB5D0CAE7C046711D0010C810002090
:10245000D07800200040054070B504000D0000F069
:10246000BBF88023001969411B06994202D3012061
:1024700002494042FFF784FF70BDC046FFFFFF7F67
:1024800070B5060000F0A8F8FA2204000D00002341
:1024900030000021920000F0F1FE80230019694114
:1024A0001B06994202D3012002494042FFF768FF10
:1024B00070BDC046FFFFFF7FF0B5CE46474680B5F2
:1024C00004000D0083B0EFF30587002F0DD0364ACE
:1024D0000020536A8B4203D3926A0130A24250D348
:1024E00003B0C0BCB946B046F0BD304B9846DB687F
:1024F0009946434648461E7800F066F80B00494668
:1025000002000436B600715820008E1A2900801A85
:1025100099418F4211DC0ED020BF234A0020536A1C
:10252000AB42DDD3926A0130A242D9D2EB1A5A1ED5
:102530009341D8B2D4E78642EED900F04DF822009C
:102540002B00121A8B41002B20DB00230193184B28
:102550002200009340462B00FFF77EFE011E15DD92
:10256000114B2E005A6A95421CD89B6AA34217D37E
:102570004046FFF7C9FE0C4A0020536A9E42AFD87E
:10258000D0E75B1A5A1E9341D8B2A9E7064A002049
:10259000536AAB42A4D3926A0120A242A0D2C5E7FB
:1025A0009542E5D120BFE3E700400540C810002078
:1025B000711D001010B5024A0248FFF705F910BD61
:1025C000787F0010082400200300416A0A00986AFE
:1025D000596A8A42FAD17047034B596A0A00986ACD
:1025E000596A9142FAD170470040054070B5040025
:1025F0000D00174A536A1900966A536A8B42FAD142
:102600003000190024184D41AB4216D813D0104B9E
:102610002A005B6A9D4203D90D494B6A9342FCD361
:10262000934207D10A4A02E0516A994202D1916A63
:10263000A142F9D370BDA642E9D9054B5B6A1C00E3
:102640005A1CEFD0012201246442E5175242E3E70D
:1026500000400540064A536A9942FCD807D1044B12
:1026600002E05A6A914202D19A6A8242F9D37047D3
:1026700000400540F8B5DE464E4657464546E0B5B3
:102680008B4605000A991800160000F057FB0A9BBC
:102690006C001F02324B64199C46A40064446368BA
:1026A00081469F4200D967602B1FDBB29846012B01
:1026B00030D9C02380229B01E31812011A60294BF4
:1026C000AD0059599A4600291BD17301E0262268B2
:1026D00053401E40802342465B01E3181E60012ADE
:1026E00030D9802380229B01E31812011A605346DF
:1026F0004A4667605A51F0BCBB46B246A946A0465E
:10270000F8BD586900F01AFB013043001B18033B69
:10271000FDD2DAE75B46012BCBD1C02303229B011C
:10272000E3181A60023AA3681A42FCD07301E0264B
:102730002268AD0053401E4080230A4A5B01924646
:10274000E3181E605A462168514003220A401A606D
:1027500001225B469A40A3681A42FCD0C1E7C046FA
:10276000008000400C240020F0B546464F46D64677
:10277000C0B51F00344B44009C462418A400644498
:10278000636888461600FF2B02D880235B006360D5
:10279000031FDBB29A46012B30D9C02380229B0154
:1027A000E31812011A60294B8500595999460029EE
:1027B0001BD17301E026226853401E4080235246FD
:1027C0005B01E3181E60012A30D9802380229B011F
:1027D000E31812011A6080235B0063604B465F516F
:1027E000E0BCBA46B146A846F0BD586900F0A6FA6A
:1027F000013043001B18033BFDD2DAE74346012BAF
:10280000CBD1C02303229B01E3181A60023AA368CC
:102810001A42FCD07301E0262268850053401E4016
:1028200080230A4A5B019146E3181E6042462168F4
:10283000514003220A401A60012342469340A26895
:102840001342FCD0C1E7C046008000400C240020A9
:10285000014B8000C05870470C240020F8B50400DC
:1028600020481D0017000E0000F068FA0100380033
:1028700000F064FA069B29041B0319432368002B0C
:102880001EDB194B194DE21853425A4180235B015C
:102890009C461203164B62441A60164B1A601700CE
:1028A0002B689F43FBD1144B2660E2182123A060C4
:1028B00013602368002BFCDA0823E1601360F8BD85
:1028C0003F2322681340B342DBD1A3681B051B0DD5
:1028D0008342D6D1EE22E368D20213408B42D0D19C
:1028E000EDE7C046001BB7000040FDBF08C0004038
:1028F00000E0004000F000400430000010B58024EB
:102900001C4BE4051C6000281AD001231A4C184304
:102910001A4BDC611A4C44401C6259629862802157
:10292000144BC9051960174817490860E021C9040C
:102930001960002A07D18022144B12061A6010BDBC
:102940000E4BD861EBE753019B1A9B009A1880232A
:1029500012015B049A4209D213000D490B60074B28
:102960005A608022094BD2051A60E8E7094B1A0029
:10297000F3E7C04600B00540D3C007B00080054073
:102980002D3FF84FFCFF01000820014000A005404A
:1029900088280020FFFFFF008023024A9B000B4392
:1029A000D362704700800540142310B501001888D9
:1029B00004331B88984710BD162310B501001888F2
:1029C00002331B88984710BDF8B54746CE4680B500
:1029D0000F1E19D014239946043304000025012644
:1029E00098464B461888434621681B88984701C47F
:1029F000431E9841013540420640AF42F1D13000BC
:102A0000C0BCB946B046F8BD0126F8E7142370B53E
:102A10000400188804331B880D00054998470300FB
:102A20000020002C01DB0130A04029009847C0465F
:102A300055420000AA23064A1B0113608D235B0048
:102A4000D3600449044B19605368002BFCDA7047CB
:102A50000040024000B0FA00006002407047C046EB
:102A600010B50148FEF798FE9C7F001070B5074D29
:102A7000074EB54209D20024013E761BB60808CDA8
:102A8000984723000134B342F9D170BDC07E0010D5
:102A9000FC7E001070B5074D074EB54209D20024E8
:102AA000013E761BB60808CD984723000134B34297
:102AB000F9D170BDF47E0010FC7E0010054B064A73
:102AC00006491A60064A074B1A6010000B689843C3
:102AD000FBD1704700E00040BFCDFBFE08C00040C6
:102AE000FE7F3C0000F00040044BDB6C002B03D168
:102AF0008022034BD2021A607047C046000011507A
:102B00004C201150044A054B1A60054A1368DB013A
:102B10008033FBD17047C046FFFFFF0100F000404B
:102B200008C000404022034B9A675A671A67DA666A
:102B30007047C04600F0014010B5FEF7D3FE10BD4F
:102B4000F8B52B492B4C2C4D641AA6103200302EB0
:102B500000D930222800920000F000FCBC2C3ED8A6
:102B6000731C18000127254A302B3BD92F212C1923
:102B70006407E40F891B052917D9302B15D8002CC1
:102B800033D0B300EA503F1B33199B007908EB1890
:102B9000C900C9181A605A6008338B42FAD1012360
:102BA0003B421CD09F433E18731CB1006A50302B2F
:102BB00015D09B00EA50B31C2E2E10D09B00EA507B
:102BC000F31C2D2E0BD09B00EA50331D2C2E06D06B
:102BD0009B00EA50731D2B2E01D09B00EA50084B3E
:102BE0009D60F8BD2F37BF1BC0E73000CBE7C04664
:102BF00000010010C001001000000020C101001001
:102C000000ED00E0002310B5294C82B0A367FFF768
:102C100011FF0122274B1A60636C012BFCD10322A8
:102C2000254B1A60224A936B012BFCD10133009390
:102C30000121224A22480433FFF710FE0523012117
:102C40000093204A2048FFF709FE002202210420B9
:102C50001E4BFFF789FD0022012105201C4BFFF7C9
:102C600083FD0022002107201A4BFFF77DFD002283
:102C700000210820174BFFF777FD8023DB0000932E
:102C8000002200210920134BFFF7F4FC0022104B17
:102C900000210620FFF768FD0420FFF7D9FD0E494B
:102CA00000F04CF801000020FFF776FE02B010BDE6
:102CB000008000403CB0004030B00040002F685918
:102CC00000800240008C864700C00240001BB70015
:102CD00040597307006CDC0240420F000148042198
:102CE000014B1847E0100020C9290010124A936FC9
:102CF0009B0815D29066D166002905D0FFE7FFE753
:102D0000FFE7516F106F704704B580210906C217A5
:102D10005140002800D0C84305F07AF8002104BDD6
:102D2000F0B5146E556E576F166FFFF7E3FF14661C
:102D3000556657671667F0BD000000D0114A936FC3
:102D40009B0813D210665166002905D0FFE7FFE704
:102D5000FFE7516F106F704704B5002801D00020C5
:102D6000C04305F055F8002104BDC046F0B5146E0F
:102D7000556E576F166FFFF7E5FF14665566576778
:102D80001667F0BD000000D094464A4A926F920840
:102D9000624601D228E0C046F0B5464E346E756EEC
:102DA000776F366F00F020F89446424A14665566F5
:102DB000576716676246F0BD94463E4A926F920886
:102DC000624601D254E0C046F0B53A4E346E756E9C
:102DD000776F366F00F04CF89446364A14665566A5
:102DE000576716676246F0BD002B24DB11D000291F
:102DF0003EDA00B5C943404200D1013100F038F855
:102E0000C943404200D10131DB43524200D101337A
:102E100000BD002AEBD1002801D1002905D00020F7
:102E2000C90FC90701D1C043410800B504F0E8FF4C
:102E30000022002300BD00B500290ADBDB4352421B
:102E400000D1013300F014F8C943404200D10131F0
:102E500000BDC943404200D10131DB43524200D1A1
:102E6000013300F005F8DB43524200D1013300BDCD
:102E7000002923D1002B18D1002A0CD0BC460D4FBD
:102E800038667A6600210023FFE7FFE7FFE77A6FE5
:102E9000386F67467047002801D00748010000B529
:102EA00004F0AEFF0022002300BD02000B00002052
:102EB00000217047000000D0FFFFFFFF002B00D073
:102EC000BFE0130C28D1002AE7D080B4114F396637
:102ED0007A66FFE7FFE730B4040C7B6F396F1B04A1
:102EE00023433B667A66FFE7FFE7FFE7C04684B20D
:102EF0007B6F3D6F1B0423433B667A66FFE7FFE76A
:102F0000C04600232C042D0C7A6F386F00196941DC
:102F1000B0BC7047000000D0F0B594460025140EF8
:102F200001D112020835140F01D112010435940F9A
:102F300001D192000235D40F01D152000135D40BDA
:102F40000134254F7C66254C3C660E0C93B2FFE79E
:102F5000FFE7FFE73C6F6643360C7703BE467343DB
:102F6000DF0B5B04C01AB941130C7343DB18C91A99
:102F7000CE086643360CB64493B273431F0F1B0151
:102F8000C01AB941130C73431F0B1B05C01AB9417A
:102F9000860D8F023E436643360C092D24DB520A10
:102FA0007243801A7703460A6643360C16235B1B6E
:102FB000DE40DF40BF1964466643821B704604351D
:102FC00006330100D940A840C01900D30131A24204
:102FD00006D20023F0BD0000000000D0FFFFFFFF7D
:102FE000121B0130F3D3F1E709277F1BFE40644633
:102FF000A2B27243801A00D20139220C7243130C20
:103000001204821A99410B007046043513370100EF
:10301000F940A840801900D30131002B02D1A2420F
:103020000AD2F0BD013000D30131121BFAD2013BAC
:10303000F8D1A24200D2F0BD013000D30131121B01
:10304000F7E7F0B51C0C00D080E00CB400251C0A9A
:1030500004D11B02160E3343120208351C0B04D197
:103060001B01160F3343120104359C0B04D19B0046
:10307000960F334392000235DC0B02D192185B416C
:1030800001351C00971864410134464F7C66464C5C
:103090003C660E0CFFE7FFE7FFE7C0463C6F664368
:1030A000360C7703BE4697B27743C01B00D2013976
:1030B000C01B00D201399FB27743C91BC91B170C33
:1030C00077437E04FF0B801BB941CE086643360C64
:1030D0000C2D33DBB644120B1F053A431B0B97B282
:1030E0007743C01B00D201399FB27743C91B170C2D
:1030F00077433E043F0C801BB941860D8F023E434F
:10310000664329277F1BFE400C3D7746AF40BF1921
:1031100030BCA2B2ABB272437343801A9941220C05
:103120007243130C1204801A994102000B000137FC
:10313000001BA941F9D2781E0021F0BD0C277F1B8E
:10314000FE4077467F0BAF40FF19E0E700245D1C8F
:1031500007D0144F7D663966FFE7FFE7FFE7FFE71B
:103160003C6F95B29EB265436643401BB141150C5E
:103170001E0C6543664336042F0C3E432D04401B52
:10318000B141994204D202000B0020000021F0BDA1
:1031900001D19042F7D3801A994101349942F2D378
:1031A000F6E70000000000D0FFFFFFFF132370B51B
:1031B0001D78012D19D014DD1F48FFF7FDFB060017
:1031C0001E48FFF7F9FB1E4C80223100200000F062
:1031D000C5F8022D2DD01B48FFF7E6FB1A4B1860EF
:1031E00070BD1A4B164CA364F5E7184B144C2360C2
:1031F0006360A360E36023616361A361E3612362B1
:103200006362A362E36223636363A363E363236490
:103210006364A364E36423656365A365E365236670
:103220006366A366E36623676367A367E367A364D4
:10323000D1E7064BA364CEE7534400005346000099
:10324000101B00204C330000CC78002051320010BD
:1032500007B5604601880A0A0230DF2AFAD1C9B2EE
:10326000820804D3028840880004104300E000680C
:10327000014A5050039007BD101B002051434343A7
:10328000C9188C46110C83B24B4310B4040C614333
:1032900092B280B2504362431C041B0C001910BC54
:1032A00059411304120CC018514161447047000089
:1032B000132310B512481C78FFF77EFB0100012C88
:1032C0000AD003DD80220F4800F048F80E48FFF7CF
:1032D0006BFB0E4B186010BD0A4C5422200000F00E
:1032E0003DF80B4B6365A365E36523666366A366E0
:1032F000E36623676367A367E3672362E361E5E748
:1033000053460000101C00204C330000CC780020F5
:103310001533001007B5604601880A0A0230DF2A1B
:10332000FAD1C9B2820804D302884088000410434D
:1033300000E00068014A5050039007BD101C0020B7
:1033400001480421014B1847F0100020C929001042
:10335000014B1B6818470000F0100020014B5B6810
:1033600018470000F010002010B5002800D110BD53
:1033700000F01EFAFBE7C04610B5094A03001468C6
:1033800084B0002C08D0012200910648524203A9C3
:10339000A047012004B010BD00F056FA0020F9E764
:1033A000842800206933001000BEFDE7094A0300AD
:1033B0001068002805D00849C3188B4207D813604D
:1033C000704706480449C31810608B42F7D90120A2
:1033D0004042F5E77C240020000004200079002012
:1033E000030010B508001100002B05D1044B1A682A
:1033F0005B6800F02BF910BD01204042FBE7C0469E
:10340000707F00100300013B10B508001400012B71
:1034100006D801230022210000F098F8200010BDFA
:1034200001204042FBE7C046012040427047C046B1
:10343000012040427047C046012040427047C046CC
:103440000300022200209A424041704710B5FFF766
:10345000ABFFC04670B5FFF709FB074D074EB542FD
:1034600009D20024013E761BB60808CD98472300F8
:103470000134B342F9D170BDFC7E0010047F00100E
:10348000030010B5080011001B68984710BDC04626
:10349000F0B546464F46D646C0B5437D80460E0041
:1034A0001700002B4BD0002A32DD274B01259A460E
:1034B0004B1E00240020994607E0335D0A2B2CD0D8
:1034C0002B0001340135BB4213DA002CF5D13378DF
:1034D0000A2BF5D143461B7D002BF1D143465046C4
:1034E00002211B68984728002B0001340135BB429C
:1034F000EBDB874204DD4346391A1B6830189847D6
:10350000F619013E33780D3B5A425341424613753A
:10351000E0BCBA46B146A846F0BD4B461B5D0D2B3C
:10352000CED0A042DADA4346211A1B6830189847F9
:103530004346504602211B6898472800D4E7036899
:10354000110030009847E3E738800010F0B5DE4600
:1035500057464E464546E0B585B017001C000600AC
:103560000D00FFF739F80023314A12184B41802132
:1035700009068B4202D301222E4B52422E490800EB
:103580008A4604F075FC01906B1C03D1300003F0F7
:103590005DFF0500002C26D0284B9846284B1C6860
:1035A000002C15D0002F21D1264F02E02469002CD9
:1035B0000ED02368002BF9D03B68002B01D0A3422A
:1035C000F4D120002A003100C0472469002CF0D13A
:1035D000019B002B28D1280005B0F0BCBB46B246A9
:1035E000A946A046F0BD184B9846D7E7154B99461B
:1035F00002ABDF1D0A239B4602E02469002CE7D0C2
:103600002368002BF9D04B461B68002B01D0A34246
:10361000F3D12A0031002000C0475B460122390067
:1036200020003B70C047E8E7504604F0E1FBD2E7DA
:1036300040420F00FFFFFF7F8019002091340010EF
:10364000702400207824002081340010F8B55746FB
:103650004E464546DE4698461A4BE0B59B461A4B09
:1036600007000E0091469A46184D5B461C68002CD8
:1036700003D115E02469002C12D02B68002B01D057
:10368000A342F7D1A368002BF4D03100380098474B
:103690000028EFDDF0BCBB46B246A946A046F8BD07
:1036A00053465B6A984508D85246926A4A4502D307
:1036B00002204042EEE79845FAD101200021FEF7B2
:1036C00095FFD2E7702400200040054078240020B8
:1036D0000A4A1368002B05D10CE01A001B6910324E
:1036E000002B07D09842F8D1002902D1036913605A
:1036F000016170470029FCD01060FAE770240020B7
:1037000010B500F0E1FA10BDF0B5CE464746040012
:1037100080B583B0FEF760FF2600002780233618AF
:103720004F411B069F4202D30126194F7642194B87
:10373000B9469846184D43461C68002C03D116E044
:103740002469002C13D02B68002B01D0A342F7D1A1
:10375000A368002BF4D0012101A898470028EFDDD1
:103760006B46187903B0C0BCB946B046F0BD0B4BF0
:103770005A6A914507D89B6AB34202D3022040425D
:10378000F0E79145FAD101200021FEF72FFFD2E7A3
:10379000FFFFFF7F702400207824002000400540B8
:1037A000002903D0437D002B00D10375417570477C
:1037B000F0B5CE46474680B583B06B460600DD1DAA
:1037C0002870FEF709FF00231A4A12184B41802186
:1037D00009068B4202D30122174B524217490800B7
:1037E000884604F045FB164B81461C68002C14D01B
:1037F000144F02E02469002C0FD02368002BF9D06D
:103800003B68002B01D0A342F4D120000122290003
:10381000FFF73EFE2469002CEFD14B46002B05D16B
:10382000300003B0C0BCB946B046F0BD404604F01D
:10383000DFFAF5E740420F00FFFFFF7F801900200D
:10384000702400207824002070B5040003F0FEFDF1
:1038500001230100050001222000FFF777FE084B3D
:103860001C68002C06D06368002B05D0984724699B
:10387000002CF8D1280070BD2469002CF3D1F9E7A1
:10388000702400207047C0460022014B1A70704718
:10389000FC7800204B790020FF2B0BD18B79002B7B
:1038A00008D1CB79012B05D1082A03D9024B8A789C
:1038B00009301A707047C046FC780020012070471C
:1038C00010B5012901D0012010BD13495379107999
:1038D00009781B02034300209942F5D15378012B4C
:1038E00008D0022BF0D1002064220021FFF706F857
:1038F0000120E9E7D37891781B021943DB0507D54E
:103900004A0A100001231A407E331940FFF77EF85F
:1039100001204A0A4042F5E7FC7800200048704741
:103920000481001070B5050014000120012909D19F
:1039300053780020012B05D1637912791B021343C0
:10394000072B00D070BD21002800024A9F3301F0F0
:1039500067FAF7E75C8000100123037000487047A6
:103960003C8000104B780A781B0213438A7810B50C
:1039700012041A43CB781B0613439622D2009342BB
:1039800000D010BD0022012011004042FFF73EF898
:10399000024B1860024B19607047C046FC230020A0
:1039A0000024002010B5024B1878FDF7D9FF10BD98
:1039B000FD780020154B70B51A68002A22D0EFF36D
:1039C000108172B610680028FCD0BFF35F8F002012
:1039D0000F4A596010701B68BFF35F8F186081F346
:1039E0001088002400250B4E3078FDF7ADFF00282D
:1039F00004D1002400252900200070BD3078FDF797
:103A0000AFFFF8E7FA240025A400ECE7982800208F
:103A1000FE780020FD78002070B5040000200E0024
:103A200001F01EFB002836D0002001F02FFB0028FB
:103A300031D0FEF7D1FD0023184A12184B418021E6
:103A400009068B4216D2164D280004F011FA002800
:103A500021D0002001F004FB00280FD1012000211B
:103A6000404200F00DFD03246442280004F0C0F938
:103A7000200070BD01220B4B5242E4E7002001F010
:103A800005FB0028EAD021003200002001F008FBED
:103A9000041EEAD1E7E703246442E9E740420F004D
:103AA000D4780020FFFFFF7F10B5FEF795FD0023BF
:103AB0000E4A12184B41802109068B4202D3012283
:103AC0000B4B52420B4C200004F0D2F900280CD0D2
:103AD00001200021404200F0D3FC002001F02AFB2D
:103AE0000028F5D1200004F083F910BD40420F00FA
:103AF000FFFFFF7FD4780020F8B5DE46574680B53B
:103B000005000C00FEF768FD0023374A12184B41F0
:103B1000802109068B4202D30122344B52423449A0
:103B200008008A4604F0A4F9002803D1C0BCBB46B3
:103B3000B246F8BD002001F093FA00284AD00026D2
:103B4000002C43DD2B4B9B4614E0A919002001F00B
:103B50002BFB070001200021404200F091FC0020D7
:103B600001F0E8FAFEF738FD224BF61918605960AB
:103B7000B4422BDD002001F037FBA71B0200B84246
:103B800000DD3A00002AE0D101200021404200F08F
:103B900077FC002001F0CEFA002001F061FA002845
:103BA00014D0002001F020FB0028E1D1FEF714FD25
:103BB0005B460F001A685B68002184460E481218A5
:103BC0004B419F4202D8D3D19445D1D9504604F0FD
:103BD0000FF9ABE700200021064B186059605046F2
:103BE00004F006F9A2E7C04640420F00FFFFFF7F46
:103BF000D4780020081B002020A1070030B52B4CF2
:103C000085B00021200004F00BF900281CD1284BBE
:103C10001A68002A16D0EFF3108172B610680028D7
:103C2000FCD0BFF35F8F01242248596002781B68E3
:103C3000D2B20470BFF35F8F0020186081F3108848
:103C4000002A17D005B030BD01200021404200F00D
:103C500017FC002001F01AFA0500200004F0C8F853
:103C6000002DEFD0144B1B68002BEBD0134A1068CB
:103C70009847E7E7FEF782FA0400FEF7ADFCFA2268
:103C80000023920012184B41802109068B4202D377
:103C900001220B4B5242012102910021019109495D
:103CA00020000091FEF76EFACCE7C046D4780020E1
:103CB00098280020FE780020FC230020002400200B
:103CC000FFFFFF7FB5390010D02310B51B0684B06D
:103CD0001C68FEF753FAFEF751FBA04202D0002009
:103CE00004B010BD2A4B002100201B7801F076FDA6
:103CF00028480368002B47D00120FDF7C9FFFF23A8
:103D0000254C264920701840FDF744FE20780121FB
:103D1000FDF708FE0520FDF72BFE002826D108221E
:103D200000211F48FFF714FBFEF728FA0400FEF7F6
:103D300053FCFA220023920012184B4180210906FD
:103D40008B4202D30122174B5242012102910021E2
:103D50000191154920000091FEF714FA0028BEDBFE
:103D600012480121FFF7B4FC0120B9E70120FDF75B
:103D7000A7FD0B4B01001800FDF7F0FF0022052006
:103D80000B49FDF731FEEBE7FDF7CCFFB4E7C0468A
:103D90005C840010D4780020FD780020FD3B0010EA
:103DA00098280020FFFFFF7FB53900100011002088
:103DB000A539001000487047E081001000487047A6
:103DC0008C81001010B5040017480378002B20D018
:103DD000002C06D1154B16484380063BFF3B038061
:103DE00010BD052C19D8134BA400E058124900232C
:103DF00004E001330A800231132B10D0C25C002A88
:103E0000F7D1C0220133DBB25B00920008481343B4
:103E1000E5E7112100F01AF8DAE70020E0E7CA230D
:103E200003489B00DBE7C046DC7800200904000063
:103E300048240020748100104A24002010B5024854
:103E400000F0D8F810BDC046C438002030B54B1E75
:103E5000012900D1A7E0664A11780D112C003034F9
:103E60009F2900D9A2E00470012B00D1BEE00F21F0
:103E7000147821400C003034092900D998E04470AE
:103E8000022B00D1B2E054782511290030319F2C4B
:103E900000D990E08170032B00D1A7E00F212140D1
:103EA0000C003034092900D987E0C470042B00D1FC
:103EB0009CE094782511290030319F2C00D97FE0B7
:103EC0000171052B00D191E00F2121400C0030340D
:103ED000092900D976E04471062B00D186E0D47818
:103EE0002511290030319F2C00D96EE08171072BFC
:103EF00000D17BE00F2121400C003034092966D825
:103F0000C471082B00D171E01479251129003031DA
:103F10009F2C5FD80172092B68D00F2121400C0023
:103F20003034092958D844720A2B5FD054792511AE
:103F3000290030319F2C52D881720B2B56D00F2183
:103F400021400C00303409294BD8C4720C2B4DD0C1
:103F500094792511290030319F2C00D90731017344
:103F60000D2B43D00F2121400C003034092901D9F9
:103F700037310C0044730E2B38D0D1790C1122004C
:103F800030329F2900D9073282730F2B2ED00F2297
:103F90000A4011003731092A01D830321100C173AB
:103FA000102B23D010300023037030BD07345AE7A4
:103FB00037310C0063E707316CE737310C0074E7E9
:103FC00007317DE737310C0085E707318EE7373160
:103FD0000C0095E707319DE737310C00A3E7073167
:103FE000AAE737310C00C4720C2BB1D1C018DAE744
:103FF000C438002030B5002589B004000922002112
:1040000001A80095FFF7A4F90922002105A804954D
:10401000FFF79EF94B236A466846137004A90D22E8
:1040200003F0DEFE1521082220006944FFF796F90F
:1040300009B030BDF8B500F045F90C23194DFF2249
:10404000AB6705201849FDF7CFFC184C4022002132
:104050002000FFF77DF94027002301262121144A83
:1040600066702783A260136063545F3161844539B1
:104070006354104A10496360E2602787A1620B60B5
:104080006362E26203F014FF80239B052E64EB64FD
:1040900090230A4A0120EA508022094B5202DA6436
:1040A000F8BDC04600001150D90400208024002033
:1040B00084001050000110508000105010D00100FA
:1040C0000020115010B501210520FDF72BFC10BD7B
:1040D00010B500220021024800F014F910BDC046BE
:1040E000A0240020044B1970002904D080219023C3
:1040F000024A8902D1507047F77800200020115001
:104100000B785B0602D14B78052B00D070478A787C
:10411000014B1A60FAE7C04600001150F0B5C646E0
:10412000C87800B58007830F1800012B60D08F7806
:104130000A794B797F213940FC091B024E00134359
:10414000334D32195201AA189770012767405770F2
:1041500000275B055B0DD7701383D076B846CA0085
:10416000012C32D02B4FBC468F016244BC46AC447C
:104170006746BA6047461760002932D0264AC90010
:1041800090466246414451603F223F3393430228A8
:1041900037D0224937190A687F01D3180B602049AC
:1041A000EF19FA608B422ED836197601AD19EB7EE5
:1041B0001C499B064A4013438022120613436A6837
:1041C0001360012080BCB846F0BD174FBC468F017C
:1041D0006244BC46AC446746BA6247461760002951
:1041E00008D1002364012C196360104BE360E8E7F9
:1041F0000020E7E70B4AC9009046624641445162FD
:10420000C2E75B00C5E7FEF72BFCFA68CCE7C046C7
:1042100080240020840010500400105090280020BA
:10422000FF0F10500000105080001050000110507F
:1042300010B503F03DFE10BD10B57F200C002040EE
:104240004000E409110000191A00034B4001C01896
:1042500000F058F8012010BD802400207F231800B2
:1042600010B508400B420BD0C90980224000074B13
:10427000401840010021C018120103F009FE10BDD2
:104280000223034AC9095B1A9366EEE780240020E3
:10429000002011507F22130010B50B400A4200D1BC
:1042A00010BDC9095B005B1804485B01C0180023FE
:1042B00000220349C37003F0EBFDF1E780240020E6
:1042C000FFF7FFFF80220A4B520410B51A60094B1A
:1042D00009491A6010000B689843FBD18022002125
:1042E00052010648FFF734F80922054B5A6710BD02
:1042F00000E0004000F0004008C000400000105006
:1043000000001150002310B5C382013382828376EE
:104310000161040003F0C4FD002804D08021902333
:10432000074A8902D150200003F09AFD002802D0EC
:104330000123237710BD200003F0A2FDFAE7C04659
:10434000002011507047C0467047C046002070479B
:10435000002070477047C0467047C0467047C0464F
:104360007047C046024B5878431E9841C0B2704710
:10437000141F0020024B18784007C00F7047C0463A
:10438000141F0020F0B5D6464F464646C0B5314B07
:1043900007009A461B780E00FF2B01D0012044E055
:1043A000002941D0002154222B48FEF7D1FF0022E2
:1043B0002A4C2B4B20001A70FDF7B4FC294B1C60D3
:1043C000294C2000143CFDF7BBFC200001F0FAFD55
:1043D000264B274D1C60274B002B2BD02800FFF7C6
:1043E000BBFA254B2A7818602449002489462249C3
:1043F0000023884610E043461B6862019B18002B8F
:1044000012D05B68002B0FD098472A780134E4B2B1
:10441000511C2300A1420FDBA242ECD89B1A5B0186
:104420004B445B68002BEFD10020E0BCBA46B1469C
:10443000A846F0BD2A78D7E75346310038001F70F0
:10444000FFF7F8FD0028EFD03800FFF73BFE012012
:10445000EBE7C04634110020141F00200C1F002081
:10446000F8780020681F00202C1100206C1F00200D
:10447000F678002059390010641D0020F8820010E1
:10448000F0B5DE4657464E464546E0B5CE4B91B0B8
:1044900002931B78FF2B00D138E1CC4BCC4E9B46CE
:1044A0005F46CC4B0DAC0193CB4B009335686A69EA
:1044B000EFF3108172B61368002BFCD0BFF35F8F4F
:1044C000A9612800210001F0BFFB6A69AB69BFF355
:1044D0005F8F0021116083F31088002800D115E15F
:1044E0006378082BE2D89B00FB589F466368002B3B
:1044F000DCD0A0689847D9E77F222179B54D0A40E2
:104500005300EB189846C8098044404601233030D8
:1045100005799D430571057903339D430571002A93
:1045200000D1FAE04346AD4A1B7D1278934200D396
:10453000E9E0AB4A5B011568ED18002D00D1E5E01C
:10454000A36862792078AD69A847AFE7A54A1378D8
:10455000002B00D1DAE01378013BDBB21370137843
:10456000002BA3D101229B4D01212B780420134362
:104570002B703423EA5C8A43EA54EA5C8243EA54AF
:104580000133EA5C8A43EA54EA5C8243EA542378C2
:1045900000209B4600F0A4FC602223791A40602A88
:1045A0000DD0402A00D1CAE0DB06DB0E012B00D182
:1045B00020E1022B00D1DCE0002B00D1CBE0207801
:1045C0000021FFF74BFE80212078FFF747FE6DE7C3
:1045D000804D2B78DB0700D468E7FFF7C1FE65E765
:1045E000019BDB78DB0700D460E76068FFF7ACFE77
:1045F0005CE7784D2B78DB0700D457E72878000775
:10460000C00FFFF7ABFE51E72378734999468B46FD
:10461000724B734998468A4639001A7847460023F8
:10462000B04600254E46894610E053461B686A0195
:104630009B18002B00D176E0DB68300098473A7871
:104640000135EDB2511C2B008D4244DCAA42ECD85E
:104650009B1A5B015B44EFE72378614999465F4B06
:104660008A4698463100BB464E461A7800250023FC
:10467000474689460FE053461B686A019B18002B8A
:1046800055D0DB68300098473A780135EDB2511CBF
:104690002B008D4207DC9542EDD39B1A009A5B01FB
:1046A00094466344EDE7019D542200212800FEF763
:1046B0004FFE1022FF214C48FEF74AFE2800202220
:1046C000FF2114304E465F46FEF742FE00F0FEFB2F
:1046D000FFF742FEEAE63F4D542200212800FEF794
:1046E00037FE1022FF21281DFEF732FE280020226F
:1046F000FF21143046464F46FEF72AFE00F0E6FB47
:104700002379AB70D2E6501C984213DA11B0F0BC9A
:10471000BB46B246A946A046F0BDA36862792078A0
:1047200000F0F2FBC2E646464F462A4DE6E74E460B
:104730005F46CBE7284D9B1A5B015D1900E72B48CC
:1047400000F0CEFB012158460EAAFFF7EBF8002837
:1047500000D0ABE633E7202A00D156E1002A00D092
:104760002DE76379092B00D929E7214A9B00D3580B
:104770009F467023217A0B4200D020E7C809824669
:104780000F330B405B0098461448EB1853441B7DD5
:1047900000789946834261D3431C4B4500DA4EE1D1
:1047A0004B461B1A5B0199460B488144002A00D1F5
:1047B0004AE14B46586900F093FB4B4601215846AD
:1047C0005B690EAA9847C2E734110020508200109E
:1047D0006C1F0020141F0020F8820010F6780020C3
:1047E000641D0020F8780020181F002025390010D3
:1047F00074820010237A0F2B00D9E0E6D74AEB1819
:104800001B791578AB4236D3691C994200DAD6E69B
:104810005D1BD34B6D01ED18686900F061FB012150
:1048200058466B690EAA9847002800D03EE66022E1
:10483000150023791D401A4200D0C0E663790A3B77
:10484000012B00D9BBE600F04BFB63790A2B00D1AA
:104850008EE158460EA900F0CDFA27E6C1485B016B
:10486000006881469944002A00D1EDE04B46002BB8
:1048700000D1A4E69DE7BB4A5B011568ED18002D49
:10488000CAD19CE6A37999466B789945E1D06B78BB
:10489000002B00D034E14B466B70002B00D12CE193
:1048A00048460138C0B2FFF789FA002800D17EE1FE
:1048B00043780793022B00D079E10122C179B146F8
:1048C0008B11491113400A40302112015B0113433F
:1048D0002A78A8468A4313432B7009239A468244B8
:1048E0005646BA46C37882781B021343C318059311
:1048F0009A4B04939A4B08939A4B09939A4B0A93B9
:10490000059BB34200D855E1737801220B2B03D1EC
:104910003378F278F6187378042B00D044E1059BC5
:1049200000279B1B9BB20693049B0B921D780023D0
:1049300003931BE0099A7B011568ED18002D00D147
:1049400032E1310058462B69069A98478446082878
:1049500003D9069A824200D313E1049B01371D78E4
:10496000FFB26B1C03979F4200DD1DE1AF42E1D314
:10497000039B5D1B089B6D019C466544E1E76B78DA
:104980000CAA02321370584601230EA900F048FA0F
:104990008CE5E3881A0AD8B20F2A00D90FE67349CA
:1049A0009300CB589F460EA800F0A0FA5846A17974
:1049B000FFF78EFB02222B7813432B7076E5E388FA
:1049C000012B00D0FBE508222B78584693430EA913
:1049D0002B7000F00FFA69E5022029780CAB9A1CC5
:1049E0008B068908DB0F01400B43138058460223D6
:1049F0000EA900F015FA59E5E388012B00D0DEE599
:104A000008222B7813432B7023E7237A0F2B00D92E
:104A1000D5E5EB181D79514B1B789D4228D2514B9F
:104A20006D011B685D19002D00D1C8E5686900F0B3
:104A300057FA012158466B690EAA984787E6002A63
:104A400000D0BCE50023994662790220130003924E
:104A50008343012B15D0002A00D0B0E52B0043443E
:104A6000534430331B790CAA9B07DB0F0232BCE79F
:104A70005A1CAA4200DAA2E5ED1A394B6D01ED1875
:104A8000D4E7E388002B11D1012A25D0029B1878A6
:104A9000FFF7E4FB43460221EB18534430331A7905
:104AA0000A4301211A711A790A431A714B46002BE5
:104AB00000D1FBE4586900F013FA4B4601215B6911
:104AC0000EAA58469847002000F00AFA3523EB5CFE
:104AD000DB0700D5EAE4BCE6029B1878FFF7DAFBB7
:104AE00043460221EB18534430331A798A431A7132
:104AF0001A7903998A431A71D8E7FFF72DFCA8E6C3
:104B000000215846FFF7EEFA5846FFF791FBAB78C5
:104B1000134903930491114B124998461A78059151
:104B2000002329001D008A4610E0059B6A011B68CE
:104B30009B18002B57D0DB685846984743461A7895
:104B40000135EDB2511C2B008D4238DC9542ECD37F
:104B50009B1A049A5B0194466344ECE7F6780020C4
:104B6000F8820010641D0020281F00209C82001085
:104B70000CAB9A1C584601230EA9157000F050F991
:104B800094E40B9A012A4FD0002A3CD00023B0783D
:104B900004E00133DBB20F71934234D21918C9B269
:104BA00041440D79FF2DF4D04E464546574600232B
:104BB0006B7004E54E465746FFF7CCFB49E6554679
:104BC000542200212800FEF7C3FB1022FF21281DDC
:104BD000FEF7BEFB28002022FF211430FEF7B8FBB1
:104BE000039BAB7057E65546FAE7FEF797FE021EA9
:104BF00000D1E4E4D37891781B020B4358460EA908
:104C000000F00EF9A3E565463B002A0031000A9842
:104C100000F08AFEAC46049B039A1B78664401337D
:104C2000934200DB6CE6BFE7164B29699942ADD190
:104C3000079AABE7FFF78AFB021E00D1BFE4584694
:104C400013780EA900F0ECF881E52189FFF7BAF896
:104C5000021EF4D1B3E4022A0FD0FFF779FB021E43
:104C6000C8D1ACE4FFF7A6F8021E00D1A7E41223D6
:104C700058460EA900F0D4F869E5FFF79FF8021E28
:104C8000B8D19CE4E9520010F8B557464E46DE46CE
:104C900045460C00E0B516001F00002A3CD01F4B13
:104CA00000259A46702399461D4B9B4617E05B46AC
:104CB0002000997800F0FAFD00281FD0210040461E
:104CC000FFF72CFA002819D0A378DA09012A1CD0A2
:104CD0000A9A013513702378E418B5421CDA637818
:104CE000052B0BD1E3789B079B0FBB4206D15346A4
:104CF0004A461B789846A3781A42D8D00020F0BCC8
:104D0000BB46B246A946A046F8BD0B9A01351370C2
:104D10002378E418B542E2DB0120F0E734110020EB
:104D2000141F0020702270B5094B0C001D788B7881
:104D30001A4201D0002070BD064B2000997800F087
:104D4000B5FD0028F6D021002800FFF7E7F9F2E7CB
:104D500034110020141F00200B007F2010B51840D4
:104D6000DB0934334000044AC018044B1168C018F2
:104D700000F058FD10BDC046681F0020141F002021
:104D80000B007F2010B51840DB0934334000044A83
:104D9000C018044B1168C01800F06CFD10BDC0466F
:104DA000681F0020141F002070B57F240F480C409E
:104DB00064000419CD09641930342079C00701D585
:104DC000002070BD012625790948354300782571FA
:104DD000FFF732FA0028F4D101222379934323719B
:104DE0002379033293432371EAE7C046141F00205E
:104DF0003411002070B5094C0600082220000D0077
:104E0000FEF7ACFA00238021E360A3602B7830002A
:104E1000994300220023FFF7C7FF70BDF41E002056
:104E2000F8B5CE4647469046264E80B581460822C4
:104E300030000D001F00FEF791FA4346B3600023D7
:104E4000F381EC79AB7924021C43231CBC4200D9CA
:104E50003B1C9FB2B381002C0ED0002F18D04346CC
:104E6000002B2CD03B1C402F1BD89FB233787F2BBC
:104E70001CD80021144A0FE080212B78002299438E
:104E800048460023FFF790FFC0BCB946B046F8BDC6
:104E90007F230022317899433B004846FFF784FF87
:104EA000F2E740239FB233787F2BE2D9064C3A00D9
:104EB00041462000FEF752FA80212200ECE7002054
:104EC000E2E7C046F41E0020B41E002010B51422F4
:104ED00000210248FEF73CFA10BDC046F41E002037
:104EE000014B18617047C046F41E002010B5054CF8
:104EF000010008222000FEF731FA0023A360E360DE
:104F000010BDC046F41E002070B5384C1D0023783B
:104F10000600DA09C9098A4210D00020002D00D00D
:104F200070BD21003000FFF7EBF82369002B03D0A0
:104F300022000321300098470120F1E77F2B06D89B
:104F4000A068002834D02A002949FEF707FAE28930
:104F5000A1685219E38892B24919E281A160934293
:104F600014D03F2D12D9A389981A051C80B240286D
:104F70002AD82078ADB27F2828D800219A4232D092
:104F80001B4A2B003000FFF70FFFC9E72369002BF6
:104F900005D0220002213000984700280AD0802145
:104FA00023780022994330000023FFF7FDFEB7E786
:104FB0000020B5E700213000FFF750F930008021D4
:104FC000FFF74CF90120ABE74025D2E79A4207D022
:104FD000074C2A002000FEF7C1F980212200D0E70B
:104FE00080210022CDE70022CBE7C046F41E00203E
:104FF000B41E002070B50500FFF7B4F9002800D1F9
:1050000070BDFFF7B7F90028FAD1C8236B43124CE3
:10501000E618F1780029F3D010331C19200000F0B5
:10502000FDFD3F28ECD90020F178FFF795FE002820
:10503000E6D0200000F0F2FD3F2808D9074BEA0136
:10504000D218F17840230020FFF7AEFED8E7F178C0
:105050000020FFF795FED3E7EC1D0020681D00201F
:1050600010B50400FFF77EF9002801D1002010BD23
:10507000FFF780F90028F9D1C8226243024B0130C2
:105080009B181B791840F2E7EC1D0020C82310B5CF
:1050900043430248181800F0A3FD10BDFC1D00207A
:1050A000F0B5C824C646802344431F4F1034050082
:1050B00000B53C195B029A4200D31C4A200092B210
:1050C00000F010FE8046FFF74DF9002803D140465E
:1050D00080BCB846F0BDFFF74DF90028F7D1C826CF
:1050E0006E43BE19F378002BF1D0200000F096FD3E
:1050F0003F28ECD90020F178FFF72EFE0028E6D0FB
:10510000200000F08BFD3F2808D9094BEA01D21896
:10511000F17840230020FFF747FED8E7F178002020
:10512000FFF72EFED3E7C046EC1D0020FFFF000076
:10513000681D0020F8B50600FFF714F9002801D11A
:105140000020F8BDFFF716F90028F9D1C8247443F0
:105150002500134F2435ED19280000F041FD0028EB
:10516000EED03F190020B978FFF7F6FD0028E7D010
:105170000C4BF401E41821002800402200F0B2FD9D
:10518000B978051E08D0030022000020FFF70CFEAE
:105190000028D5D02800D4E70020FFF7F1FDCFE7A5
:1051A000EC1D0020A81D002070B5C82444430C4B02
:1051B0000500E41880235B029A4200D3094A2000CC
:1051C00092B200F047FE0600200000F009FD3F28E3
:1051D00001D8300070BD2800FFF7ACFFF9E7C046EA
:1051E000101E0020FFFF0000C82310B543430248F3
:1051F000181800F013FD10BD101E0020F0B500259A
:10520000184C83B0C82200212000FEF7A1F8164BED
:1052100021001D70FF236371E1235B02A360200066
:1052200008234022A37338310095073B103000F06B
:10523000A1FC270001232100200026004022783114
:105240000093B837243000F095FCC0363800FCF7E6
:1052500069FD3000FCF766FDE56127622663656342
:1052600003B0F0BDEC1D0020E81D00200A4B196BB7
:105270001A6A002909D0002A0CD000221A621A6387
:10528000DA6100225A6301207047002AFBD0D961FD
:105290001962F8E71A63F4E7EC1D002070B50F4CB3
:1052A000052200212000FEF753F80D4D2B78DA0778
:1052B00007D50C4C9B070CD50121200000F0A2FE65
:1052C00070BD2000103000F07DFE2B78054C9B0750
:1052D000F2D4200000F076FEEEE7C046EC1D002080
:1052E000E81D0020101E0020F0B54B79060083B0A9
:1052F000022B02D18B79022B03D00025280003B0AA
:10530000F0BD214FBB78002BF7D18B7809253B707E
:105310000C780C196378242B0BD1082A02D80FE0E3
:10532000AA420DD32378E4185D196378ADB2242B1B
:10533000F6D0052B08D0042B02D163790A2B11D0AB
:105340000020FFF757FED9E721003000FFF7EAFC05
:105350000028D2D0A3787B7023785D19E418637895
:10536000ADB2E8E7094B277801930133009302229D
:1053700002233000E119FFF787FC0028BDD00E356D
:10538000ED19ADB2DCE7C046EC1D0020EE1D00209B
:10539000F8B5602314001278050013400020202B7C
:1053A00007D1304A6379277916781B023B439E4226
:1053B00000D0F8BD6378222B28D007D8202B17D037
:1053C000212BF6D1012944D00120F2E7232BF0D183
:1053D000012938D00329F7D1234B002BF4D0E178F1
:1053E000A37809020020194300E000BF0120E0E794
:1053F00001292ED00329E7D11C4B002BE4D0083221
:1054000000201100FEF7AEFA0120D2E701291AD0E0
:105410000329D9D101252E00A378E478023924028A
:105420001C431471264024321000714000F0EAFD44
:105430000F4B002BC8D06208002031002A4000E04A
:1054400000BF0120B5E721002800FFF7D3FC0120B1
:10545000AFE7072321002800064AFFF7E1FC0120FF
:10546000A7E7C046EC1D00200000000065390010D1
:1054700000000000F41D0020F0B54F464646D64619
:10548000364DC0B5EA781F0080460C00AB788A42E2
:105490003BD08B4210D00020E0BCBA46B146A846B3
:1054A000F0BD2F4B002B04D02E4800F0AFFB00289E
:1054B00051D00020FFF79EFDAB78A34201D0012020
:1054C000EAE7294B002B02D0002000E000BF0020BB
:1054D000FFF730FE0028F2D1244C200000F080FBC2
:1054E0000028ECD1002FEAD0BF06E8D1243C40468A
:1054F000A178FFF731FC0028E1D0002300224046CC
:10550000A178FFF751FC0120C6E710239A46184EF8
:10551000AA4431005046BAB200F09CFC154B002B57
:10552000BFD06B79FF2BBCD0002FBAD0F2199146B7
:1055300003E00136B145B4D06B7932789A42F8D1A4
:10554000504600F063FB0028F3D15346103B5979D5
:1055500000E000BFEDE700E000BFAAE7EC1D00207F
:1055600000000000FC1D002000000000101E0020B4
:10557000681D0020000000009322F0B5134C85B098
:10558000002120009200FDF7E3FE2300200080268A
:1055900040270F4D4D337600FF332930029500939D
:1055A00000220023002103970196FF3000F0D6F976
:1055B0004035201D28340023012200210397029545
:1055C0000196009400F0CAF905B0F0BDB0200020AB
:1055D0003020002010B5054C200000F0F5F9200027
:1055E0002538FF3800F0F0F9012010BDD821002047
:1055F00070B5084C002520003130FF30257000F0D8
:10560000E1FC20000C3000F0DDFC2A23FF33E554E0
:10561000657170BDB0200020F8B557464546DE469E
:105620004E46E0B54B7980460F00FF2B27D1424B09
:105630000C7899462A234946FF33CB5C002B1ED1B8
:105640004E79002E1BD1BB783C190B703B79002B97
:1056500012D098235B004B449A460C234B449B4644
:10566000A5186378052B05D110E02378E41863783A
:10567000052B0BD0AC42F8D3E01B80B200E0002039
:10568000F0BCBB46B246A946A046F8BDA542F3D938
:1056900021004046FFF746FB0028F0D0A3780136F2
:1056A000F6B2DB09012B29D0504600F08BFC2A23EF
:1056B0004946A278FF33CA54637922791B02134307
:1056C0001E4A5B0594465B0D942163445A42534144
:1056D0004A4602204900525C5B00824313434A461B
:1056E000535451464046083900F0D6F90028C6D038
:1056F0002378E4183B79B342B3D8BDE7584600F0AD
:1057000061FC5A46A3780C3A5371637921791B02E4
:105710000B430A495B058C465B0D634459424B4180
:10572000022011795B0081430B4359460020083960
:10573000137100F07FF9DBE7B020002000FEFFFFCF
:1057400070B505002A201F4CFF30205C1E006379D5
:10575000884203D000208B421DD070BD9A235B008D
:10576000E35A002B0DD1184B002B04D00020174911
:10577000B2B200E000BF2800154900F08DF9012009
:10578000EBE72000962331305B00E158B2B2FF30E6
:1057900000F060FBE7E70F4B002B04D03104002042
:1057A000090C00E000BF0C4C2800210000F042F979
:1057B0000028E4D132002100280000F007F9012080
:1057C000CBE7C046B02000200000000030200020C1
:1057D000D821002000000000B420002000B5030004
:1057E00083B0002910D00020012B07D80A78002AA6
:1057F00004D00B48C2540120012A01D003B000BDDF
:105800001800FEF7BFFDF9E7012301A900200B8076
:10581000FEF7B8FD0028F1D00122014B1A70EDE728
:10582000081F0020037870B5DB0704000E00DD0FB1
:10583000002B17D103785B0701D5280070BD01212B
:105840003000494202F0F4FA2378DB07DD0F002B29
:105850000AD123785B0708D4042223780125134357
:10586000237002E00025E8E70025300002F0C0FACE
:10587000E3E7C04670B50C00012106004942200054
:1058800002F0D6FA33785B07DD0F002B04DB200033
:1058900002F0AEFA280070BD3378DB0704D404228E
:1058A000337893433370F2E70025F0E743790279C8
:1058B0001B0213435B055A0DC3789B079B0F022BFA
:1058C00005D0032B15D00020012B08D070470229EA
:1058D0001ED00020402393424041C0B2F6E7023977
:1058E0004B4259410D4B9C46614491424041C0B2EC
:1058F000ECE702394B1E9941094B4942194080237C
:10590000DB009C460020614491424041C0B2DDE78B
:10591000044BD01843425841C0B2D7E7FF03000000
:1059200040FCFFFF00FEFFFF8A1870B5914207D2CE
:105930007F264C78052C04D00C7809198A42F8D8B7
:1059400070BD34008D782C4064000419ED09635556
:105950000C7809198A42ECD8F2E7C046F0B5C64681
:1059600000B582B0150008AA40CA040017880BAA27
:105970001288012090460A002178024081432000CD
:10598000114321703A00009331000123083000F0E8
:10599000F1F8002E01D0002F08D10A9B012063608E
:1059A0004346638002B080BCB846F0BD26001C367A
:1059B0003000FCF7B7F90023002D01D0330000269A
:1059C0006361A661E9E7C04601207047F8B502248B
:1059D0000B7807001C4063425C41144B64421C403E
:1059E000134B08009C4608300D001600644400F07C
:1059F000F7F8002807D1002E05D0344203D1012446
:105A00002B781C4201D00020F8BD38006978FFF7E0
:105A1000A3F90028F7D02B781C42F4D100230022F0
:105A200038006978FFF7C0F9EEE7C04640FEFFFF97
:105A3000FF010000F8B50D000835060028000C0035
:105A400000F0CEF8002803D0012723781F4201D0B0
:105A50000020F8BD30006178FFF77EF90028F7D00C
:105A600028006288616800F03DF92378051E0BD09C
:105A70001F42EDD10300626830006178FFF794F9AE
:105A80000028E5D02800E4E71F42E1D1300061782A
:105A9000FFF776F9DCE7C046F8B5CE46474680B555
:105AA0008B8905000C00002B08D101260B781E42C3
:105AB00040D00020C0BCB946B046F8BD0B789B076B
:105AC00034D5FE2380261B029946B60027000837EE
:105AD000380000F0A3F88642EBD8012223789046E4
