:020000041000EA
:1000000000B5324B212058609868022188439860DF
:10001000D860186158612E4B002199600221596106
:100020000121F02299502B49196001219960352056
:1000300000F044F80222904214D00621196600F024
:1000400034F8196E01211966002018661A6600F04E
:100050002CF8196E196E196E052000F02FF8012189
:100060000842F9D1002199601B49196000215960AB
:100070001A491B48016001219960EB211966A021F2
:10008000196600F012F800219960164914480160C1
:100090000121996001BC002800D000471248134993
:1000A000086003C880F30888084703B5996A0420EC
:1000B0000142FBD001200142F8D103BD02B5186610
:1000C0001866FFF7F2FF186E186E02BD00000240BE
:1000D000000000180000070000035F00212200005C
:1000E000F4000018222000A00001001008ED00E03C
:1000F00000000000000000000000000074B24E7A12
:1001000000200420F7010010CB010010CD010010E9
:10011000C9010010C9010010C9010010C901001077
:10012000C9010010C9010010C9010010CF01001061
:10013000C9010010C9010010D1010010D301001045
:10014000C1010010C1010010C1010010C101001067
:10015000C1010010C1010010C1010010C101001057
:10016000C1010010C1010010C1010010C101001047
:10017000C1010010C1010010C1010010C101001037
:10018000C1010010C1010010C1010010C101001027
:10019000C1010010C1010010C1010010C101001017
:1001A000C1010010C1010010C1010010C101001007
:1001B000C1010010C1010010C1010010C1010010F7
:1001C000EFF30580103800BE00BE00BE00BE00BECA
:1001D00000BE00BEF2EB88714095001060950010E3
:1001E0003802001090A31AE71E481F49086006C88D
:1001F00081F3088810471D480068002801D019487D
:10020000F3E70DA40ECC002902D000F012F8F9E7B4
:100210001749184A002000E001C19142FCD116495B
:100220008847164988471649884700BEFDE701C937
:1002300001C29A42FBD3704760950010C0000020B5
:10024000281A0020C8AE001000000420000004207E
:10025000C8AE0010001004200010042000000000B0
:10026000704700000000000008ED00E0000000D032
:10027000281A0020347A0020814400104514001010
:1002800079440010F8B5C0460448054B10B58342C8
:1002900003D0044B002B00D0984710BD281A002033
:1002A000281A00200000000006480749091A8B1090
:1002B000C90FC91810B5491003D0044B002B00D04A
:1002C000984710BD281A0020281A002000000000BE
:1002D00010B5074C2378002B09D1FFF7D5FF054B4C
:1002E000002B02D0044800E000BF0123237010BDA2
:1002F000B01D0020000000003C8F0010054B10B521
:10030000002B03D00449054800E000BFFFF7CCFFF5
:1003100010BDC04600000000B41D00203C8F00103E
:10032000F0B5DE4657464E464546E0B58DB002F084
:10033000EDFF564B06009846554B0F000393554B67
:100340000BAC0493544B9B46544B9A46544B079327
:10035000544B0893544B0993544B0693544B994672
:1003600043461968002900D10131524803F080FB4F
:10037000002300900193009A019BB6185F418023EF
:100380001B069F4202D301264B4F764230003900B4
:1003900002F090FE039B1B78002BE1D0474B0AAA8A
:1003A000138000239370049AD02513882D06238090
:1003B00004929378A3700223AB61C046C046C04646
:1003C0003F4822000AA9013308F06EFD02230120F4
:1003D0006B61002102F0DAFEA278F0201100637850
:1003E00000011B0203401943364B05910AA90B80FB
:1003F00008000021049A8170138823809378A370E9
:100400000223AB61C046C046C04622000100013352
:100410002B4808F049FD0223012000216B6102F006
:10042000B5FEF02063780001A1781B020340194358
:100430005B4650461B6800685A1C1205120D82422A
:1004400012D150465546006801300005000D286065
:10045000079D286801302860089D286801302860C1
:10046000099D2868013028600698059D84469B00F8
:10047000C552634459804B4649461B6801330B60A3
:10048000BFF35F8F5B461A606AE7C0461411002015
:100490001011002020900010107A0020D839002080
:1004A000DC39002094290020BC290020EC390020F0
:1004B000AC29002040420F00FFFFFF7F01A0FFFF9B
:1004C00000C0034001E0FFFF70B5C02382B0D0241C
:1004D00080256A460005000D9B01204E0343090557
:1004E000090D5BBA2406AD0131809380A561C04639
:1004F000C046C046022201A9194808F0CDFC65613A
:10050000C046C046C0463288164B1205120D134332
:100510006A465BBA9380A561C046C046C0460222C7
:1005200001A90F4808F0B8FC6561C046C046C04646
:100530000D4A13680133136002F0E8FE002908D069
:10054000FA220023920003F0D1FA084B186002B09F
:1005500070BDFA21890003F08BFAF6E7147A0020C7
:100560000000044000B0FFFFDC240020E024002055
:10057000F8B5072929D983795A1E012A27D8C279C3
:100580000839858889B20830032A30D00A2A54D124
:100590005E0032006A4392B28A4216D8002D0ED015
:1005A00004000027022B14D0208801370005000D1D
:1005B0000100BFB2FFF788FFA419AF42F4D10020B9
:1005C0001F4A136801331360F8BD0220FCE70420C2
:1005D000FAE761882088090500050137090D000D3B
:1005E000BFB2FFF771FFA419BD42F2D1E7E75E0089
:1005F00032006A4392B28A42E7D8002DDFD004006D
:100600000027022B0BD0208801370005000D0100C8
:10061000BFB2FFF759FFA419BD42F4D1CFE76188FB
:100620002088090500050137090D000DBFB2FFF74D
:100630004BFFA419BD42F2D1C1E70320C4E7C04675
:10064000D824002070B54E4C6378002B0FD0A578CD
:100650001D2D00D874E0E5781D2D5FD925791D2D5D
:100660004BD965791D2D37D9A5791D2D26D9637AEA
:10067000002B02D0A57A1D2D12D9237B002B06D08A
:10068000A37B657BE47B002B05D01D2D6AD901225D
:100690003C4B1A7070BD01235C401D2DF7D861E002
:1006A000280001F0EDFE0123D022AB401206936238
:1006B00000210022280001F0CFFEDEE7280001F033
:1006C000DFFE0123D022AB401206936200210022FC
:1006D000280001F0C1FECAE7280001F0D1FE012385
:1006E000D022AB401206280093620021002201F0C4
:1006F000B3FEA5791D2DBAD8E0E7280001F0C0FEB1
:100700000123D022AB401206280093620021002270
:1007100001F0A2FE65791D2DA6D8DDE7280001F0C5
:10072000AFFE0123D022AB401206280093620021C5
:10073000002201F091FE25791D2D00D991E7DCE71B
:10074000280001F09DFE0123D022AB4012062800B4
:1007500093620021002201F07FFEE5781D2D00D973
:100760007CE7DBE7280001F08BFE0123D022AB40C1
:1007700012065362002C01D0536188E7936186E72B
:10078000E81000202F7A002010B5434B434A1B7815
:1007900012789A420FD9424AD35C1A00613A032A6E
:1007A00001D8203BDBB2233BDBB2212B03D83D4AEF
:1007B0009B00D3589F46002280213B4B09011A70B1
:1007C0003A4B08001A70FFF77FFE10BD38483949D0
:1007D0000022394B1A60394B1A60394B1860394B7B
:1007E0001960394B1A8853019B1A9B009B18374A92
:1007F0009B019818002B4DD0FA21890003F038F99D
:10080000334BFA211860334B89001B88324C580156
:10081000C01A8000C0182D4B80019C46604403F034
:1008200027F900222D4B20601A60204B01321A70EC
:1008300002F06CFD2A4B1860C7E71D482949C7E73D
:100840001B482949C4E71A482849C1E728482649CE
:10085000BEE727482549BBE725482249B8E7254890
:100860002249B5E723481F49B2E723481E49AFE7AD
:1008700021481E49ACE720481A49A9E71D480D49FF
:10088000A6E71D480B49A3E719480A49A0E71948FC
:1008900015499DE70120B3E71D7A00201C7A00204E
:1008A00014250020408F00101B7A00201E7A0020A3
:1008B00008AC1C1E378941346C25002068250020B7
:1008C000602500205C25002002110020E7030000C5
:1008D00074250020001100205425002070250020E0
:1008E000642500208195432FC520B0261283C02A9D
:1008F000F2D24D160AD7A3188195431B70B54B4B06
:1009000086B002934A4B6A4603936B4618822C23A7
:100910005382484A0C0013680120591C0593012397
:100920001160454902AD06AE5B422A7801355A4056
:100930005308024052420A4053405A0803405B4267
:100940000B405A405308024052420A4053405A0852
:1009500003405B420B405A405308024052420A4057
:1009600053405A0803405B420B405A405308024030
:1009700052420A4053405A0803405B420B405340E6
:10098000AE42D2D12600250001202B492C362A78F0
:1009900001355A405308024052420A4053405A0817
:1009A00003405B420B405A405308024052420A4007
:1009B00053405A0803405B420B405A4053080240E0
:1009C00052420A4053405A0803405B420B405A408F
:1009D0005308024052420A4053405A0803405B42C7
:1009E0000B405340B542D2D1DB43144D01932B68E9
:1009F000102201219B6802A807F00CF82B682C221A
:100A0000012120009B6807F005F82B6804220121D2
:100A10009B6801A806F0FEFF2B68986806F0FCFCB6
:100A2000074A13680133136006B070BD4757503151
:100A3000011004000C1100202083B8EDD811002013
:100A4000C429002010B58CB001AC2C22002120005C
:100A500003F094FC02F05AFC002937D0FA2200235C
:100A6000920003F043F81C4B01901A681B68626007
:100A7000A3601A4B21001B680120E360184B1A6821
:100A80001B682261174A12686261174A1268A261E4
:100A9000164A1268E2615A1E934123620123144AE6
:100AA000A384144B1B6812689B1A03221B051B0DA1
:100AB000E384114B2385D83BFF3BE2540F4B1A785C
:100AC0002B23E254FFF71AFF0CB010BDFA21890066
:100AD00002F0CEFFC7E7C046141100209429002081
:100AE000BC290020C4290020C0290020D4240020D3
:100AF000D8390020107A00200102000010110020D7
:100B000010B58CB001AC2C220021200003F036FC83
:100B100002F0FCFB002933D0FA220023920002F0FD
:100B2000E5FF1A4B01901A681B686260002222617F
:100B3000174AA3601268174B6261174A1B68126854
:100B4000E360A261154A210012686420E2615A1E26
:100B500093411B042362642302220A933C3BE25428
:100B60000F4B1A782923E2540E4B1A782A23E254A9
:100B70000D4B1A782B23E254FFF7C0FE0CB010BDCA
:100B8000FA21890002F074FFCBE7C046081100206B
:100B9000C4290020E4240020C0290020D4240020FF
:100BA00005110020041100201A7A00200023F0B55E
:100BB00087B002ACE3714A4B15000293494B4A4A95
:100BC000A3800C23638113682181E360591C0123F6
:100BD000A071260001201160444906AF5B423278C3
:100BE00001365A405308024052420A4053405A08C4
:100BF00003405B420B405A405308024052420A40B5
:100C000053405A0803405B420B405A40530802408D
:100C100052420A4053405A0803405B420B405A403C
:100C20005308024052420A4053405A0803405B4274
:100C30000B405340B742D2D12F002E0001202B4A47
:100C40000C373178013659404B0801404942114078
:100C50004B40590803405B42134059404B08014048
:100C6000494211404B40590803405B4213405940F0
:100C70004B080140494211404B40590803405B4238
:100C8000134059404B080140494211404B4059081C
:100C900003405B4213404B40BE42D2D1DB43144E73
:100CA000019333681022012120009B6806F0B2FEF8
:100CB00033680C22012128009B6806F0ABFE3368E4
:100CC000042201219B6801A806F0A4FE33689868FD
:100CD00006F0A2FB074A13680133136007B0F0BDAA
:100CE00047575031011000000C1100202083B8ED4F
:100CF000D8110020C4290020F0B5C64600B5A04B8D
:100D000084B01B78002B00D100E102F0FFFA00292B
:100D100000D1F6E0FA220023920002F0E7FE994C9F
:100D20006378002B00D19FE0A3781D2B00D9FEE053
:100D3000D0221206566801229A401640731E9E4128
:100D4000914BF6B21E70E3781D2B00D9F6E001211D
:100D5000D0229940120652680A40531E9A418B4B8A
:100D6000D2B21A7023791D2B00D9EEE0D0210906EA
:100D70004D68012199400D406B1E9D41844BEDB2A1
:100D80001D7061791D2900D9E6E00127D0238F402D
:100D90001B065B683B40591E8B417E49DBB20B70E2
:100DA000A7791D2F00D9DEE0D021090649688846C1
:100DB0000121B9400F00414639404F1EB941C9B227
:100DC000754F3970E779002F01D101377E40277ABE
:100DD000002F08D101277A407D407B407940D2B274
:100DE000EDB2DBB2C9B29B006D002B431343DBB203
:100DF000002900D18DE008221343684A13705A1E5F
:100E0000D2B267498F5C674A1770674A1178B1425E
:100E100002D01670654A1060654D228A2978944682
:100E20008E4221D0614A1268821A94451CD82E70D5
:100E3000002919D1002E17D05E49658A0A68821AE6
:100E4000AA4211D3086096215B4D3F022A680191A6
:100E500001322A60594D029228601F43002105206B
:100E600001AA0397FFF7A2FE637A002B1DD0A27A96
:100E70001D2A00D979E00121D02391401B065B682F
:100E80000B405A1E9341DBB2E17A1A00002901D1CE
:100E900001225A404A484B4E017899426BD04A4D44
:100EA00029680131296003703270237B002B1AD02E
:100EB000E37BA17B1A0000291BD04448444E0178F3
:100EC000914230D0434D296801312960617B1D2951
:100ED00007D801248C402100D0242406002A46D0C3
:100EE0006161027033703C4A137004B080BCB84634
:100EF000F0BD01223548364E01785A409142E1D189
:100F000011E0FA21890002F0B3FD08E7FFF79AFB30
:100F1000FBE6224A13705A1ED2B20E2A00D870E79E
:100F2000002344276FE731789942CBD1CEE70026E2
:100F3000154B1E70E3781D2B00D808E70022134BD9
:100F40001A7023791D2B00D810E70025104B1D7057
:100F500061791D2900D818E700230E490B70A77985
:100F60001D2F00D820E700212AE700238CE7A1618C
:100F700002703370B7E73178914200D08FE792E783
:100F80002F7A0020E8100020297A0020237A002000
:100F9000247A0020257A0020267A0020277A002053
:100FA00010900010227A0020287A00209829002032
:100FB0002A7A0020A0290020A42900209C290020B2
:100FC000317A0020307A0020E83900202D7A002084
:100FD0002C7A0020B02900202B7A002070B57A4DA1
:100FE0008EB02B78002B01D0FFF786FE05AC2422B3
:100FF0000021200003F0C2F902F088F9002900D195
:10100000DDE0FA220023920002F070FD6F4B704A7F
:101010001B68127863606F4B6F491B680978A36087
:101020006E4B09041B680590E3606D4B28781B68C4
:1010300023616C4B1B781B021A436B4B0A431B78D2
:101040006A491B061A436B7809781B02090403439B
:101050000B4367491B0209781B0A09060B430B92D5
:10106000644A0A93644B12781B7812021343634A52
:101070000120127801AD12041343614A1B02127859
:101080001B0A120613435F4A0C935F4B12781B78BE
:101090001202134323845D4B1A782223E2545C4BE3
:1010A0005C4A01935C4B05AC029390239B03039332
:1010B0001368591C04930123116058495B422A7834
:1010C00001355A405308024052420A4053405A08E0
:1010D00003405B420B405A405308024052420A40D0
:1010E00053405A0803405B420B405A4053080240A9
:1010F00052420A4053405A0803405B420B405A4058
:101100005308024052420A4053405A0803405B428F
:101110000B405340AC42D2D1250001203F490EAED6
:101120002A7801355A405308024052420A4053403F
:101130005A0803405B420B405A4053080240524257
:101140000A4053405A0803405B420B405A40530840
:10115000024052420A4053405A0803405B420B404F
:101160005A405308024052420A4053405A08034032
:101170005B420B405340AE42D2D1DB43284D00933B
:101180002B68102201219B6801A806F043FC2B6804
:101190002422012120009B6806F03CFC2B680422DD
:1011A000012168469B6806F035FC2B68986806F0BC
:1011B00033F91C4A1368013313600EB070BDFA2175
:1011C000890002F055FC21E7E8100020A429002046
:1011D000237A00209C290020257A0020E83900206D
:1011E000B0290020247A0020267A00202A7A0020C4
:1011F000297A0020227A0020277A0020317A0020E4
:10120000307A00202C7A00202D7A00202B7A0020C2
:10121000475750310C110020011004002083B8ED15
:10122000D8110020C429002010B5224A224B117881
:10123000224A1B781078224A0C04127884B01202D9
:10124000134323430206134301930023814201D237
:101250001C4B5B5C01AC23711B4B1B786371012B36
:101260001FD00020022B0AD0184BE0801B68220000
:1012700064210420A360FFF799FC04B010BD144B57
:10128000144A1B6812689A4211D2FA219B1A58011B
:10129000C01A8000C018C000490102F0E9FB80B20A
:1012A000E2E70D4B0B4A1B6812689A42EDD300200F
:1012B000DAE7C0461D7A00201B7A00201C7A002045
:1012C000FC100020142500201E7A00205825002044
:1012D000542500207025002074250020012370B5BE
:1012E0008CB005AC0593013363600133A3608123A7
:1012F000DB00E3604B4B4C4A23614C4B01200A93CB
:101300000223FF330B934A4B01AD0193494B0293E8
:10131000E0235B0303931368591C049301231160BA
:1013200045495B422A7801355A40530802405242EF
:101330000A4053405A0803405B420B405A4053084E
:10134000024052420A4053405A0803405B420B405D
:101350005A405308024052420A4053405A08034040
:101360005B420B405A405308024052420A405340ED
:101370005A0803405B420B405340AC42D2D1250097
:1013800001202D490CAE2A7801355A4053080240FD
:1013900052420A4053405A0803405B420B405A40B5
:1013A0005308024052420A4053405A0803405B42ED
:1013B0000B405A405308024052420A4053405A08D8
:1013C00003405B420B405A405308024052420A40DD
:1013D00053405A0803405B420B405340AE42D2D1C7
:1013E000DB43164D00932B68102201219B6801A856
:1013F00006F010FB2B681C22012120009B6806F0E0
:1014000009FB2B680422012168469B6806F002FB59
:101410002B68986806F000F8094A136801331360D6
:101420000CB070BDA08601000C11002000108000DF
:1014300047575031011007002083B8EDD811002024
:10144000C4290020F0B5DE46454657464E46E0B575
:101450007F4C0727A54403F069F900217D4803F07C
:10146000B5F9FA200224CF267B4D800001F0A2FEC0
:1014700028007A4905F076FE794B6A681C602B6873
:1014800078497B4033400B60774B22401A60012142
:10149000002000F0C7FF0121022000F0C3FF01215E
:1014A000032000F0BFFF012000F0EAFFD0256F4BC2
:1014B0002D06984618006E496C626C6105F052FE6C
:1014C00043466C4A5B6814604246126823407A4087
:1014D0001640694A01211660684A0E20136000F028
:1014E000A1FF01210F2000F09DFF0D2000F0C8FF9B
:1014F00080239B016B6200216B610020FEF7E4FFFB
:101500005F4B13931B78002B01D0FFF79BF85D48CE
:1015100005F0FCFDFFF7E2FEFFF794FAFFF7F0FAA3
:10152000FFF75CFD584B1F9338AB16933CAB1593FC
:10153000564B1B93564B2E93564B2F93564B129351
:10154000564B1C93564B1A93564B1E93564B219356
:10155000564B3093564B3193564B3293564B3393F5
:10156000564B1893564B2793564B2893564B29931B
:10157000564B1793564B2A93564B2B93564B079328
:10158000564B0693564B2C93564B2D93564B0C9320
:10159000564B0D93564B0E93564B0193564B02935D
:1015A000564B0893564B0993564B574F9846574BFB
:1015B00045469946564BB8460493564B9B46564B68
:1015C0000F93564B1093564B1193564B1D93564BFE
:1015D0000A93564B9A46564B1993564B14935346BF
:1015E0000B93002003F0A6F8532800D1A3E147286D
:1015F00000D117E301F08AFE002900D1C3E1FA22ED
:101600000023920002F072FAFA220400089B920072
:101610001B68E31A934200D3C2E1139B1B78002B93
:1016200001D0FFF769FB099B1B68E31AF92B00D96E
:10163000F2E1019B1B78002B00D145E101F066FE31
:101640002B6810240027C31A00D53DE103908EE0DB
:1016500004FBFFFFA011002000C00340A0BB0D0051
:1016600004F0034000D0034004E0034000000440C5
:101670008096980004300440001004400420044088
:10168000E81000202103001014110020C8290020B8
:10169000D4240020C02900201A7A00200C11002038
:1016A000D8110020C4290020101100202F7A00201A
:1016B0002A7A0020287A002098290020081100208A
:1016C000C88F00100511002004110020E024002024
:1016D000147A0020142500201C7A00201D7A002096
:1016E0000211002000110020FE100020FC1000203C
:1016F000582500201B7A00201E7A0020882900200F
:101700008429002064250020682500207025002001
:10171000742500206C250020602500205C25002019
:1017200054250020E4240020107A0020D83900201D
:10173000DC390020EC390020022B00D13DE1802172
:10174000019B09011F70029B08001F70069B1F7000
:10175000079B1F70FEF7B8FE2B68039A7D332B6042
:10176000D31A00D5B0E0013C002C00D1ACE0019BC5
:101770001B78002B00D1A7E0029B1B78012BDBD14B
:101780004B461B689A46272B00D93CE1180002F013
:101790007BFCA44902F02FFC049B061C18688245C0
:1017A00000D337E15346C01A272809D802F06CFC51
:1017B0009C4902F020FC011C301C07F095FB061C24
:1017C0005B46186802F060FCBE21890502F027FC28
:1017D000954902F024FC02F0BDFC4346824618689D
:1017E00002F052FCBE21890502F019FC8E4902F07C
:1017F00016FC02F0AFFCFC2105908905504602F072
:101800000EFCFC2182468905059802F008FC011CAB
:10181000504602F0EDFB311C02F001FC0C9B061C53
:10182000188802F031FC011C301C02F0F8FB02F0B9
:1018300053FC80231B01C11880235B01994200DA0D
:10184000B7E07A490D9B08001B78DA0701D48020A5
:10185000000180B29B0701D48021090189B2FEF703
:1018600033FE5B460F9A1B6812680E999B185A4606
:1018700013604346109A1B6812689B184246136017
:101880004B464A461B68013313600A6801320A60FE
:10189000049A1268934200D25EE780210901080091
:1018A000FEF712FE119B1B68002B00D152E30223AE
:1018B000029A137000234A4613602B68039A7D3303
:1018C0002B60D31A00D44EE7129B1B78002B1FD03D
:1018D00001F01CFD002900D191E1FA2200239200C1
:1018E00002F004F90400189A1368002B00D183E178
:1018F000FA201168C00002F0BBF80A2800D20A20C2
:10190000179B1B68002B03D0E31A834200D929E3FD
:101910000A9B0B9A1B6812689B1AF8221201134249
:1019200000D089E0012001F045FC002002F002FF18
:10193000532800D05BE60024FA20800002F0FAFE73
:101940000300303B092B00D9FFE2394A34AB0134A4
:101950009B1818550F2CEFD188210023890034AA39
:101960005218135500210A22BCA806F065FE314B1F
:10197000421E9A4200D93DE61F9B186001F0C6FC4A
:10198000002900D03BE6FA21890002F071F8FA2222
:101990000400089B92001B68E31A934200D23CE6C5
:1019A000089B1C60FFF74EF8FFF7AAF8FFF716FB3D
:1019B00033E6CB43DB17194044E7802109010800D7
:1019C000FEF782FD4B464A461B6801331360119AAD
:1019D0001268934200D2BFE6069907980B78027806
:1019E0000133DBB20B709A4200D90EE100230B7079
:1019F0008021019A09011370029A03700800137084
:101A0000FEF762FDA8E6FE26049BB605186882452F
:101A100000D2C7E60021CFE6099B1C60FFF7DEFA83
:101A200007E6C04600002042DB0FC940FF0F000060
:101A30001F0200009F860100199E00243168159A3C
:101A40008A460A9F0B9803689C463B689C4500D1D8
:101A5000CDE0036814999B00CB5808C2BFF35F8F99
:101A60000368013401331B051B0D03603368013328
:101A70003360802CE7D15146892234AB9200BC916F
:101A80009B1863491C8034AA624B52181380159925
:101A9000A200BEA802F078FC16985F4B02340360E7
:101AA0005E4BA200399301231C9C0381236892B2F0
:101AB000591CC36038AB216016931C00012342817E
:101AC00001203CAF564915975B422678013473409C
:101AD0005E0803405B420B405E407308064076425E
:101AE0000E4073405E0803405B420B405E4073084B
:101AF000064076420E4073405E0803405B420B4056
:101B00005E407308064076420E4073405E08034014
:101B10005B420B405E407308064076420E407340C5
:101B2000A742D2D1002601209C4692463C49BCAF38
:101B300063463C7801365C406308044064420C40D4
:101B40005C406308044064420C405C40630804400D
:101B500064420C405C406308044064420C405C40BA
:101B60006308044064420C405C40630804406442E3
:101B70000C4063405C0803405B420B4063405C08E0
:101B800003405B420B405C40A4460137B242CFD8D1
:101B90002300DB431A9E36933368102201219B6891
:101BA0001698544605F036FFAA463500BCAF26000D
:101BB000402C00D940262B683800320001219B6858
:101BC00005F028FFBF19A41BF1D11A9C0422236839
:101BD00001219B6836A805F01DFF236855469868CB
:101BE00005F01AFC1E9A136801331360F9E451469C
:101BF000002C00D1F5E43FE7FA20C00080E6FA218E
:101C0000890001F035FF04006DE6FEF7BDFDA3E598
:101C10002602000002030000475750310110010066
:101C20002083B8ED34AA1123944663441C00169E09
:101C3000159F3070FA20800002F07CFD431C00D11B
:101C4000D8E420700134A742F4D1169B98791A7910
:101C500059795F89039018893B9B82460593E84830
:101C6000389B834200D0C5E4012A00D0C2E4102989
:101C700000D0BFE480235B019F4200D9BAE4002F6B
:101C80000CD00024FA20800002F054FD431C00D147
:101C9000B0E41B9B18550134BC42F3D300242094BC
:101CA000FA20800002F046FD431C00D1A2E4FF238D
:101CB0001840A040209B083403432093202CEFD1F0
:101CC00001235B4201211C00CE4A33780136634078
:101CD00058080B405B4213405840430808404042BC
:101CE0001040434058080B405B42134058404308A3
:101CF000084040421040434058080B405B421340AC
:101D000058404308084040421040434058080B40A8
:101D10005B421340584044080840434213405C4033
:101D2000159BB342D1D12300002F36D01B9AAC466D
:101D3000D0190500012118001400B24A237801349B
:101D4000434058080B405B4213405840430808404A
:101D500040421040434058080B405B4213405840FB
:101D60004308084040421040434058080B405B4243
:101D700013405840430808404042104043405E082A
:101D80000B405B4213405E4070080E4073421340AC
:101D90005840A542D2D103006546DB43209A9A42BF
:101DA00000D0F0E02F9A136801331360039B012BDE
:101DB00000D1EEE0039B022B00D01BE4072F00D8DC
:101DC00018E41B9A136892889A46110008319BB256
:101DD000B94200D92FE1202B00D11DE1102B00D1F9
:101DE000A6E1112B00D106E1032B00D112E3591E0D
:101DF000012900D899E1802189008B4200D1A3E21A
:101E000081498B4200D0E3E0FFF7E8F8002400228C
:101E100034ABDA815346369334AB9C81784B1C98B3
:101E2000BC937A4B1400BD9380231B03BE930368BD
:101E3000591CBF9301230160012072495B4288262F
:101E400034AAB6009219125D013453405A08034077
:101E50005B420B405A405308024052420A405340F2
:101E60005A0803405B420B405A405308024052421A
:101E70000A4053405A0803405B420B405A40530803
:101E8000024052420A4053405A0803405B420B4012
:101E900053405E0803405B420B407340102CCED190
:101EA00000240121574A082634A88019005D013416
:101EB000434058080B405B421340584043080840D9
:101EC00040421040434058080B405B42134058408A
:101ED0004308084040421040434058080B405B42D2
:101EE00013405840430808404042104043405808BF
:101EF0000B405B42134043405E080B405B42134083
:101F00007340082CCFD1DB431A9E359333681022DF
:101F100001219B68BCA805F07DFD336822000121EA
:101F20009B6836A805F076FD3368042201219B6882
:101F300035A805F06FFD3368986805F06DFA1E9AB4
:101F4000136801331360FFF755FB002C01D1FFF735
:101F500051FB01E5069A137801331370FEF714FC68
:101F6000FFF7FAFB1D9A6421136805200133136003
:101F7000BD930023179ABE931460254ABC92BCAA55
:101F8000FEF714FEC4E42E9A136801331360FFF7C2
:101F900031FB5346642B01D0FFF72CFB129B1B78BF
:101FA000002B13D039001B98FEF7E2FA002801D16C
:101FB000FFF720FB174BBD90BC93059B64210520C8
:101FC000BCAABE93FEF7F2FDFFF714FB0520F1E774
:101FD000591EFF39072900D8B0E01039022900D96D
:101FE000AAE0023BFF3B9BB2112B00D9A4E027994A
:101FF0009B00CB589F460023219A137006E7C046EA
:10200000475750312083B8ED010200000110030052
:1020100064006400C80064000324A24200D8F6E60D
:102020001B9BBE4A9B680134591E914200D9EEE6C3
:102030001F9A1360EAE653463693039B1C99379325
:10204000B74B0024BC93B74B0120BD9380231B03E7
:10205000BE930B685A1CBF9301230A60B2495B42CE
:10206000882634AAB6009219125D013453405A08EA
:1020700003405B420B405A405308024052420A4020
:1020800053405A0803405B420B405A4053080240F9
:1020900052420A4053405A0803405B420B405A40A8
:1020A0005308024052420A4053405A0803405B42E0
:1020B0000B4053405E0803405B420B407340102CC2
:1020C000CED100240121984A082634A88019005D49
:1020D0000134434058080B405B42134058404308CA
:1020E000084040421040434058080B405B421340B8
:1020F00058404308084040421040434058080B40B5
:102100005B4213405840430808404042104043405F
:1021100058080B405B42134043405E080B405B4253
:1021200013407340082CCFD1EDE6FFF7D7F86DE6EA
:10213000219A0F3B137069E6032468E68021490069
:102140008B4200D04DE7032A28D91B9B734A9B681A
:102150000424591E914200D959E6189ABD93136080
:102160000023724ABC9264210520BCAABE93FEF7EC
:102170001DFD4BE6FFF758F848E600238021019A41
:1021800009011370029A08001370069A1370079AD7
:102190001370FEF799F9FFF747F837E6022436E6A1
:1021A0000224472A00D832E61B9C48222300083329
:1021B0001900BCA802F0E8F823009A89DF7B944656
:1021C0009A7B781E039200225989248913003F28A4
:1021D00045D80591BCA98818007A0600613E032EF7
:1021E0000BD9232809D03736F6B21A2E09D8504910
:1021F000F1400E0001210E4203D02B995E1CC85401
:10220000F3B20132D0B2B842E4D30599002B26D004
:10221000079A13700023069A13709C4200D164241D
:102220002C9B1C80002900D1323180222D9B120171
:1022300019806346944500D33E4B0C9A13800323C8
:10224000039A1A4000D1012200240D9B1A700E9BA4
:10225000019A1C6001231370FEF796FAD7E5042457
:10226000D5E511003448FEF783F90400CFE5FEF709
:1022700047FCCBE500242A9B210020001C80FEF7B0
:1022800023F92E4B64210520BCAABC93BD94BE94B7
:10229000FEF78CFCBAE50023129ABD931370284A0E
:1022A000BC9260E70123129A137001F02FF8002905
:1022B0000BD0FA220023920001F018FC179B186043
:1022C000204BBC930023BD934DE7FA21890001F018
:1022D000CFFBF3E70224012A00D898E51B9B18895D
:1022E0000100032A18D8FEF7EFF88FE5032A00D87B
:1022F00054E71B9904240A7A531E012B00D986E562
:102300004B7A032B03D0013C0A2B00D07FE52899A0
:102310000A70299A137079E55989E4E79F860100CC
:1023200047575031011003002083B8ED05006400C9
:10233000C1FF8007FF070000D0290020650064006E
:102340000400640003006400132A00D826E71B9AE7
:10235000D47B567CA446147C05960394947C167D0D
:102360002094D47C23962294567D947D5089537A70
:10237000977B918924962594D67D9469127A269626
:10238000561EB241139E32705A1E934170806046B1
:102390007370039B421E90415A1E9341B180B771E6
:1023A000F0713372059B34615A1E9341209A737207
:1023B000229BB2725A1E9341F372239B5A1E934181
:1023C000249A3373259B72735A1E9341B373269BD1
:1023D0005A1E9341F3730023309A1370319A13708D
:1023E000329A137000F092FF00290ED0FA220023D7
:1023F000920001F07BFB339B1860139B1B78002B32
:1024000000D101E5FEF71EF9FEE4FA21890001F092
:102410002FFBF0E7FEF716FBFEF772FBFEF7DEFD83
:10242000F4E4C046094A83009A1810B514684022A3
:10243000544080322240064CC000A44663441A60D7
:10244000044B9C466044416010BDC04604C001403E
:1024500004D0014000400140074B8000C3181B68B6
:10246000C90092000A435A400C231340034A944681
:10247000604403607047C04604C0014004D001407E
:102480000123D0228340120693629361094A83009C
:102490009A1811684022514080320A400649C00013
:1024A0008C4663441A60054B9C4605236044436098
:1024B0007047C04604C0014004D0014000400140C4
:1024C0008023DB051868000F7047C0460FB400B5C5
:1024D000084883B002F0CEF9049B002B07D005A971
:1024E0001800019101F05EFF034802F0C3F90120DA
:1024F00001F070FF249000103490001070B5EFF3DD
:10250000108C72B60D4D2B68002BFCD0BFF35F8F83
:102510000724CB08C618C05C01230C40A3401C0054
:102520000440034207D118433070BFF35F8F2C6023
:102530008CF3108870BD1000FFF7C8FF2C0100D08D
:10254000F8B54746CE46884680B5EFF3108C72B694
:10255000214D2C68002CFCD0BFF35F8F9A422CD801
:10256000D4080727055D061901241740BC402C42FA
:102570001FD007210127894609E0D408055D061907
:102580004C4639001440A1400C00294211D00132C0
:102590009342F2D201204042BFF35F8F00220E4BE4
:1025A0001A608CF3108800280FDBC0BCB946B04617
:1025B000F8BD254310003570EEE7BFF35F8F0023B1
:1025C0002B608CF31088012040424346002BECD056
:1025D0000898FFF77BFFC0462C0100D0044A107812
:1025E000431CDBB2172B00D9102313707047C04671
:1025F0001811002010B5064B064C82B00100009364
:1026000018221F232000FFF79BFF02B010BDC04619
:1026100038900010A42400200021044B044ABFF38A
:102620005F8F02C39342FAD17047C046000100D0C9
:10263000800100D0054B064A1360064A13605360C0
:102640009360D36013615361936170478080808091
:1026500000E400E004E400E01F2318401E3B834038
:10266000002905D0C021044A490053501360704727
:10267000802201498B50FAE700E100E0012282400C
:10268000034B1B6813405A1E9341D8B27047C04693
:1026900000E100E001238340014A13607047C04617
:1026A00000E200E0064B10309B688000C358054AEA
:1026B00000209B1A2F229A424041C0B27047C04668
:1026C00000ED00E01C11002070B50D00EFF3108646
:1026D00072B60F4A1368002BFCD0BFF35F8F0D4B0F
:1026E00010309B6884001B590B4A934203D09D42D3
:1026F00001D001F04FF8074B9B681D51BFF35F8F6E
:10270000BFF35F8F0022024B1A6086F3108870BD02
:10271000240100D000ED00E0C1010010F0B55746E3
:102720004E46DE464546E0B585B0060000911700EE
:10273000EFF3108B72B66A4A1368002BFCD0BFF31C
:102740005F8F0025674B5D579A46002D00DA8BE0BE
:102750006B00654C01935B199B009846A146C144F0
:102760004B4652469B7910361370604BB6009B68FF
:1027700099590B1B2F2B33D95D4B994200D0ACE0FC
:10278000019B42469C465B4B6544AD0063535A4BEC
:102790000232A218043B9B1A1B05584A5B0D6519AF
:1027A00013436B80564B0121AB80FF23AB71009B21
:1027B000EF71AB604B460B4319004C4B9B68995132
:1027C000BFF35F8FBFF35F8F0022454B1A608BF31F
:1027D000108805B0F0BCBB46B246A946A046F0BD85
:1027E00001200A008243D3798C46BB4231D845464A
:1027F000130044491B1B5B415943090D3D4B635377
:102800003D4B02356519043B5B1B1B053B4D5B0DC6
:102810002B43AA464D466B800425AC465546E04402
:10282000131F44441B1B1B055B0D1D434B46997135
:1028300000999D8099604946DF71334B01431360D5
:10284000BBE75800C01880002018C179B94211D9DF
:1028500002000623D356002BF3DA0293131D9A4687
:102860002A4B6146039319E000F094FF002553467C
:102870005D576DE7908802934005131D9A46031536
:1028800061469C464046D444634604302018181ADA
:10289000E0230005400D1B021843039004235B4214
:1028A0009C46E14450464B461B1A1B055B0D9C465B
:1028B000124B957198466346404603439380019BB3
:1028C0005A199200039BA418A380029B0E4AA3717D
:1028D000009B2260E771A3606FE700F05BFF4FE7AA
:1028E000240100D01F7A00201C11002000ED00E020
:1028F000C101001000A1FFFF4C11002000E0FFFF0C
:1029000001BDFFFFAAAA00000148804701BD0000E9
:1029100070B501240443EFF30581EFF3108C72B618
:10292000214A1368002BFCD0BFF35F8F1F4B0500BB
:102930001F4AED1A6D416A43120D1E4D8900AE68A3
:1029400052B27658A6421CD00621595691421CD04C
:1029500012215956914222D01E215956914220D01F
:102960002A2159560324914210D0134B19781A701A
:102970008171BFF35F8F00220B4B1A608CF31088BC
:1029800070BDAB680D4C5C50EFE700246100091985
:1029900089005B18FF21997109499980E5E70124B5
:1029A000F4E70224F2E7C046240100D01C11002005
:1029B000AAAA000000ED00E01F7A0020C10100106B
:1029C00001BDFFFF10B5084B084C82B00100009319
:1029D000002205232000FFF7B3FD002801DB1F23A1
:1029E000181A02B010BDC04654900010327A002070
:1029F000024B9C46614489000160704740000034EE
:102A0000F8B5134D134E2C00FF27B5421ED2236894
:102A1000002B0FD0FFF7E2FD01002800FFF7E8FFD1
:102A2000A780BFF35F8F0834B4420FD2236825001C
:102A3000002BEFD1FFF7D2FD01002800FFF7D8FFF0
:102A40002771BFF35F8F0834B442EFD3F8BDC0469F
:102A5000181A0020281A002010B50400FFF7BEFD48
:102A600001002000FFF7C4FFFF232371BFF35F8F36
:102A700010BDC04610B504000120FFF7BBFD034B9D
:102A8000C3189B002360BFF35F8F10BD400000346C
:102A9000034B9C46614489000160BFF35F8F704720
:102AA000400000340A4B1968EFF3108072B60A68D0
:102AB000002AFCD0BFF35F8F1B68BFF35F8F00223B
:102AC0001A6080F3108840BF002000217047C04684
:102AD000F0790020F0B5DE4657464E464546E0B553
:102AE00085B0EFF3058203231340B64A9900575887
:102AF00001229A4088469346B34B1A60B34B029327
:102B00005B46B34843630823FE5E002E35DABB887C
:102B10001BB2002B00DBA8E0BB79002B00D0E9E062
:102B20000823F85E00281EDB43007A691B18DB00CF
:102B3000D3189D68DC686B1C00D108E1A448010033
:102B40004144826A0B69AE1A9B1A9E4213D35A46BD
:102B5000036A1A420FD09E4800F0D0FB8C4202DC80
:102B6000CED18542CCD940BF05B0F0BCBB46B24601
:102B7000A946A046F0BD0D61EDE77A697300914664
:102B80009B19DB0099444B469C68DD6800F0B6FB5E
:102B90008D42BCDC00D1FEE0002D00DAE3E04B46C4
:102BA000029A1B69934200D1D5E04A4652884946B1
:102BB00094460822B85E624600044969104398476B
:102BC000009001910099019A0B001000134300D16D
:102BD000C9E013000A00002800DBE0E02000290023
:102BE000801A99414B469860D96000229A5E002A6B
:102BF00000DA8CE753009C187D69E4002C190093DF
:102C0000A368E4689A468C4200DD80E702D18342E3
:102C100000D97CE708239C46BC443A810397674669
:102C2000009BB4463E000EE08C4200D1C5E01E0081
:102C30000023F25E002A0BDB53009C18E4002C19E1
:102C4000A768E468BA469B18DB00EB188C42EBDD02
:102C5000330066469C464B461A806346039F1E809F
:102C6000BB881BB2002B00DA56E73A69EFF31081FC
:102C700072B61368002BFCD0BFF35F8F0123BE88B0
:102C80005B42BB8036B23B69BFF35F8F00221A60A4
:102C900081F31088002E00DA3EE73B0008333A004B
:102CA00099467D6973009B19DB00EB189968DC6815
:102CB0008C460820115E4846002910DB009306E090
:102CC000A34240D00023F95E3800002906DB4F0004
:102CD0007F18FF00EF19FB68A342F1DD009B06801F
:102CE00000201E5E1980002EDCDA1700BB79002B55
:102CF00000D115E70023BB713D000823F95E0835BC
:102D00004B1C00D12FE77C690800A44603E0350086
:102D10004B1C00D106E74B005B180A006146DB0044
:102D2000CE18C95E73881BB2002BF0DA01235B4218
:102D3000DC17B360F4608242EAD029803B8910003E
:102D400033803A81E4E7BB686345BBD9C6E7631CBF
:102D500000D0F3E6FFE64B465B699A461B69504696
:102D60009847002823D14B461B883A693B81EFF3F3
:102D7000108372B611680029FCD0BFF35F8F4946FB
:102D80007A880A803A697E80BFF35F8F00211160E4
:102D900083F31088BBE6844200D8FDE6B7E60C4812
:102DA00000F0ACFA009B019CC01861411AE7534641
:102DB0001A685B680092019304E7824500D836E701
:102DC00046E7C046C83900203C700540D52A0010AF
:102DD0000040054070B52E4C2569002D04D00A2115
:102DE0002C48FFF705FE70BD2B4E0321300000F08C
:102DF0007BFAE660FFF7F2FB284B03229C46D023C8
:102E000022701B061B6801216370254B6044A36080
:102E10000F23800020610220638063694942A18002
:102E200019800231198647311D83585218315A5280
:102E300075325C3999521832013199521832013188
:102E40009952183201319952083518329D52023187
:102E5000183299521832013199521832013199526F
:102E60001832013199521832013199521832013118
:102E700099520C4B0C49DC6001303562FFF724FCA1
:102E800001210320FFF7E8FB084B1D60A7E7C046C0
:102E900064110020F079002000400540400000341B
:102EA000FFFF1000C8390020D52A00103860054007
:102EB0000048704764110020F8B51F0008AB1B786C
:102EC00004001600002B08D100F020FA32003B006D
:102ED000121A8B41002B00DA53E02269EFF31080C5
:102EE00072B61368002BFCD0BFF35F8F0223E15E44
:102EF00063694A005218D2009B18002937DB1A88F0
:102F000062802269BFF35F8F0025156080F310880F
:102F1000069A9E60DF601A61079A5A615A880132E8
:102F20005204520C101C002A1FD082B25880080490
:102F300010432669EFF3108772B63268002AFCD07E
:102F4000BFF35F8FA2881A80A1802369BFF35F8FD0
:102F500000221A6087F310880B4923788C460132CF
:102F60009A40E36863441A60F8BD0120DDE72369F5
:102F7000BFF35F8F00221A6080F310880120404267
:102F8000F2E70020F0E7C0463C20000070B50100E9
:102F90000469EFF3108C72B620680028FCD0BFF3F0
:102FA0005F8F02200D5E4C6968004019C000241834
:102FB000002D37DB208848800869BFF35F8F00262B
:102FC00006608CF31088E360638804980133206105
:102FD0005B0405985B0CA26060611A1C002B1FD07B
:102FE00093B22804628018430A69EFF3108C72B61A
:102FF0001368002BFCD0BFF35F8F8B8823808D80FC
:103000000B69BFF35F8F00221A608CF310880B7876
:1030100001329A40CB6808498C4663441A6070BDFF
:103020000122DDE70B69BFF35F8F00221A608CF38A
:10303000108801204042F2E73C20000010B543898F
:103040000A1493421ADD53009B184269DB00D3181F
:103050000469EFF3108C72B62268002AFCD0BFF32B
:103060005F8F5A88090494B2090C8A4208D0036918
:10307000BFF35F8F00221A608CF31088002010BD10
:103080008022120214435C80012302698371BFF322
:103090005F8F002111608CF31088044902788C4600
:1030A0009340C268012062441360E8E73C200000BE
:1030B00040787047F0B504000D0006267642F717F9
:1030C000C64636196F4100B582B08F4214D811D070
:1030D00000F01CF932003B00121A8B41002B17DC68
:1030E000002B47D02000290000F04EF902B080BC30
:1030F000B846F0BD8642EBD90022002316001F001F
:1031000000F004F932003B00121A8B41002BE7DD7E
:1031100000F0FCF832003B00121A8B41002B0ADB56
:1031200000230193154B3200009315483B00FFF735
:103130002DFF0028D6DB00239C46B046114A124ED4
:10314000736A9F4204D8B16A4145CBD29F42C9D12C
:103150001168EFF3108072B60B68002BFCD0BFF340
:103160005F8F1368BFF35F8F6146196080F310882B
:1031700020BFE5E7002AB5D0CAE7C046A52A00105F
:1031800064110020F07900200040054070B5040073
:103190000D0000F0BBF88023001969411B0699421D
:1031A00002D3012002494042FFF784FF70BDC046B0
:1031B000FFFFFF7F70B5060000F0A8F8FA220400B8
:1031C0000D00002330000021920000F0F1FE80236A
:1031D000001969411B06994202D30120024940426D
:1031E000FFF768FF70BDC046FFFFFF7FF0B5CE461A
:1031F000474680B504000D0083B0EFF30587002F2C
:103200000DD0364A0020536A8B4203D3926A0130B4
:10321000A24250D303B0C0BCB946B046F0BD304B5B
:103220009846DB689946434648461E7800F066F8A3
:103230000B00494602000436B600715820008E1A71
:103240002900801A99418F4211DC0ED020BF234AF9
:103250000020536AAB42DDD3926A0130A242D9D238
:10326000EB1A5A1E9341D8B2D4E78642EED900F049
:103270004DF822002B00121A8B41002B20DB00237B
:103280000193184B2200009340462B00FFF77EFE6F
:10329000011E15DD114B2E005A6A95421CD89B6AFF
:1032A000A34217D34046FFF7C9FE0C4A0020536AD9
:1032B0009E42AFD8D0E75B1A5A1E9341D8B2A9E715
:1032C000064A0020536AAB42A4D3926A0120A2426C
:1032D000A0D2C5E79542E5D120BFE3E70040054015
:1032E00064110020A52A001010B5024A0248FFF719
:1032F00005F910BD78900010A82400200300416A51
:103300000A00986A596A8A42FAD17047034B596A8F
:103310000A00986A596A9142FAD170470040054004
:1033200070B504000D00174A536A1900966A536A73
:103330008B42FAD13000190024184D41AB4216D807
:1033400013D0104B2A005B6A9D4203D90D494B6A8A
:103350009342FCD3934207D10A4A02E0516A994250
:1033600002D1916AA142F9D370BDA642E9D9054BB9
:103370005B6A1C005A1CEFD0012201246442E5174D
:103380005242E3E700400540064A536A9942FCD89E
:1033900007D1044B02E05A6A914202D19A6A8242F2
:1033A000F9D3704700400540F8B5DE464E46574613
:1033B0004546E0B58B4605000A991800160000F056
:1033C00057FB0A9B6C001F02324B64199C46A400F9
:1033D0006444636881469F4200D967602B1FDBB25B
:1033E0009846012B30D9C02380229B01E31812019B
:1033F0001A60294BAD0059599A4600291BD1730117
:10340000E026226853401E40802342465B01E318B9
:103410001E60012A30D9802380229B01E31812010B
:103420001A6053464A4667605A51F0BCBB46B246E2
:10343000A946A046F8BD586900F01AFB01304300C8
:103440001B18033BFDD2DAE75B46012BCBD1C0232F
:1034500003229B01E3181A60023AA3681A42FCD0C7
:103460007301E0262268AD0053401E4080230A4AC3
:103470005B019246E3181E605A46216851400322C0
:103480000A401A6001225B469A40A3681A42FCD0A7
:10349000C1E7C04600800040AC240020F0B546469D
:1034A0004F46D646C0B51F00344B44009C462418F6
:1034B000A4006444636888461600FF2B02D880236A
:1034C0005B006360031FDBB29A46012B30D9C02337
:1034D00080229B01E31812011A60294B850059597B
:1034E000994600291BD17301E026226853401E40F3
:1034F000802352465B01E3181E60012A30D98023E5
:1035000080229B01E31812011A6080235B00636034
:103510004B465F51E0BCBA46B146A846F0BD58697B
:1035200000F0A6FA013043001B18033BFDD2DAE796
:103530004346012BCBD1C02303229B01E3181A6021
:10354000023AA3681A42FCD07301E0262268850083
:1035500053401E4080230A4A5B019146E3181E60D7
:1035600042462168514003220A401A600123424624
:103570009340A2681342FCD0C1E7C04600800040DF
:10358000AC240020014B8000C0587047AC240020C0
:10359000F8B5040020481D0017000E0000F068FA7E
:1035A0000100380000F064FA069B29041B0319434C
:1035B0002368002B1EDB194B194DE21853425A4168
:1035C00080235B019C461203164B62441A60164B23
:1035D0001A6017002B689F43FBD1144B2660E2183A
:1035E0002123A06013602368002BFCDA0823E1602C
:1035F0001360F8BD3F2322681340B342DBD1A368B8
:103600001B051B0D8342D6D1EE22E368D202134084
:103610008B42D0D1EDE7C046001BB7000040FDBF94
:1036200008C0004000E0004000F00040043000000E
:1036300010B580241C4BE4051C6000281AD001231F
:103640001A4C18431A4BDC611A4C44401C625962F4
:1036500098628021144BC905196017481749086002
:10366000E021C9041960002A07D18022144B1206F8
:103670001A6010BD0E4BD861EBE753019B1A9B00FB
:103680009A18802312015B049A4209D213000D4953
:103690000B60074B5A608022094BD2051A60E8E79D
:1036A000094B1A00F3E7C04600B00540D3C007B08D
:1036B000008005402D3FF84FFCFF0100082001402D
:1036C00000A0054090290020FFFFFF008023024A50
:1036D0009B000B43D362704700800540142310B554
:1036E0000100188804331B88984710BD162310B5B5
:1036F0000100188802331B88984710BDF8B547466B
:10370000CE4680B50F1E19D0142399460433040009
:103710000025012698464B461888434621681B8899
:10372000984701C4431E9841013540420640AF42CC
:10373000F1D13000C0BCB946B046F8BD0126F8E76B
:10374000142370B50400188804331B880D00054944
:10375000984703000020002C01DB0130A040290025
:103760009847C04655420000AA23064A1B01136031
:103770008D235B00D3600449044B19605368002B10
:10378000FCDA70470040024000B0FA0000600240DE
:103790007047C04610B50148FEF798FE9C90001097
:1037A00070B5074D074EB54209D20024013E761B85
:1037B000B60808CD984723000134B342F9D170BD53
:1037C000F88E0010348F001070B5074D074EB542CB
:1037D00009D20024013E761BB60808CD9847230085
:1037E0000134B342F9D170BD2C8F0010348F00101A
:1037F000054B064A06491A60064A074B1A60100034
:103800000B689843FBD1704700E00040BFCDFBFE42
:1038100008C00040FE7F3C0000F00040044BDB6C21
:10382000002B03D18022034BD2021A607047C0469E
:10383000000011504C201150044A054B1A60054AF3
:103840001368DB018033FBD17047C046FFFFFF01E7
:1038500000F0004008C000404022034B9A675A67BE
:103860001A67DA667047C04600F0014010B5FEF7EF
:10387000D3FE10BDF8B52B492B4C2C4D641AA61065
:103880003200302E00D930222800920000F07CFD5A
:10389000BC2C3ED8731C18000127254A302B3BD97D
:1038A0002F212C196407E40F891B052917D9302B08
:1038B00015D8002C33D0B300EA503F1B33199B00BE
:1038C0007908EB18C900C9181A605A6008338B428E
:1038D000FAD101233B421CD09F433E18731CB10018
:1038E0006A50302B15D09B00EA50B31C2E2E10D0FE
:1038F0009B00EA50F31C2D2E0BD09B00EA50331D89
:103900002C2E06D09B00EA50731D2B2E01D09B005D
:10391000EA50084B9D60F8BD2F37BF1BC0E7300051
:10392000CBE7C04600010010C001001000000020DD
:10393000C101001000ED00E0002310B5294C82B059
:10394000A367FFF711FF0122274B1A60636C012B5D
:10395000FCD10322254B1A60224A936B012BFCD128
:10396000013300930121224A22480433FFF710FE5D
:10397000052301210093204A2048FFF709FE002279
:10398000022104201E4BFFF789FD002201210520A2
:103990001C4BFFF783FD0022002107201A4BFFF785
:1039A0007DFD002200210820174BFFF777FD8023C3
:1039B000DB000093002200210920134BFFF7F4FCE9
:1039C0000022104B00210620FFF768FD0420FFF7BE
:1039D000D9FD0E4900F04CF801000020FFF776FEFB
:1039E00002B010BD008000403CB0004030B000404C
:1039F000002F685900800240008C864700C00240BA
:103A0000001BB70040597307006CDC0240420F00F6
:103A100001480421014B184780110020FD36001099
:103A2000124A936F9B0815D29066D166002905D083
:103A3000FFE7FFE7FFE7516F106F704704B5802184
:103A40000906C2175140002800D0C84305F00CFAFF
:103A5000002104BDF0B5146E556E576F166FFFF759
:103A6000E3FF1466556657671667F0BD000000D087
:103A7000114A936F9B0813D210665166002905D036
:103A8000FFE7FFE7FFE7516F106F704704B50028AD
:103A900001D00020C04305F0E7F9002104BDC04675
:103AA000F0B5146E556E576F166FFFF7E5FF14668D
:103AB000556657671667F0BD000000D094464A4A25
:103AC000926F9208624601D228E0C046F0B5464E99
:103AD000346E756E776F366F00F020F89446424A68
:103AE00014665566576716676246F0BD94463E4AAF
:103AF000926F9208624601D254E0C046F0B53A4E49
:103B0000346E756E776F366F00F04CF89446364A17
:103B100014665566576716676246F0BD002B24DBB6
:103B200011D000293EDA00B5C943404200D101312D
:103B300000F038F8C943404200D10131DB43524222
:103B400000D1013300BD002AEBD1002801D10029AA
:103B500005D00020C90FC90701D1C043410800B5F5
:103B600005F072F90022002300BD00B500290ADB30
:103B7000DB43524200D1013300F014F8C943404204
:103B800000D1013100BDC943404200D10131DB43C6
:103B9000524200D1013300F005F8DB43524200D11C
:103BA000013300BD002923D1002B18D1002A0CD0ED
:103BB000BC460D4F38667A6600210023FFE7FFE719
:103BC000FFE77A6F386F67467047002801D00748D3
:103BD000010000B505F038F90022002300BD020005
:103BE0000B00002000217047000000D0FFFFFFFF06
:103BF000002B00D0BFE0130C28D1002AE7D080B4FE
:103C0000114F39667A66FFE7FFE730B4040C7B6F2B
:103C1000396F1B0423433B667A66FFE7FFE7FFE744
:103C2000C04684B27B6F3D6F1B0423433B667A66BC
:103C3000FFE7FFE7C04600232C042D0C7A6F386F96
:103C400000196941B0BC7047000000D0F0B594463F
:103C50000025140E01D112020835140F01D11201F2
:103C60000435940F01D192000235D40F01D15200D6
:103C70000135D40B0134254F7C66254C3C660E0C77
:103C800093B2FFE7FFE7FFE73C6F6643360C77032D
:103C9000BE467343DF0B5B04C01AB941130C734378
:103CA000DB18C91ACE086643360CB64493B2734388
:103CB0001F0F1B01C01AB941130C73431F0B1B05C7
:103CC000C01AB941860D8F023E436643360C092D5A
:103CD00024DB520A7243801A7703460A6643360C85
:103CE00016235B1BDE40DF40BF1964466643821B20
:103CF0007046043506330100D940A840C01900D3EE
:103D00000131A24206D20023F0BD0000000000D025
:103D1000FFFFFFFF121B0130F3D3F1E709277F1BE1
:103D2000FE406446A2B27243801A00D20139220CCE
:103D30007243130C1204821A99410B007046043529
:103D400013370100F940A840801900D30131002B3E
:103D500002D1A2420AD2F0BD013000D30131121BC0
:103D6000FAD2013BF8D1A24200D2F0BD013000D31B
:103D70000131121BF7E7F0B51C0C00D080E00CB449
:103D800000251C0A04D11B02160E3343120208350B
:103D90001C0B04D11B01160F3343120104359C0B7D
:103DA00004D19B00960F334392000235DC0B02D105
:103DB00092185B4101351C00971864410134464F4D
:103DC0007C66464C3C660E0CFFE7FFE7FFE7C0460B
:103DD0003C6F6643360C7703BE4697B27743C01BF1
:103DE00000D20139C01B00D201399FB27743C91BF1
:103DF000C91B170C77437E04FF0B801BB941CE080B
:103E00006643360C0C2D33DBB644120B1F053A43C8
:103E10001B0B97B27743C01B00D201399FB2774387
:103E2000C91B170C77433E043F0C801BB941860D1C
:103E30008F023E43664329277F1BFE400C3D774699
:103E4000AF40BF1930BCA2B2ABB272437343801A09
:103E50009941220C7243130C1204801A99410200FA
:103E60000B000137001BA941F9D2781E0021F0BDDB
:103E70000C277F1BFE4077467F0BAF40FF19E0E722
:103E800000245D1C07D0144F7D663966FFE7FFE70D
:103E9000FFE7FFE73C6F95B29EB265436643401B68
:103EA000B141150C1E0C6543664336042F0C3E438E
:103EB0002D04401BB141994204D202000B002000A6
:103EC0000021F0BD01D19042F7D3801A994101340D
:103ED0009942F2D3F6E70000000000D0FFFFFFFF99
:103EE000132370B51D78012D19D014DD1F48FFF77D
:103EF000FDFB06001E48FFF7F9FB1E4C8022310037
:103F0000200000F041FA022D2DD01B48FFF7E6FB00
:103F10001A4B186070BD1A4B164CA364F5E7184B8A
:103F2000144C23606360A360E36023616361A36159
:103F3000E36123626362A362E36223636363A36357
:103F4000E36323646364A364E36423656365A36537
:103F5000E36523666366A366E36623676367A36717
:103F6000E367A364D1E7064BA364CEE753440000A4
:103F700053460000B01B00204C330000EC790020B9
:103F8000853F001007B5604601880A0A0230DF2A23
:103F9000FAD1C9B2820804D30288408800041043D1
:103FA00000E00068014A5050039007BDB01B00209C
:103FB00051434343C9188C46110C83B24B4310B490
:103FC000040C614392B280B2504362431C041B0C48
:103FD000001910BC59411304120CC018514161441E
:103FE000704700004840414048400E4B5B6818470E
:103FF0000C4B1B6818470C4A936F9B0802D2094B65
:10400000DB681847F0B5146E556E576F166FFFF7E3
:10401000F6FF054A1466556657671667F0BD014BF3
:104020009B681847B01C0020000000D007B548402E
:104030004140484001E0C04607B54200120E03D09F
:10404000FF2A03D1420218D8C00DC0054A00120E43
:1040500003D0FF2A03D14A020FD8C90DC905012296
:10406000414005D4414001D5814207BD884207BD8A
:104070000143491801D0C043001807BD00B5FFF740
:10408000DBFF804100BDC046491A002808D1084620
:1040900070470000C10FC90700D54042002817D063
:1040A000F44603B40B4B1B68984706BC81409E380E
:1040B0004042803107D20B0607D04900490AC005AB
:1040C0001043084360470130F8E7490A8902F5E7E1
:1040D00070470000EC79002041000A0E80231B0687
:1040E0007E2A0BDD9E3A0BDAC117400240081843C6
:1040F0005242D04049000131484370470020704788
:10410000C00FC01801387047C0420DD300B5400041
:104110004008002100F012F8002801D4404200BD00
:104120008020000600BD0000034BDB69FC461847F9
:104130001CDF554300100000B01C0020014B5B6ADF
:1041400018470000B01C0020014B1B6B18470000F3
:10415000B01C00204100090E862902DA044B1B6CBA
:104160001847044900B500F0D9F802BC8E46F5E7BF
:10417000B01C0020DB0FC940132310B512481C7877
:10418000FFF7B4FA0100012C0AD003DD80220F48AA
:1041900000F0FAF80E48FFF7A1FA0E4B186010BDB8
:1041A0000A4C5422200000F0EFF80B4B6365A36526
:1041B000E36523666366A366E36623676367A367B5
:1041C000E3672362E361E5E753460000B01C00208B
:1041D0004C330000EC79002029430010F0B546462E
:1041E0004F46D646C0B5FF26C50DCB0D3540884697
:1041F0001700041C1E40002A01D000231360FF2D6D
:1042000052D0002E50D0002D55D0201CFF2E4DD066
:104210003300013BB246AB4248DC80221204914697
:10422000E10F6402640A144342464E465202520AA7
:104230001643B146AB4240D0002954D0534600212A
:104240006442ED1A002D5ADD4B460120D91140423F
:10425000FFF70EFC1D2300219C462A000C2D00DDDB
:104260000C226646631294404343B61A334126003B
:104270004C46914001335B105C435918341BAD1A16
:10428000002DEADCA14538DC4B46E41AA14541DCAF
:10429000E41A023163004B4502DC16D1CB0714D57A
:1042A0004B460131E41A10E0FF20C005E0BCBA46DD
:1042B000B146A846F0BD0020F8E7B442F6DD730031
:1042C000002922D1AA46E41A01314346002B00DA24
:1042D0004942002F00D03960534696212000C91A68
:1042E000FFF732FFE2E75346ED1A002DACDC002168
:1042F000B442D5DB0121A41BCCE7002CCADA4B4623
:10430000E41809D54C440239C4E70121AA461C1B14
:104310004942DAE70131BDE70139BBE710B50022B8
:10432000FFF75CFF10BDC04607B5604601880A0A6A
:104330000230DF2AFAD1C9B2820804D30288408849
:104340000004104300E00068014A5050039007BD8C
:10435000B01C00200021C2158032803201D0024AF8
:104360001047002070470000CD2A000001480421BA
:10437000014B184790110020FD360010014B1B68BF
:104380001847000090110020014B5B68184700009F
:104390009011002010B5002800D110BD00F01EFAC9
:1043A000FBE7C04610B5094A0300146884B0002C2E
:1043B00008D0012200910648524203A9A0470120DB
:1043C00004B010BD00F056FA0020F9E78C29002057
:1043D0009543001000BEFDE7094A0300106800285D
:1043E00005D00849C3188B4207D8136070470648A8
:1043F0000449C31810608B42F7D901204042F5E709
:104400008025002000000420347A0020030010B52D
:1044100008001100002B05D1044B1A685B6800F0FE
:104420002BF910BD01204042FBE7C0467090001000
:104430000300013B10B508001400012B06D801232E
:104440000022210000F098F8200010BD0120404219
:10445000FBE7C046012040427047C0460120404271
:104460007047C046012040427047C0460300022208
:1044700000209A424041704710B5FFF7ABFFC0469D
:1044800070B5FFF78DF9074D074EB54209D20024EC
:10449000013E761BB60808CD984723000134B3428D
:1044A000F9D170BD348F00103C8F0010030010B59F
:1044B000080011001B68984710BDC046F0B546467D
:1044C0004F46D646C0B5437D80460E001700002BF0
:1044D0004BD0002A32DD274B01259A464B1E002483
:1044E0000020994607E0335D0A2B2CD02B000134C5
:1044F0000135BB4213DA002CF5D133780A2BF5D104
:1045000043461B7D002BF1D14346504602211B68D8
:10451000984728002B0001340135BB42EBDB874272
:1045200004DD4346391A1B6830189847F619013ED6
:1045300033780D3B5A42534142461375E0BCBA46AC
:10454000B146A846F0BD4B461B5D0D2BCED0A04218
:10455000DADA4346211A1B6830189847434650461A
:1045600002211B6898472800D4E703681100300037
:104570009847E3E738910010F0B5DE4657464E46BF
:104580004546E0B585B017001C0006000D00FEF79B
:10459000BDFE0023314A12184B41802109068B428F
:1045A00002D301222E4B52422E4908008A4604F0C3
:1045B00083FC01906B1C03D1300003F05DFF05000C
:1045C000002C26D0284B9846284B1C68002C15D070
:1045D000002F21D1264F02E02469002C0ED0236841
:1045E000002BF9D03B68002B01D0A342F4D120006E
:1045F0002A003100C0472469002CF0D1019B002B18
:1046000028D1280005B0F0BCBB46B246A946A0465A
:10461000F0BD184B9846D7E7154B994602ABDF1D06
:104620000A239B4602E02469002CE7D02368002B74
:10463000F9D04B461B68002B01D0A342F3D12A00CE
:1046400031002000C0475B460122390020003B704A
:10465000C047E8E7504604F0EFFBD2E740420F00C6
:10466000FFFFFF7F201A0020BD440010102500200E
:104670007C250020AD440010F8B557464E4645460F
:10468000DE4698461A4BE0B59B461A4B07000E00D3
:1046900091469A46184D5B461C68002C03D115E0E4
:1046A0002469002C12D02B68002B01D0A342F7D133
:1046B000A368002BF4D03100380098470028EFDDC4
:1046C000F0BCBB46B246A946A046F8BD53465B6A5D
:1046D000984508D85246926A4A4502D30220404281
:1046E000EEE79845FAD101200021FEF719FED2E746
:1046F00010250020004005407C2500200A4A136850
:10470000002B05D10CE01A001B691032002B07D0DA
:104710009842F8D1002902D1036913600161704702
:104720000029FCD01060FAE71025002010B500F039
:10473000E1FA10BDF0B5CE464746040080B583B01F
:10474000FEF7E4FD26000027802336184F411B06A4
:104750009F4202D30126194F7642194BB94698461B
:10476000184D43461C68002C03D116E02469002C28
:1047700013D02B68002B01D0A342F7D1A368002BE4
:10478000F4D0012101A898470028EFDD6B46187985
:1047900003B0C0BCB946B046F0BD0B4B5A6A914558
:1047A00007D89B6AB34202D302204042F0E791450A
:1047B000FAD101200021FEF7B3FDD2E7FFFFFF7F12
:1047C000102500207C25002000400540002903D052
:1047D000437D002B00D1037541757047F0B5CE467F
:1047E000474680B583B06B460600DD1D2870FEF796
:1047F0008DFD00231A4A12184B41802109068B4275
:1048000002D30122174B524217490800884604F090
:1048100053FB164B81461C68002C14D0144F02E049
:104820002469002C0FD02368002BF9D03B68002BA3
:1048300001D0A342F4D1200001222900FFF73EFE5F
:104840002469002CEFD14B46002B05D1300003B07A
:10485000C0BCB946B046F0BD404604F0EDFAF5E7FD
:1048600040420F00FFFFFF7F201A0020102500208C
:104870007C25002070B5040003F0FEFD012301003B
:10488000050001222000FFF777FE084B1C68002C72
:1048900006D06368002B05D098472469002CF8D116
:1048A000280070BD2469002CF3D1F9E71025002001
:1048B0007047C0460022014B1A707047207A0020D2
:1048C0004B790020FF2B0BD18B79002B08D1CB79B2
:1048D000012B05D1082A03D9024B8A7809301A70B6
:1048E0007047C046207A00200120704710B501298A
:1048F00001D0012010BD13495379107909781B02AA
:10490000034300209942F5D15378012B08D0022BA4
:10491000F0D1002064220021FEF78AFE0120E9E7A1
:10492000D37891781B021943DB0507D54A0A10009A
:1049300001231A407E331940FEF702FF01204A0A84
:104940004042F5E7207A00200048704704920010AA
:1049500070B5050014000120012909D15378002009
:10496000012B05D1637912791B021343072B00D069
:1049700070BD21002800024A9F3301F067FAF7E773
:104980005C91001001230370004870473C910010B7
:104990004B780A781B0213438A7810B512041A4325
:1049A000CB781B0613439622D200934200D010BD51
:1049B0000022012011004042FEF7C2FE024B1860A7
:1049C000024B19607047C0469C240020A0240020A0
:1049D00010B5024B1878FDF75DFE10BD217A00205E
:1049E000154B70B51A68002A22D0EFF3108172B609
:1049F00010680028FCD0BFF35F8F00200F4A596079
:104A000010701B68BFF35F8F186081F3108800245B
:104A100000250B4E3078FDF731FE002804D100242C
:104A200000252900200070BD3078FDF733FEF8E73F
:104A3000FA240025A400ECE7B42900202E7A0020F7
:104A4000217A002070B5040000200E0001F01EFB4A
:104A5000002836D0002001F02FFB002831D0FEF7CF
:104A600055FC0023184A12184B41802109068B423D
:104A700016D2164D280004F01FFA002821D000207D
:104A800001F004FB00280FD101200021404200F07A
:104A90000DFD03246442280004F0CEF9200070BD0F
:104AA00001220B4B5242E4E7002001F005FB0028F5
:104AB000EAD021003200002001F008FB041EEAD1F8
:104AC000E7E703246442E9E740420F00F47900205D
:104AD000FFFFFF7F10B5FEF719FC00230E4A1218E6
:104AE0004B41802109068B4202D301220B4B5242DB
:104AF0000B4C200004F0E0F900280CD0012000212C
:104B0000404200F0D3FC002001F02AFB0028F5D140
:104B1000200004F091F910BD40420F00FFFFFF7F1D
:104B2000F4790020F8B5DE46574680B505000C0044
:104B3000FEF7ECFB0023374A12184B41802109068F
:104B40008B4202D30122344B5242344908008A4638
:104B500004F0B2F9002803D1C0BCBB46B246F8BD90
:104B6000002001F093FA00284AD00026002C43DDF3
:104B70002B4B9B4614E0A919002001F02BFB0700EA
:104B800001200021404200F091FC002001F0E8FAF1
:104B9000FEF7BCFB224BF61918605960B4422BDDBE
:104BA000002001F037FBA71B0200B84200DD3A00ED
:104BB000002AE0D101200021404200F077FC0020D3
:104BC00001F0CEFA002001F061FA002814D0002094
:104BD00001F020FB0028E1D1FEF798FB5B460F00B7
:104BE0001A685B68002184460E4812184B419F42A8
:104BF00002D8D3D19445D1D9504604F01DF9ABE782
:104C000000200021064B18605960504604F014F94A
:104C1000A2E7C04640420F00FFFFFF7FF47900206B
:104C2000A81B002020A1070030B52B4C85B0002127
:104C3000200004F021F900281CD1284B1A68002A12
:104C400016D0EFF3108172B610680028FCD0BFF3C5
:104C50005F8F01242248596002781B68D2B2047029
:104C6000BFF35F8F0020186081F31088002A17D0EF
:104C700005B030BD01200021404200F017FC0020AB
:104C800001F01AFA0500200004F0D6F8002DEFD04C
:104C9000144B1B68002BEBD0134A10689847E7E7CA
:104CA000FEF706F90400FEF731FBFA22002392001A
:104CB00012184B41802109068B4202D301220B4B73
:104CC00052420121029100210191094920000091E5
:104CD000FEF7F2F8CCE7C046F4790020B4290020B2
:104CE0002E7A00209C240020A0240020FFFFFF7FBC
:104CF000E1490010D02310B51B0684B01C68FEF7F4
:104D0000D7F8FEF7D5F9A04202D0002004B010BDBC
:104D10002A4B002100201B7801F076FD284803680B
:104D2000002B47D00120FDF74DFEFF23254C2649DF
:104D300020701840FDF7C8FC20780121FDF78CFC9D
:104D40000520FDF7AFFC002826D1082200211F48CE
:104D5000FFF714FBFEF7ACF80400FEF7D7FAFA22CF
:104D60000023920012184B41802109068B4202D386
:104D70000122174B52420121029100210191154954
:104D800020000091FEF798F80028BEDB12480121B0
:104D9000FFF7B4FC0120B9E70120FDF72BFC0B4B1A
:104DA00001001800FDF774FE002205200B49FDF7F5
:104DB000B5FCEBE7FDF750FEB4E7C0465C9500108C
:104DC000F4790020217A0020294C0010B429002019
:104DD000FFFFFF7FE1490010A0110020D149001022
:104DE00000487047E0920010004870478C92001015
:104DF00010B5040017480378002B20D0002C06D1F2
:104E0000154B16484380063BFF3B038010BD052C25
:104E100019D8134BA400E0581249002304E00133D1
:104E20000A800231132B10D0C25C002AF7D1C022B5
:104E30000133DBB25B00920008481343E5E7112120
:104E400000F01AF8DAE70020E0E7CA2303489B00E5
:104E5000DBE7C046FC79002009040000E8240020BC
:104E600074920010EA24002010B5024800F0D8F82F
:104E700010BDC046E039002030B54B1E012900D1DD
:104E8000A7E0664A11780D112C0030349F2900D913
:104E9000A2E00470012B00D1BEE00F211478214064
:104EA0000C003034092900D998E04470022B00D15D
:104EB000B2E054782511290030319F2C00D990E0C0
:104EC0008170032B00D1A7E00F2121400C0030346A
:104ED000092900D987E0C470042B00D19CE09478A4
:104EE0002511290030319F2C00D97FE00171052B5D
:104EF00000D191E00F2121400C003034092900D964
:104F000076E04471062B00D186E0D4782511290083
:104F100030319F2C00D96EE08171072B00D17BE0EE
:104F20000F2121400C003034092966D8C471082BA8
:104F300000D171E014792511290030319F2C5FD800
:104F40000172092B68D00F2121400C00303409294F
:104F500058D844720A2B5FD054792511290030317A
:104F60009F2C52D881720B2B56D00F2121400C0060
:104F7000303409294BD8C4720C2B4DD094792511AB
:104F8000290030319F2C00D9073101730D2B43D0FC
:104F90000F2121400C003034092901D937310C0090
:104FA00044730E2B38D0D1790C11220030329F2956
:104FB00000D9073282730F2B2ED00F220A40110026
:104FC0003731092A01D830321100C173102B23D098
:104FD00010300023037030BD07345AE737310C001E
:104FE00063E707316CE737310C0074E707317DE781
:104FF00037310C0085E707318EE737310C0095E734
:1050000007319DE737310C00A3E70731AAE73731B5
:105010000C00C4720C2BB1D1C018DAE7E0390020C3
:1050200030B5002589B004000922002101A80095AF
:10503000FFF7A4F90922002105A80495FFF79EF9BE
:105040004B236A466846137004A90D2203F0ECFE58
:105050001521082220006944FFF796F909B030BDF8
:10506000F8B500F045F90C23194DFF22AB67052078
:105070001849FDF753FB184C402200212000FFF790
:105080007DF94027002301262121144A66702783D9
:10509000A260136063545F31618445396354104AE0
:1050A00010496360E2602787A1620B606362E2627D
:1050B00003F0D2FE80239B052E64EB6490230A4A02
:1050C0000120EA508022094B5202DA64F8BDC04642
:1050D00000001150D90400208425002084001050C5
:1050E000000110508000105010D00100002011501D
:1050F00010B501210520FDF7AFFA10BD10B5002253
:105100000021024800F014F910BDC046A42500207B
:10511000044B1970002904D080219023024A89028F
:10512000D1507047177A0020002011500B785B0691
:1051300002D14B78052B00D070478A78014B1A605A
:10514000FAE7C04600001150F0B5C646C87800B571
:105150008007830F1800012B60D08F780A794B7974
:105160007F213940FC091B024E001343334D321995
:105170005201AA18977001276740577000275B05F6
:105180005B0DD7701383D076B846CA00012C32D09D
:105190002B4FBC468F016244BC46AC446746BA60A4
:1051A00047461760002932D0264AC9009046624619
:1051B000414451603F223F339343022837D0224974
:1051C00037190A687F01D3180B602049EF19FA607C
:1051D0008B422ED836197601AD19EB7E1C499B0601
:1051E0004A4013438022120613436A681360012069
:1051F00080BCB846F0BD174FBC468F016244BC4628
:10520000AC446746BA6247461760002908D10023BC
:1052100064012C196360104BE360E8E70020E7E7C6
:105220000B4AC9009046624641445162C2E75B00A6
:10523000C5E7FEF7AFFAFA68CCE7C0468425002040
:105240008400105004001050A8290020FF0F1050B7
:1052500000001050800010500001105010B503F0F5
:10526000FBFD10BD10B57F200C0020404000E4097C
:10527000110000191A00034B4001C01800F058F843
:10528000012010BD842500207F23180010B50840A0
:105290000B420BD0C90980224000074B4018400147
:1052A0000021C018120103F017FE10BD0223034AAB
:1052B000C9095B1A9366EEE784250020002011508F
:1052C0007F22130010B50B400A4200D110BDC9095E
:1052D0005B005B1804485B01C018002300220349EF
:1052E000C37003F0F9FDF1E784250020FFF7FFFF0D
:1052F00080220A4B520410B51A60094B09491A6002
:1053000010000B689843FBD180220021520106480F
:10531000FFF734F80922054B5A6710BD00E0004042
:1053200000F0004008C00040000010500000115084
:10533000002310B5C38201338282837601610400A9
:1053400003F06AFD002804D080219023074A8902D7
:10535000D150200003F058FD002802D0012323770C
:1053600010BD200003F0B0FDFAE7C0460020115048
:105370007047C0467047C046002070470020704705
:105380007047C0467047C0467047C0467047C04629
:10539000024B5878431E9841C0B27047B41F00209A
:1053A000024B18784007C00F7047C046B41F00205A
:1053B000F0B5D6464F464646C0B5314B07009A4633
:1053C0001B780E00FF2B01D0012044E0002941D0C2
:1053D000002154222B48FEF7D1FF00222A4C2B4BF0
:1053E00020001A70FDF738FB294B1C60294C200067
:1053F000143CFDF73FFB200001F0FAFD264B274D42
:105400001C60274B002B2BD02800FFF7BBFA254B45
:105410002A781860244900248946224900238846B6
:1054200010E043461B6862019B18002B12D05B689A
:10543000002B0FD098472A780134E4B2511C230086
:10544000A1420FDBA242ECD89B1A5B014B445B6884
:10545000002BEFD10020E0BCBA46B146A846F0BD13
:105460002A78D7E75346310038001F70FFF7F8FD60
:105470000028EFD03800FFF73BFE0120EBE7C046E5
:10548000D4110020B41F0020AC1F0020187A002087
:1054900008200020CC1100200C200020167A0020CB
:1054A00085490010041E0020F8930010F0B5DE4678
:1054B00057464E464546E0B5CE4B91B002931B7819
:1054C000FF2B00D138E1CC4BCC4E9B465F46CC4BFA
:1054D0000DAC0193CB4B009335686A69EFF31081F3
:1054E00072B61368002BFCD0BFF35F8FA961280050
:1054F000210001F0BFFB6A69AB69BFF35F8F002138
:10550000116083F31088002800D115E16378082B1F
:10551000E2D89B00FB589F466368002BDCD0A06854
:105520009847D9E77F222179B54D0A405300EB18FF
:105530009846C809804440460123303005799D4390
:105540000571057903339D430571002A00D1FAE006
:105550004346AD4A1B7D1278934200D3E9E0AB4A43
:105560005B011568ED18002D00D1E5E0A3686279B4
:105570002078AD69A847AFE7A54A1378002B00D182
:10558000DAE01378013BDBB213701378002BA3D160
:1055900001229B4D01212B78042013432B703423CF
:1055A000EA5C8A43EA54EA5C8243EA540133EA5CE7
:1055B0008A43EA54EA5C8243EA54237800209B46FB
:1055C00000F0A4FC602223791A40602A0DD0402A02
:1055D00000D1CAE0DB06DB0E012B00D120E1022B5B
:1055E00000D1DCE0002B00D1CBE020780021FFF7D8
:1055F0004BFE80212078FFF747FE6DE7804D2B782A
:10560000DB0700D468E7FFF7C1FE65E7019BDB78A5
:10561000DB0700D460E76068FFF7ACFE5CE7784D1D
:105620002B78DB0700D457E728780007C00FFFF777
:10563000ABFE51E72378734999468B46724B734909
:1056400098468A4639001A7847460023B046002516
:105650004E46894610E053461B686A019B18002B92
:1056600000D176E0DB68300098473A780135EDB23A
:10567000511C2B008D4244DCAA42ECD89B1A5B01E2
:105680005B44EFE72378614999465F4B8A46984629
:105690003100BB464E461A7800250023474689460E
:1056A0000FE053461B686A019B18002B55D0DB683E
:1056B000300098473A780135EDB2511C2B008D42ED
:1056C00007DC9542EDD39B1A009A5B019446634434
:1056D000EDE7019D542200212800FEF74FFE102225
:1056E000FF214C48FEF74AFE28002022FF211430FB
:1056F0004E465F46FEF742FE00F0FEFBFFF742FE1D
:10570000EAE63F4D542200212800FEF737FE102222
:10571000FF21281DFEF732FE28002022FF21143031
:1057200046464F46FEF72AFE00F0E6FB2379AB70B3
:10573000D2E6501C984213DA11B0F0BCBB46B24618
:10574000A946A046F0BDA3686279207800F0F2FB7C
:10575000C2E646464F462A4DE6E74E465F46CBE751
:10576000284D9B1A5B015D1900E72B4800F0CEFB2A
:10577000012158460EAAFFF7EBF8002800D0ABE64F
:1057800033E7202A00D156E1002A00D02DE76379C3
:10579000092B00D929E7214A9B00D3589F46702343
:1057A000217A0B4200D020E7C80982460F330B4014
:1057B0005B0098461448EB1853441B7D00789946CB
:1057C000834261D3431C4B4500DA4EE14B461B1A22
:1057D0005B0199460B488144002A00D14AE14B46BF
:1057E000586900F093FB4B46012158465B690EAAAD
:1057F0009847C2E7D4110020509300100C200020DD
:10580000B41F0020F8930010167A0020041E002018
:10581000187A0020B81F002051490010749300101E
:10582000237A0F2B00D9E0E6D74AEB181B791578BD
:10583000AB4236D3691C994200DAD6E65D1BD34BE6
:105840006D01ED18686900F061FB012158466B6934
:105850000EAA9847002800D03EE660221500237962
:105860001D401A4200D0C0E663790A3B012B00D9E3
:10587000BBE600F04BFB63790A2B00D18EE1584662
:105880000EA900F0CDFA27E6C1485B010068814609
:105890009944002A00D1EDE04B46002B00D1A4E64C
:1058A0009DE7BB4A5B011568ED18002DCAD19CE647
:1058B000A37999466B789945E1D06B78002B00D09D
:1058C00034E14B466B70002B00D12CE14846013887
:1058D000C0B2FFF789FA002800D17EE14378079330
:1058E000022B00D079E10122C179B1468B11491117
:1058F00013400A40302112015B0113432A78A84665
:105900008A4313432B7009239A4682445646BA466B
:10591000C37882781B021343C31805939A4B0493F0
:105920009A4B08939A4B09939A4B0A93059BB3425F
:1059300000D855E1737801220B2B03D13378F2782C
:10594000F6187378042B00D044E1059B00279B1BBD
:105950009BB20693049B0B921D78002303931BE0DC
:10596000099A7B011568ED18002D00D132E1310054
:1059700058462B69069A98478446082803D9069A00
:10598000824200D313E1049B01371D78FFB26B1CE8
:1059900003979F4200DD1DE1AF42E1D3039B5D1BF6
:1059A000089B6D019C466544E1E76B780CAA0232C6
:1059B0001370584601230EA900F048FA8CE5E388DD
:1059C0001A0AD8B20F2A00D90FE673499300CB58B0
:1059D0009F460EA800F0A0FA5846A179FFF78EFB6B
:1059E00002222B7813432B7076E5E388012B00D03D
:1059F000FBE508222B78584693430EA92B7000F044
:105A00000FFA69E5022029780CAB9A1C8B068908ED
:105A1000DB0F01400B431380584602230EA900F010
:105A200015FA59E5E388012B00D0DEE508222B7832
:105A300013432B7023E7237A0F2B00D9D5E5EB18FE
:105A40001D79514B1B789D4228D2514B6D011B682B
:105A50005D19002D00D1C8E5686900F057FA0121F1
:105A600058466B690EAA984787E6002A00D0BCE525
:105A70000023994662790220130003928343012B8D
:105A800015D0002A00D0B0E52B00434453443033F6
:105A90001B790CAA9B07DB0F0232BCE75A1CAA42F7
:105AA00000DAA2E5ED1A394B6D01ED18D4E7E38871
:105AB000002B11D1012A25D0029B1878FFF7E4FBB7
:105AC00043460221EB18534430331A790A4301212B
:105AD0001A711A790A431A714B46002B00D1FBE464
